{"contracts/AfterLife.sol":{"AfterLife":{"abi":[{"inputs":[],"name":"AllocationExceeds100Percent","type":"error"},{"inputs":[],"name":"AlreadyDead","type":"error"},{"inputs":[],"name":"AlreadyRegistered","type":"error"},{"inputs":[],"name":"BeneficiaryExists","type":"error"},{"inputs":[],"name":"BeneficiaryNotFound","type":"error"},{"inputs":[],"name":"CannotBeSelf","type":"error"},{"inputs":[],"name":"EmptyString","type":"error"},{"inputs":[],"name":"FixedGuardian","type":"error"},{"inputs":[],"name":"GracePeriodExpired","type":"error"},{"inputs":[],"name":"GuardianExists","type":"error"},{"inputs":[],"name":"GuardianNotFound","type":"error"},{"inputs":[],"name":"IndexOutOfBounds","type":"error"},{"inputs":[],"name":"InsufficientBalance","type":"error"},{"inputs":[],"name":"NoReentrancy","type":"error"},{"inputs":[],"name":"NoValue","type":"error"},{"inputs":[],"name":"NotBeneficiary","type":"error"},{"inputs":[],"name":"NotGuardian","type":"error"},{"inputs":[],"name":"NotRegistered","type":"error"},{"inputs":[],"name":"NothingToClaim","type":"error"},{"inputs":[],"name":"OwnerStillActive","type":"error"},{"inputs":[],"name":"ProtocolActive","type":"error"},{"inputs":[],"name":"ProtocolDead","type":"error"},{"inputs":[],"name":"ThresholdTooShort","type":"error"},{"inputs":[],"name":"TooManyBeneficiaries","type":"error"},{"inputs":[],"name":"TooManyGuardians","type":"error"},{"inputs":[],"name":"VaultInsolvency","type":"error"},{"inputs":[],"name":"VestingNotStarted","type":"error"},{"inputs":[],"name":"ZeroAddress","type":"error"},{"inputs":[],"name":"ZeroAllocation","type":"error"},{"inputs":[],"name":"ZeroAmount","type":"error"},{"inputs":[],"name":"ZeroDuration","type":"error"},{"anonymous":false,"inputs":[{"indexed":true,"internalType":"address","name":"owner","type":"address"},{"indexed":true,"internalType":"address","name":"wallet","type":"address"},{"indexed":false,"internalType":"uint256","name":"allocation","type":"uint256"}],"name":"BeneficiaryAdded","type":"event"},{"anonymous":false,"inputs":[{"indexed":true,"internalType":"address","name":"owner","type":"address"},{"indexed":true,"internalType":"address","name":"wallet","type":"address"}],"name":"BeneficiaryRemoved","type":"event"},{"anonymous":false,"inputs":[{"indexed":true,"internalType":"address","name":"owner","type":"address"},{"indexed":true,"internalType":"address","name":"beneficiary","type":"address"},{"indexed":false,"internalType":"uint256","name":"amount","type":"uint256"}],"name":"FundsClaimed","type":"event"},{"anonymous":false,"inputs":[{"indexed":true,"internalType":"address","name":"owner","type":"address"},{"indexed":false,"internalType":"uint256","name":"amount","type":"uint256"}],"name":"FundsDeposited","type":"event"},{"anonymous":false,"inputs":[{"indexed":true,"internalType":"address","name":"owner","type":"address"},{"indexed":false,"internalType":"uint256","name":"amount","type":"uint256"}],"name":"FundsWithdrawn","type":"event"},{"anonymous":false,"inputs":[{"indexed":true,"internalType":"address","name":"owner","type":"address"},{"indexed":true,"internalType":"address","name":"wallet","type":"address"}],"name":"GuardianAdded","type":"event"},{"anonymous":false,"inputs":[{"indexed":true,"internalType":"address","name":"owner","type":"address"},{"indexed":true,"internalType":"address","name":"wallet","type":"address"},{"indexed":false,"internalType":"bool","name":"isFixed","type":"bool"}],"name":"GuardianFixedStatusChanged","type":"event"},{"anonymous":false,"inputs":[{"indexed":true,"internalType":"address","name":"owner","type":"address"},{"indexed":true,"internalType":"address","name":"wallet","type":"address"}],"name":"GuardianRemoved","type":"event"},{"anonymous":false,"inputs":[{"indexed":true,"internalType":"address","name":"owner","type":"address"},{"indexed":false,"internalType":"uint256","name":"timestamp","type":"uint256"}],"name":"InactivityConfirmed","type":"event"},{"anonymous":false,"inputs":[{"indexed":true,"internalType":"address","name":"owner","type":"address"},{"indexed":true,"internalType":"address","name":"beneficiary","type":"address"},{"indexed":false,"internalType":"uint256","name":"feeAmount","type":"uint256"}],"name":"PlatformFeeCollected","type":"event"},{"anonymous":false,"inputs":[{"indexed":true,"internalType":"address","name":"owner","type":"address"},{"indexed":false,"internalType":"uint256","name":"threshold","type":"uint256"}],"name":"ProtocolRegistered","type":"event"},{"anonymous":false,"inputs":[{"indexed":true,"internalType":"address","name":"owner","type":"address"},{"indexed":false,"internalType":"uint256","name":"timestamp","type":"uint256"}],"name":"ProtocolRevived","type":"event"},{"anonymous":false,"inputs":[{"indexed":true,"internalType":"address","name":"owner","type":"address"},{"indexed":false,"internalType":"uint256","name":"timestamp","type":"uint256"}],"name":"Pulse","type":"event"},{"inputs":[],"name":"MAX_BENEFICIARIES","outputs":[{"internalType":"uint256","name":"","type":"uint256"}],"stateMutability":"view","type":"function"},{"inputs":[],"name":"MAX_GUARDIANS","outputs":[{"internalType":"uint256","name":"","type":"uint256"}],"stateMutability":"view","type":"function"},{"inputs":[],"name":"MIN_THRESHOLD","outputs":[{"internalType":"uint256","name":"","type":"uint256"}],"stateMutability":"view","type":"function"},{"inputs":[],"name":"PLATFORM_FEE_BPS","outputs":[{"internalType":"uint256","name":"","type":"uint256"}],"stateMutability":"view","type":"function"},{"inputs":[],"name":"PLATFORM_WALLET","outputs":[{"internalType":"address","name":"","type":"address"}],"stateMutability":"view","type":"function"},{"inputs":[],"name":"REVIVE_GRACE_PERIOD","outputs":[{"internalType":"uint256","name":"","type":"uint256"}],"stateMutability":"view","type":"function"},{"inputs":[{"internalType":"string","name":"_name","type":"string"},{"internalType":"address","name":"_wallet","type":"address"},{"internalType":"uint256","name":"_allocationBps","type":"uint256"},{"internalType":"enum AfterLife.VestingType","name":"_vestingType","type":"uint8"},{"internalType":"uint256","name":"_duration","type":"uint256"}],"name":"addBeneficiary","outputs":[],"stateMutability":"nonpayable","type":"function"},{"inputs":[{"internalType":"string","name":"_name","type":"string"},{"internalType":"address","name":"_wallet","type":"address"}],"name":"addGuardian","outputs":[],"stateMutability":"nonpayable","type":"function"},{"inputs":[{"internalType":"address","name":"","type":"address"},{"internalType":"address","name":"","type":"address"}],"name":"beneficiaries","outputs":[{"internalType":"string","name":"name","type":"string"},{"internalType":"address","name":"wallet","type":"address"},{"internalType":"uint256","name":"allocation","type":"uint256"},{"internalType":"uint256","name":"amountClaimed","type":"uint256"},{"internalType":"enum AfterLife.VestingType","name":"vestingType","type":"uint8"},{"internalType":"uint256","name":"vestingDuration","type":"uint256"}],"stateMutability":"view","type":"function"},{"inputs":[{"internalType":"address","name":"","type":"address"},{"internalType":"uint256","name":"","type":"uint256"}],"name":"beneficiaryLists","outputs":[{"internalType":"address","name":"","type":"address"}],"stateMutability":"view","type":"function"},{"inputs":[{"internalType":"address","name":"_owner","type":"address"}],"name":"claim","outputs":[],"stateMutability":"nonpayable","type":"function"},{"inputs":[{"internalType":"address","name":"_owner","type":"address"}],"name":"confirmInactivity","outputs":[],"stateMutability":"nonpayable","type":"function"},{"inputs":[],"name":"deposit","outputs":[],"stateMutability":"payable","type":"function"},{"inputs":[{"internalType":"address","name":"_owner","type":"address"},{"internalType":"uint256","name":"_index","type":"uint256"}],"name":"getBeneficiaryAt","outputs":[{"internalType":"address","name":"","type":"address"}],"stateMutability":"view","type":"function"},{"inputs":[{"internalType":"address","name":"_owner","type":"address"}],"name":"getBeneficiaryCount","outputs":[{"internalType":"uint256","name":"","type":"uint256"}],"stateMutability":"view","type":"function"},{"inputs":[{"internalType":"address","name":"_owner","type":"address"},{"internalType":"address","name":"_beneficiary","type":"address"}],"name":"getClaimableAmount","outputs":[{"internalType":"uint256","name":"claimable","type":"uint256"},{"internalType":"uint256","name":"totalEntitlement","type":"uint256"},{"internalType":"uint256","name":"alreadyClaimed","type":"uint256"}],"stateMutability":"view","type":"function"},{"inputs":[{"internalType":"address","name":"_owner","type":"address"},{"internalType":"uint256","name":"_index","type":"uint256"}],"name":"getGuardianAt","outputs":[{"internalType":"address","name":"","type":"address"}],"stateMutability":"view","type":"function"},{"inputs":[{"internalType":"address","name":"_owner","type":"address"}],"name":"getGuardianCount","outputs":[{"internalType":"uint256","name":"","type":"uint256"}],"stateMutability":"view","type":"function"},{"inputs":[{"internalType":"address","name":"_owner","type":"address"}],"name":"getOwnerBalance","outputs":[{"internalType":"uint256","name":"","type":"uint256"}],"stateMutability":"view","type":"function"},{"inputs":[{"internalType":"address","name":"_owner","type":"address"}],"name":"getReviveStatus","outputs":[{"internalType":"bool","name":"canRevive","type":"bool"},{"internalType":"uint256","name":"timeRemaining","type":"uint256"}],"stateMutability":"view","type":"function"},{"inputs":[{"internalType":"address","name":"","type":"address"},{"internalType":"uint256","name":"","type":"uint256"}],"name":"guardianLists","outputs":[{"internalType":"address","name":"","type":"address"}],"stateMutability":"view","type":"function"},{"inputs":[{"internalType":"address","name":"","type":"address"},{"internalType":"address","name":"","type":"address"}],"name":"guardians","outputs":[{"internalType":"string","name":"name","type":"string"},{"internalType":"address","name":"wallet","type":"address"},{"internalType":"bool","name":"isFixed","type":"bool"}],"stateMutability":"view","type":"function"},{"inputs":[{"internalType":"address","name":"_addr","type":"address"}],"name":"isOwner","outputs":[{"internalType":"bool","name":"","type":"bool"}],"stateMutability":"view","type":"function"},{"inputs":[{"internalType":"address","name":"","type":"address"}],"name":"ownerBalances","outputs":[{"internalType":"uint256","name":"","type":"uint256"}],"stateMutability":"view","type":"function"},{"inputs":[{"internalType":"address","name":"","type":"address"}],"name":"protocols","outputs":[{"internalType":"bool","name":"isRegistered","type":"bool"},{"internalType":"uint256","name":"lastHeartbeat","type":"uint256"},{"internalType":"uint256","name":"inactivityThreshold","type":"uint256"},{"internalType":"bool","name":"isDead","type":"bool"},{"internalType":"uint256","name":"initialVaultBalance","type":"uint256"},{"internalType":"uint256","name":"vestingStartTime","type":"uint256"},{"internalType":"uint256","name":"totalAllocation","type":"uint256"},{"internalType":"uint256","name":"deathDeclarationTime","type":"uint256"}],"stateMutability":"view","type":"function"},{"inputs":[],"name":"proveLife","outputs":[],"stateMutability":"nonpayable","type":"function"},{"inputs":[{"internalType":"uint256","name":"_thresholdSeconds","type":"uint256"}],"name":"register","outputs":[],"stateMutability":"nonpayable","type":"function"},{"inputs":[{"internalType":"address","name":"_beneficiary","type":"address"}],"name":"removeBeneficiary","outputs":[],"stateMutability":"nonpayable","type":"function"},{"inputs":[{"internalType":"address","name":"_guardian","type":"address"}],"name":"removeGuardian","outputs":[],"stateMutability":"nonpayable","type":"function"},{"inputs":[{"internalType":"address","name":"_guardian","type":"address"},{"internalType":"bool","name":"_fixed","type":"bool"}],"name":"setGuardianFixed","outputs":[],"stateMutability":"nonpayable","type":"function"},{"inputs":[{"internalType":"uint256","name":"_newThreshold","type":"uint256"}],"name":"updateInactivityThreshold","outputs":[],"stateMutability":"nonpayable","type":"function"},{"inputs":[{"internalType":"uint256","name":"_amount","type":"uint256"}],"name":"withdraw","outputs":[],"stateMutability":"nonpayable","type":"function"},{"stateMutability":"payable","type":"receive"}],"evm":{"bytecode":{"linkReferences":{},"object":"608060405234801561001057600080fd5b50612895806100206000396000f3fe6080604052600436106101e75760003560e01c806359633a1c11610102578063bd11c4c011610095578063e1a253d911610064578063e1a253d91461071a578063e3538bc114610751578063eb8b12d41461077e578063f207564e146107a657600080fd5b8063bd11c4c0146106a7578063be3f2280146106bc578063cb60ee24146106dc578063d0e30db01461071257600080fd5b80637fcf440a116100d15780637fcf440a146105f65780638b9676a71461062c5780638c1334b21461064c578063bb7dbfe71461066c57600080fd5b806359633a1c146105815780635bd61f23146105a157806371404156146105b65780637e6929ae146105d657600080fd5b806336c79d521161017a578063448130811161014957806344813081146104ea578063460e73981461051957806350b8c3721461054b578063539aa77f1461056b57600080fd5b806336c79d52146104685780633a6708e21461047d5780634036cec2146104b5578063422c1d37146104d557600080fd5b806326638a0a116101b657806326638a0a1461033d5780632e1a7d4d146103df5780632f54bf6e146103ff57806335f938671461044857600080fd5b80631e83409a1461029d57806320292859146102bf5780632348dd18146102df5780632423c7f31461030757600080fd5b36610298573360009081526020819052604090205460ff1661021c5760405163aba4733960e01b815260040160405180910390fd5b3460000361023d5760405163f2365b5b60e01b815260040160405180910390fd5b336000908152600160205260408120805434929061025c908490612331565b909155505060405134815233907f543ba50a5eec5e6178218e364b1d0f396157b3c8fa278522c2cb7fd99407d4749060200160405180910390a2005b600080fd5b3480156102a957600080fd5b506102bd6102b8366004612360565b6107c6565b005b3480156102cb57600080fd5b506102bd6102da366004612425565b610c38565b3480156102eb57600080fd5b506102f4601481565b6040519081526020015b60405180910390f35b34801561031357600080fd5b506102f4610322366004612360565b6001600160a01b031660009081526005602052604090205490565b34801561034957600080fd5b506103a2610358366004612360565b6000602081905290815260409020805460018201546002830154600384015460048501546005860154600687015460079097015460ff968716979596949593909416939192909188565b6040805198151589526020890197909752958701949094529115156060860152608085015260a084015260c083015260e0820152610100016102fe565b3480156103eb57600080fd5b506102bd6103fa366004612473565b610e31565b34801561040b57600080fd5b5061043861041a366004612360565b6001600160a01b031660009081526020819052604090205460ff1690565b60405190151581526020016102fe565b34801561045457600080fd5b506102bd61046336600461248c565b611008565b34801561047457600080fd5b506102f4607881565b34801561048957600080fd5b5061049d610498366004612502565b611309565b6040516001600160a01b0390911681526020016102fe565b3480156104c157600080fd5b5061049d6104d0366004612502565b611341565b3480156104e157600080fd5b506102f4600a81565b3480156104f657600080fd5b5061050a61050536600461252c565b61135d565b6040516102fe9392919061259c565b34801561052557600080fd5b5061053961053436600461252c565b611422565b6040516102fe969594939291906125e5565b34801561055757600080fd5b506102bd610566366004612360565b6114f8565b34801561057757600080fd5b506102f46103e881565b34801561058d57600080fd5b506102bd61059c366004612360565b61164a565b3480156105ad57600080fd5b506102bd6118bd565b3480156105c257600080fd5b506102bd6105d1366004612360565b611a4e565b3480156105e257600080fd5b5061049d6105f1366004612502565b611ca4565b34801561060257600080fd5b506102f4610611366004612360565b6001600160a01b031660009081526001602052604090205490565b34801561063857600080fd5b5061049d610647366004612502565b611d24565b34801561065857600080fd5b506102bd610667366004612649565b611d86565b34801561067857600080fd5b5061068c61068736600461252c565b611e7d565b604080519384526020840192909252908201526060016102fe565b3480156106b357600080fd5b506102f4603c81565b3480156106c857600080fd5b506102bd6106d7366004612473565b611feb565b3480156106e857600080fd5b506102f46106f7366004612360565b6001600160a01b031660009081526003602052604090205490565b6102bd612081565b34801561072657600080fd5b5061073a610735366004612360565b61212d565b6040805192151583526020830191909152016102fe565b34801561075d57600080fd5b506102f461076c366004612360565b60016020526000908152604090205481565b34801561078a57600080fd5b5061049d73fe13b060897b5dabbc866c312a6839c007d181fb81565b3480156107b257600080fd5b506102bd6107c1366004612473565b6121a0565b60065460ff16156107ea57604051632c1ff44360e11b815260040160405180910390fd5b6006805460ff191660011790556001600160a01b0381166000908152602081905260409020600381015482919060ff166108375760405163759d4e6160e11b815260040160405180910390fd5b806005015460000361085c576040516306aa937d60e31b815260040160405180910390fd5b6001600160a01b0380841660009081526004602090815260408083203380855292529091206001810154909216146108a75760405163644d871f60e01b815260040160405180910390fd5b6001600160a01b038416600090815260208190526040812060028301546004820154919291612710916108d991612685565b6108e3919061269c565b90506000808360050154426108f891906126be565b90506001600486015460ff166001811115610915576109156125cf565b0361092e5784600501548110610929578291505b61095d565b846005015481106109415782915061095d565b60058501546109508285612685565b61095a919061269c565b91505b6000856003015483111561097d57600386015461097a90846126be565b90505b8060000361099e576040516312d37ee560e31b815260040160405180910390fd5b6001600160a01b0389166000908152600160205260409020548111156109d75760405163a908d3d960e01b815260040160405180910390fd5b808660030160008282546109eb9190612331565b90915550506001600160a01b03891660009081526001602052604081208054839290610a189084906126be565b9091555060009050612710610a2f6103e884612685565b610a39919061269c565b90506000610a4782846126be565b60018901546040519192506000916001600160a01b039091169083908381818185875af1925050503d8060008114610a9b576040519150601f19603f3d011682016040523d82523d6000602084013e610aa0565b606091505b5050905080610af65760405162461bcd60e51b815260206004820152601b60248201527f42656e6566696369617279207472616e73666572206661696c6564000000000060448201526064015b60405180910390fd5b60405160009073fe13b060897b5dabbc866c312a6839c007d181fb9085908381818185875af1925050503d8060008114610b4c576040519150601f19603f3d011682016040523d82523d6000602084013e610b51565b606091505b5050905080610b985760405162461bcd60e51b8152602060048201526013602482015272119959481d1c985b9cd9995c8819985a5b1959606a1b6044820152606401610aed565b60018a01546040518681526001600160a01b03918216918f16907f716942921e9b67ee05c4c2ffcf216f189086c9053b444c8928a49db4bdb1ae8e9060200160405180910390a360405184815233906001600160a01b038f16907f11218599de218e2eec1319fda62c5ac18d9e7a9ebf9610ee7fd27a652598e6369060200160405180910390a350506006805460ff191690555050505050505050505050565b3360009081526020819052604090205460ff16610c685760405163aba4733960e01b815260040160405180910390fd5b806001600160a01b038116610c905760405163d92e233d60e01b815260040160405180910390fd5b828051600003610cb35760405163ecd7b0d160e01b815260040160405180910390fd5b3360009081526002602090815260408083206001600160a01b0387811685529252909120600101541615610cfa57604051633581763360e01b815260040160405180910390fd5b33600090815260036020526040902054600a11610d2a57604051639308529b60e01b815260040160405180910390fd5b336001600160a01b03841603610d535760405163265079bd60e21b815260040160405180910390fd5b604080516060810182528581526001600160a01b03851660208083018290526000838501819052338152600282528481209281529190529190912081518190610d9c908261275a565b50602082810151600192830180546040958601511515600160a01b026001600160a81b03199091166001600160a01b03938416171790553360008181526003845285812080549586018155815292832090930180549188166001600160a01b0319929092168217905592517fbc3292102fa77e083913064b282926717cdfaede4d35f553d66366c0a3da755a9190a350505050565b3360009081526020819052604090205460ff16610e615760405163aba4733960e01b815260040160405180910390fd5b60065460ff1615610e8557604051632c1ff44360e11b815260040160405180910390fd5b6006805460ff191660011790553360009081526020819052604090206003015460ff1615610ec6576040516352e39c5b60e11b815260040160405180910390fd5b80600003610ee757604051631f2a200560e01b815260040160405180910390fd5b33600090815260016020526040902054811115610f1757604051631e9acf1760e31b815260040160405180910390fd5b3360009081526001602052604081208054839290610f369084906126be565b9091555050604051600090339083908381818185875af1925050503d8060008114610f7d576040519150601f19603f3d011682016040523d82523d6000602084013e610f82565b606091505b5050905080610fc55760405162461bcd60e51b815260206004820152600f60248201526e151c985b9cd9995c8819985a5b1959608a1b6044820152606401610aed565b60405182815233907feaff4b37086828766ad3268786972c0cd24259d4c87a80f9d3963a3c3d999b0d9060200160405180910390a250506006805460ff19169055565b3360009081526020819052604090205460ff166110385760405163aba4733960e01b815260040160405180910390fd5b836001600160a01b0381166110605760405163d92e233d60e01b815260040160405180910390fd5b8580516000036110835760405163ecd7b0d160e01b815260040160405180910390fd5b3360009081526004602090815260408083206001600160a01b038a8116855292529091206001015416156110ca57604051637ffebe8360e01b815260040160405180910390fd5b336000908152600560205260409020546014116110fa5760405163dd34c16560e01b815260040160405180910390fd5b8460000361111b5760405163ba0d87b560e01b815260040160405180910390fd5b336000908152602081905260409020600601546127109061113d908790612331565b111561115c5760405163f1b7a5d160e01b815260040160405180910390fd5b8260000361117d5760405163346ab43760e11b815260040160405180910390fd5b6040518060c00160405280888152602001876001600160a01b03168152602001868152602001600081526020018560018111156111bc576111bc6125cf565b815260209081018590523360009081526004825260408082206001600160a01b038b16835290925220815181906111f3908261275a565b506020820151600182810180546001600160a01b0319166001600160a01b0390931692909217909155604083015160028301556060830151600383015560808301516004830180549192909160ff1916908381811115611255576112556125cf565b021790555060a091909101516005918201553360008181526020928352604080822080546001810182559083528483200180546001600160a01b0319166001600160a01b038c1617905591815291829052812060060180548792906112bb908490612331565b90915550506040518581526001600160a01b0387169033907f5d081d791b64899adab031015397ef8d7600501212ef97573b9e50f8c9bb6d9b9060200160405180910390a350505050505050565b6005602052816000526040600020818154811061132557600080fd5b6000918252602090912001546001600160a01b03169150829050565b6003602052816000526040600020818154811061132557600080fd5b6002602090815260009283526040808420909152908252902080548190611383906126d1565b80601f01602080910402602001604051908101604052809291908181526020018280546113af906126d1565b80156113fc5780601f106113d1576101008083540402835291602001916113fc565b820191906000526020600020905b8154815290600101906020018083116113df57829003601f168201915b505050600190930154919250506001600160a01b0381169060ff600160a01b9091041683565b6004602090815260009283526040808420909152908252902080548190611448906126d1565b80601f0160208091040260200160405190810160405280929190818152602001828054611474906126d1565b80156114c15780601f10611496576101008083540402835291602001916114c1565b820191906000526020600020905b8154815290600101906020018083116114a457829003601f168201915b50505050600183015460028401546003850154600486015460059096015494956001600160a01b03909316949193509160ff169086565b6001600160a01b038082166000908152600260209081526040808320338452909152902060010154829116611540576040516377b6878160e11b815260040160405180910390fd5b6001600160a01b0382166000908152602081905260409020805460ff1661157a5760405163aba4733960e01b815260040160405180910390fd5b600381015460ff16156115a057604051637281d96b60e11b815260040160405180910390fd5b806002015481600101546115b49190612331565b42116115d3576040516305ffd62b60e11b815260040160405180910390fd5b60038101805460ff191660019081179091554260058301819055600783018190556001600160a01b0385166000818152602093845260409081902054600486015551918252917f79a18691d9845d93f3a7276c16d1737e190da43060fa3fb2049f02dbf50a3d9a91015b60405180910390a2505050565b3360009081526020819052604090205460ff1661167a5760405163aba4733960e01b815260040160405180910390fd5b3360009081526004602090815260408083206001600160a01b038581168552925290912060010154166116c05760405163694f351f60e01b815260040160405180910390fd5b3360008181526004602090815260408083206001600160a01b038616845282528083206002015493835290829052812060060180548392906117039084906126be565b90915550503360009081526004602090815260408083206001600160a01b038616845290915281209061173682826122c5565b506001810180546001600160a01b03191690556000600282018190556003820181905560048201805460ff19169055600591820181905533815260209190915260408120805490915b8181101561188057846001600160a01b03168382815481106117a3576117a361281a565b6000918252602090912001546001600160a01b03160361186e57826117c96001846126be565b815481106117d9576117d961281a565b9060005260206000200160009054906101000a90046001600160a01b03168382815481106118095761180961281a565b9060005260206000200160006101000a8154816001600160a01b0302191690836001600160a01b031602179055508280548061184757611847612830565b600082815260209020810160001990810180546001600160a01b0319169055019055611880565b8061187881612846565b91505061177f565b506040516001600160a01b0385169033907f1a6590bd0cabbfcc7c86bef99e1034054e179905cfcc294598fcd426c092244290600090a350505050565b3360009081526020819052604090205460ff166118ed5760405163aba4733960e01b815260040160405180910390fd5b336000908152602081905260409020600381015460ff1615611a0d576078816007015461191a9190612331565b42111561193a57604051634b3c322760e11b815260040160405180910390fd5b60038101805460ff1916905560006005808301829055600483018290556007830182905542600184015533825260205260408120805490915b818110156119da57336000908152600460205260408120845482908690859081106119a0576119a061281a565b60009182526020808320909101546001600160a01b03168352820192909252604001902060030155806119d281612846565b915050611973565b5060405142815233907f5178649125cff20230f3d21b86a7386e3924b30d642eea1f977a6668fab8344c9060200161163d565b426001820181905560405190815233907fdcefc94f16bf43dea53b136be3c49b2418f70b051a322b89f92f7739d65548ea906020015b60405180910390a250565b3360009081526020819052604090205460ff16611a7e5760405163aba4733960e01b815260040160405180910390fd5b3360009081526002602090815260408083206001600160a01b03858116855292529091206001015416611ac4576040516337c5c3a360e21b815260040160405180910390fd5b3360009081526002602090815260408083206001600160a01b0385168452909152902060010154600160a01b900460ff1615611b135760405163051c65db60e01b815260040160405180910390fd5b3360009081526002602090815260408083206001600160a01b0385168452909152812090611b4182826122c5565b5060010180546001600160a81b0319169055336000908152600360205260408120805490915b81811015611c6857836001600160a01b0316838281548110611b8b57611b8b61281a565b6000918252602090912001546001600160a01b031603611c565782611bb16001846126be565b81548110611bc157611bc161281a565b9060005260206000200160009054906101000a90046001600160a01b0316838281548110611bf157611bf161281a565b9060005260206000200160006101000a8154816001600160a01b0302191690836001600160a01b0316021790555082805480611c2f57611c2f612830565b600082815260209020810160001990810180546001600160a01b0319169055019055611c68565b80611c6081612846565b915050611b67565b506040516001600160a01b0384169033907fee943cdb81826d5909c559c6b1ae6908fcaf2dbc16c4b730346736b486283e8b90600090a3505050565b6001600160a01b0382166000908152600360205260408120548210611cdc57604051634e23d03560e01b815260040160405180910390fd5b6001600160a01b0383166000908152600360205260409020805483908110611d0657611d0661281a565b6000918252602090912001546001600160a01b031690505b92915050565b6001600160a01b0382166000908152600560205260408120548210611d5c57604051634e23d03560e01b815260040160405180910390fd5b6001600160a01b0383166000908152600560205260409020805483908110611d0657611d0661281a565b3360009081526020819052604090205460ff16611db65760405163aba4733960e01b815260040160405180910390fd5b3360009081526002602090815260408083206001600160a01b03868116855292529091206001015416611dfc576040516337c5c3a360e21b815260040160405180910390fd5b3360008181526002602090815260408083206001600160a01b0387168085529252918290206001018054851515600160a01b0260ff60a01b1990911617905590519091907fea39c92a08a5c775f8b77f8813f0c227d5ae58f04e182b81b62d37a24107484f90611e7190851515815260200190565b60405180910390a35050565b6001600160a01b0380831660009081526020818152604080832060048352818420948616845293909152812060038301549192839283929060ff16611ed55760405163759d4e6160e11b815260040160405180910390fd5b60018101546001600160a01b0316611f005760405163644d871f60e01b815260040160405180910390fd5b60788260070154611f119190612331565b4211611f295760008060009450945094505050611fe4565b61271081600201548360040154611f409190612685565b611f4a919061269c565b9350806003015492506000826005015442611f6591906126be565b905060006001600484015460ff166001811115611f8457611f846125cf565b03611f9c5782600501548210611f975750845b611fca565b82600501548210611fae575084611fca565b6005830154611fbd8388612685565b611fc7919061269c565b90505b84811115611fdf57611fdc85826126be565b96505b505050505b9250925092565b3360009081526020819052604090205460ff1661201b5760405163aba4733960e01b815260040160405180910390fd5b603c81101561203d576040516358c277e760e01b815260040160405180910390fd5b336000818152602081815260409182902060020184905590518381527fa4d780a276eb469a8a23984707d159b7887c3f1d43e2cc22a91cea75faea9ec39101611a43565b3360009081526020819052604090205460ff166120b15760405163aba4733960e01b815260040160405180910390fd5b346000036120d25760405163f2365b5b60e01b815260040160405180910390fd5b33600090815260016020526040812080543492906120f1908490612331565b909155505060405134815233907f543ba50a5eec5e6178218e364b1d0f396157b3c8fa278522c2cb7fd99407d4749060200160405180910390a2565b6001600160a01b0381166000908152602081905260408120600381015482919060ff166121605750600093849350915050565b6000607882600701546121739190612331565b9050804210612189575060009485945092505050565b600161219542836126be565b935093505050915091565b3360009081526020819052604090205460ff16156121d157604051630ea075bf60e21b815260040160405180910390fd5b603c8110156121f3576040516358c277e760e01b815260040160405180910390fd5b604080516101008101825260018082524260208084019182528385018681526000606086018181526080870182815260a0880183815260c0890184815260e08a018581523380875297869052948b902099518a5490151560ff19918216178b559751988a0198909855935160028901559051600388018054911515919096161790945592516004860155516005850155915160068401555160079092019190915590517fa4d780a276eb469a8a23984707d159b7887c3f1d43e2cc22a91cea75faea9ec390611a439084815260200190565b5080546122d1906126d1565b6000825580601f106122e1575050565b601f0160209004906000526020600020908101906122ff9190612302565b50565b5b808211156123175760008155600101612303565b5090565b634e487b7160e01b600052601160045260246000fd5b80820180821115611d1e57611d1e61231b565b80356001600160a01b038116811461235b57600080fd5b919050565b60006020828403121561237257600080fd5b61237b82612344565b9392505050565b634e487b7160e01b600052604160045260246000fd5b600082601f8301126123a957600080fd5b813567ffffffffffffffff808211156123c4576123c4612382565b604051601f8301601f19908116603f011681019082821181831017156123ec576123ec612382565b8160405283815286602085880101111561240557600080fd5b836020870160208301376000602085830101528094505050505092915050565b6000806040838503121561243857600080fd5b823567ffffffffffffffff81111561244f57600080fd5b61245b85828601612398565b92505061246a60208401612344565b90509250929050565b60006020828403121561248557600080fd5b5035919050565b600080600080600060a086880312156124a457600080fd5b853567ffffffffffffffff8111156124bb57600080fd5b6124c788828901612398565b9550506124d660208701612344565b9350604086013592506060860135600281106124f157600080fd5b949793965091946080013592915050565b6000806040838503121561251557600080fd5b61251e83612344565b946020939093013593505050565b6000806040838503121561253f57600080fd5b61254883612344565b915061246a60208401612344565b6000815180845260005b8181101561257c57602081850181015186830182015201612560565b506000602082860101526020601f19601f83011685010191505092915050565b6060815260006125af6060830186612556565b6001600160a01b0394909416602083015250901515604090910152919050565b634e487b7160e01b600052602160045260246000fd5b60c0815260006125f860c0830189612556565b6001600160a01b0388166020840152604083018790526060830186905290506002841061263557634e487b7160e01b600052602160045260246000fd5b608082019390935260a00152949350505050565b6000806040838503121561265c57600080fd5b61266583612344565b91506020830135801515811461267a57600080fd5b809150509250929050565b8082028115828204841417611d1e57611d1e61231b565b6000826126b957634e487b7160e01b600052601260045260246000fd5b500490565b81810381811115611d1e57611d1e61231b565b600181811c908216806126e557607f821691505b60208210810361270557634e487b7160e01b600052602260045260246000fd5b50919050565b601f82111561275557600081815260208120601f850160051c810160208610156127325750805b601f850160051c820191505b818110156127515782815560010161273e565b5050505b505050565b815167ffffffffffffffff81111561277457612774612382565b6127888161278284546126d1565b8461270b565b602080601f8311600181146127bd57600084156127a55750858301515b600019600386901b1c1916600185901b178555612751565b600085815260208120601f198616915b828110156127ec578886015182559484019460019091019084016127cd565b508582101561280a5787850151600019600388901b60f8161c191681555b5050505050600190811b01905550565b634e487b7160e01b600052603260045260246000fd5b634e487b7160e01b600052603160045260246000fd5b6000600182016128585761285861231b565b506001019056fea2646970667358221220d4ea17d5c9b19f8f18e3de44b59da317477cb067854ffa144b9d658e8131a2fe64736f6c63430008140033","opcodes":"PUSH1 0x80 PUSH1 0x40 MSTORE CALLVALUE DUP1 ISZERO PUSH2 0x10 JUMPI PUSH1 0x0 DUP1 REVERT JUMPDEST POP PUSH2 0x2895 DUP1 PUSH2 0x20 PUSH1 0x0 CODECOPY PUSH1 0x0 RETURN INVALID PUSH1 0x80 PUSH1 0x40 MSTORE PUSH1 0x4 CALLDATASIZE LT PUSH2 0x1E7 JUMPI PUSH1 0x0 CALLDATALOAD PUSH1 0xE0 SHR DUP1 PUSH4 0x59633A1C GT PUSH2 0x102 JUMPI DUP1 PUSH4 0xBD11C4C0 GT PUSH2 0x95 JUMPI DUP1 PUSH4 0xE1A253D9 GT PUSH2 0x64 JUMPI DUP1 PUSH4 0xE1A253D9 EQ PUSH2 0x71A JUMPI DUP1 PUSH4 0xE3538BC1 EQ PUSH2 0x751 JUMPI DUP1 PUSH4 0xEB8B12D4 EQ PUSH2 0x77E JUMPI DUP1 PUSH4 0xF207564E EQ PUSH2 0x7A6 JUMPI PUSH1 0x0 DUP1 REVERT JUMPDEST DUP1 PUSH4 0xBD11C4C0 EQ PUSH2 0x6A7 JUMPI DUP1 PUSH4 0xBE3F2280 EQ PUSH2 0x6BC JUMPI DUP1 PUSH4 0xCB60EE24 EQ PUSH2 0x6DC JUMPI DUP1 PUSH4 0xD0E30DB0 EQ PUSH2 0x712 JUMPI PUSH1 0x0 DUP1 REVERT JUMPDEST DUP1 PUSH4 0x7FCF440A GT PUSH2 0xD1 JUMPI DUP1 PUSH4 0x7FCF440A EQ PUSH2 0x5F6 JUMPI DUP1 PUSH4 0x8B9676A7 EQ PUSH2 0x62C JUMPI DUP1 PUSH4 0x8C1334B2 EQ PUSH2 0x64C JUMPI DUP1 PUSH4 0xBB7DBFE7 EQ PUSH2 0x66C JUMPI PUSH1 0x0 DUP1 REVERT JUMPDEST DUP1 PUSH4 0x59633A1C EQ PUSH2 0x581 JUMPI DUP1 PUSH4 0x5BD61F23 EQ PUSH2 0x5A1 JUMPI DUP1 PUSH4 0x71404156 EQ PUSH2 0x5B6 JUMPI DUP1 PUSH4 0x7E6929AE EQ PUSH2 0x5D6 JUMPI PUSH1 0x0 DUP1 REVERT JUMPDEST DUP1 PUSH4 0x36C79D52 GT PUSH2 0x17A JUMPI DUP1 PUSH4 0x44813081 GT PUSH2 0x149 JUMPI DUP1 PUSH4 0x44813081 EQ PUSH2 0x4EA JUMPI DUP1 PUSH4 0x460E7398 EQ PUSH2 0x519 JUMPI DUP1 PUSH4 0x50B8C372 EQ PUSH2 0x54B JUMPI DUP1 PUSH4 0x539AA77F EQ PUSH2 0x56B JUMPI PUSH1 0x0 DUP1 REVERT JUMPDEST DUP1 PUSH4 0x36C79D52 EQ PUSH2 0x468 JUMPI DUP1 PUSH4 0x3A6708E2 EQ PUSH2 0x47D JUMPI DUP1 PUSH4 0x4036CEC2 EQ PUSH2 0x4B5 JUMPI DUP1 PUSH4 0x422C1D37 EQ PUSH2 0x4D5 JUMPI PUSH1 0x0 DUP1 REVERT JUMPDEST DUP1 PUSH4 0x26638A0A GT PUSH2 0x1B6 JUMPI DUP1 PUSH4 0x26638A0A EQ PUSH2 0x33D JUMPI DUP1 PUSH4 0x2E1A7D4D EQ PUSH2 0x3DF JUMPI DUP1 PUSH4 0x2F54BF6E EQ PUSH2 0x3FF JUMPI DUP1 PUSH4 0x35F93867 EQ PUSH2 0x448 JUMPI PUSH1 0x0 DUP1 REVERT JUMPDEST DUP1 PUSH4 0x1E83409A EQ PUSH2 0x29D JUMPI DUP1 PUSH4 0x20292859 EQ PUSH2 0x2BF JUMPI DUP1 PUSH4 0x2348DD18 EQ PUSH2 0x2DF JUMPI DUP1 PUSH4 0x2423C7F3 EQ PUSH2 0x307 JUMPI PUSH1 0x0 DUP1 REVERT JUMPDEST CALLDATASIZE PUSH2 0x298 JUMPI CALLER PUSH1 0x0 SWAP1 DUP2 MSTORE PUSH1 0x20 DUP2 SWAP1 MSTORE PUSH1 0x40 SWAP1 KECCAK256 SLOAD PUSH1 0xFF AND PUSH2 0x21C JUMPI PUSH1 0x40 MLOAD PUSH4 0xABA47339 PUSH1 0xE0 SHL DUP2 MSTORE PUSH1 0x4 ADD PUSH1 0x40 MLOAD DUP1 SWAP2 SUB SWAP1 REVERT JUMPDEST CALLVALUE PUSH1 0x0 SUB PUSH2 0x23D JUMPI PUSH1 0x40 MLOAD PUSH4 0xF2365B5B PUSH1 0xE0 SHL DUP2 MSTORE PUSH1 0x4 ADD PUSH1 0x40 MLOAD DUP1 SWAP2 SUB SWAP1 REVERT JUMPDEST CALLER PUSH1 0x0 SWAP1 DUP2 MSTORE PUSH1 0x1 PUSH1 0x20 MSTORE PUSH1 0x40 DUP2 KECCAK256 DUP1 SLOAD CALLVALUE SWAP3 SWAP1 PUSH2 0x25C SWAP1 DUP5 SWAP1 PUSH2 0x2331 JUMP JUMPDEST SWAP1 SWAP2 SSTORE POP POP PUSH1 0x40 MLOAD CALLVALUE DUP2 MSTORE CALLER SWAP1 PUSH32 0x543BA50A5EEC5E6178218E364B1D0F396157B3C8FA278522C2CB7FD99407D474 SWAP1 PUSH1 0x20 ADD PUSH1 0x40 MLOAD DUP1 SWAP2 SUB SWAP1 LOG2 STOP JUMPDEST PUSH1 0x0 DUP1 REVERT JUMPDEST CALLVALUE DUP1 ISZERO PUSH2 0x2A9 JUMPI PUSH1 0x0 DUP1 REVERT JUMPDEST POP PUSH2 0x2BD PUSH2 0x2B8 CALLDATASIZE PUSH1 0x4 PUSH2 0x2360 JUMP JUMPDEST PUSH2 0x7C6 JUMP JUMPDEST STOP JUMPDEST CALLVALUE DUP1 ISZERO PUSH2 0x2CB JUMPI PUSH1 0x0 DUP1 REVERT JUMPDEST POP PUSH2 0x2BD PUSH2 0x2DA CALLDATASIZE PUSH1 0x4 PUSH2 0x2425 JUMP JUMPDEST PUSH2 0xC38 JUMP JUMPDEST CALLVALUE DUP1 ISZERO PUSH2 0x2EB JUMPI PUSH1 0x0 DUP1 REVERT JUMPDEST POP PUSH2 0x2F4 PUSH1 0x14 DUP2 JUMP JUMPDEST PUSH1 0x40 MLOAD SWAP1 DUP2 MSTORE PUSH1 0x20 ADD JUMPDEST PUSH1 0x40 MLOAD DUP1 SWAP2 SUB SWAP1 RETURN JUMPDEST CALLVALUE DUP1 ISZERO PUSH2 0x313 JUMPI PUSH1 0x0 DUP1 REVERT JUMPDEST POP PUSH2 0x2F4 PUSH2 0x322 CALLDATASIZE PUSH1 0x4 PUSH2 0x2360 JUMP JUMPDEST PUSH1 0x1 PUSH1 0x1 PUSH1 0xA0 SHL SUB AND PUSH1 0x0 SWAP1 DUP2 MSTORE PUSH1 0x5 PUSH1 0x20 MSTORE PUSH1 0x40 SWAP1 KECCAK256 SLOAD SWAP1 JUMP JUMPDEST CALLVALUE DUP1 ISZERO PUSH2 0x349 JUMPI PUSH1 0x0 DUP1 REVERT JUMPDEST POP PUSH2 0x3A2 PUSH2 0x358 CALLDATASIZE PUSH1 0x4 PUSH2 0x2360 JUMP JUMPDEST PUSH1 0x0 PUSH1 0x20 DUP2 SWAP1 MSTORE SWAP1 DUP2 MSTORE PUSH1 0x40 SWAP1 KECCAK256 DUP1 SLOAD PUSH1 0x1 DUP3 ADD SLOAD PUSH1 0x2 DUP4 ADD SLOAD PUSH1 0x3 DUP5 ADD SLOAD PUSH1 0x4 DUP6 ADD SLOAD PUSH1 0x5 DUP7 ADD SLOAD PUSH1 0x6 DUP8 ADD SLOAD PUSH1 0x7 SWAP1 SWAP8 ADD SLOAD PUSH1 0xFF SWAP7 DUP8 AND SWAP8 SWAP6 SWAP7 SWAP5 SWAP6 SWAP4 SWAP1 SWAP5 AND SWAP4 SWAP2 SWAP3 SWAP1 SWAP2 DUP9 JUMP JUMPDEST PUSH1 0x40 DUP1 MLOAD SWAP9 ISZERO ISZERO DUP10 MSTORE PUSH1 0x20 DUP10 ADD SWAP8 SWAP1 SWAP8 MSTORE SWAP6 DUP8 ADD SWAP5 SWAP1 SWAP5 MSTORE SWAP2 ISZERO ISZERO PUSH1 0x60 DUP7 ADD MSTORE PUSH1 0x80 DUP6 ADD MSTORE PUSH1 0xA0 DUP5 ADD MSTORE PUSH1 0xC0 DUP4 ADD MSTORE PUSH1 0xE0 DUP3 ADD MSTORE PUSH2 0x100 ADD PUSH2 0x2FE JUMP JUMPDEST CALLVALUE DUP1 ISZERO PUSH2 0x3EB JUMPI PUSH1 0x0 DUP1 REVERT JUMPDEST POP PUSH2 0x2BD PUSH2 0x3FA CALLDATASIZE PUSH1 0x4 PUSH2 0x2473 JUMP JUMPDEST PUSH2 0xE31 JUMP JUMPDEST CALLVALUE DUP1 ISZERO PUSH2 0x40B JUMPI PUSH1 0x0 DUP1 REVERT JUMPDEST POP PUSH2 0x438 PUSH2 0x41A CALLDATASIZE PUSH1 0x4 PUSH2 0x2360 JUMP JUMPDEST PUSH1 0x1 PUSH1 0x1 PUSH1 0xA0 SHL SUB AND PUSH1 0x0 SWAP1 DUP2 MSTORE PUSH1 0x20 DUP2 SWAP1 MSTORE PUSH1 0x40 SWAP1 KECCAK256 SLOAD PUSH1 0xFF AND SWAP1 JUMP JUMPDEST PUSH1 0x40 MLOAD SWAP1 ISZERO ISZERO DUP2 MSTORE PUSH1 0x20 ADD PUSH2 0x2FE JUMP JUMPDEST CALLVALUE DUP1 ISZERO PUSH2 0x454 JUMPI PUSH1 0x0 DUP1 REVERT JUMPDEST POP PUSH2 0x2BD PUSH2 0x463 CALLDATASIZE PUSH1 0x4 PUSH2 0x248C JUMP JUMPDEST PUSH2 0x1008 JUMP JUMPDEST CALLVALUE DUP1 ISZERO PUSH2 0x474 JUMPI PUSH1 0x0 DUP1 REVERT JUMPDEST POP PUSH2 0x2F4 PUSH1 0x78 DUP2 JUMP JUMPDEST CALLVALUE DUP1 ISZERO PUSH2 0x489 JUMPI PUSH1 0x0 DUP1 REVERT JUMPDEST POP PUSH2 0x49D PUSH2 0x498 CALLDATASIZE PUSH1 0x4 PUSH2 0x2502 JUMP JUMPDEST PUSH2 0x1309 JUMP JUMPDEST PUSH1 0x40 MLOAD PUSH1 0x1 PUSH1 0x1 PUSH1 0xA0 SHL SUB SWAP1 SWAP2 AND DUP2 MSTORE PUSH1 0x20 ADD PUSH2 0x2FE JUMP JUMPDEST CALLVALUE DUP1 ISZERO PUSH2 0x4C1 JUMPI PUSH1 0x0 DUP1 REVERT JUMPDEST POP PUSH2 0x49D PUSH2 0x4D0 CALLDATASIZE PUSH1 0x4 PUSH2 0x2502 JUMP JUMPDEST PUSH2 0x1341 JUMP JUMPDEST CALLVALUE DUP1 ISZERO PUSH2 0x4E1 JUMPI PUSH1 0x0 DUP1 REVERT JUMPDEST POP PUSH2 0x2F4 PUSH1 0xA DUP2 JUMP JUMPDEST CALLVALUE DUP1 ISZERO PUSH2 0x4F6 JUMPI PUSH1 0x0 DUP1 REVERT JUMPDEST POP PUSH2 0x50A PUSH2 0x505 CALLDATASIZE PUSH1 0x4 PUSH2 0x252C JUMP JUMPDEST PUSH2 0x135D JUMP JUMPDEST PUSH1 0x40 MLOAD PUSH2 0x2FE SWAP4 SWAP3 SWAP2 SWAP1 PUSH2 0x259C JUMP JUMPDEST CALLVALUE DUP1 ISZERO PUSH2 0x525 JUMPI PUSH1 0x0 DUP1 REVERT JUMPDEST POP PUSH2 0x539 PUSH2 0x534 CALLDATASIZE PUSH1 0x4 PUSH2 0x252C JUMP JUMPDEST PUSH2 0x1422 JUMP JUMPDEST PUSH1 0x40 MLOAD PUSH2 0x2FE SWAP7 SWAP6 SWAP5 SWAP4 SWAP3 SWAP2 SWAP1 PUSH2 0x25E5 JUMP JUMPDEST CALLVALUE DUP1 ISZERO PUSH2 0x557 JUMPI PUSH1 0x0 DUP1 REVERT JUMPDEST POP PUSH2 0x2BD PUSH2 0x566 CALLDATASIZE PUSH1 0x4 PUSH2 0x2360 JUMP JUMPDEST PUSH2 0x14F8 JUMP JUMPDEST CALLVALUE DUP1 ISZERO PUSH2 0x577 JUMPI PUSH1 0x0 DUP1 REVERT JUMPDEST POP PUSH2 0x2F4 PUSH2 0x3E8 DUP2 JUMP JUMPDEST CALLVALUE DUP1 ISZERO PUSH2 0x58D JUMPI PUSH1 0x0 DUP1 REVERT JUMPDEST POP PUSH2 0x2BD PUSH2 0x59C CALLDATASIZE PUSH1 0x4 PUSH2 0x2360 JUMP JUMPDEST PUSH2 0x164A JUMP JUMPDEST CALLVALUE DUP1 ISZERO PUSH2 0x5AD JUMPI PUSH1 0x0 DUP1 REVERT JUMPDEST POP PUSH2 0x2BD PUSH2 0x18BD JUMP JUMPDEST CALLVALUE DUP1 ISZERO PUSH2 0x5C2 JUMPI PUSH1 0x0 DUP1 REVERT JUMPDEST POP PUSH2 0x2BD PUSH2 0x5D1 CALLDATASIZE PUSH1 0x4 PUSH2 0x2360 JUMP JUMPDEST PUSH2 0x1A4E JUMP JUMPDEST CALLVALUE DUP1 ISZERO PUSH2 0x5E2 JUMPI PUSH1 0x0 DUP1 REVERT JUMPDEST POP PUSH2 0x49D PUSH2 0x5F1 CALLDATASIZE PUSH1 0x4 PUSH2 0x2502 JUMP JUMPDEST PUSH2 0x1CA4 JUMP JUMPDEST CALLVALUE DUP1 ISZERO PUSH2 0x602 JUMPI PUSH1 0x0 DUP1 REVERT JUMPDEST POP PUSH2 0x2F4 PUSH2 0x611 CALLDATASIZE PUSH1 0x4 PUSH2 0x2360 JUMP JUMPDEST PUSH1 0x1 PUSH1 0x1 PUSH1 0xA0 SHL SUB AND PUSH1 0x0 SWAP1 DUP2 MSTORE PUSH1 0x1 PUSH1 0x20 MSTORE PUSH1 0x40 SWAP1 KECCAK256 SLOAD SWAP1 JUMP JUMPDEST CALLVALUE DUP1 ISZERO PUSH2 0x638 JUMPI PUSH1 0x0 DUP1 REVERT JUMPDEST POP PUSH2 0x49D PUSH2 0x647 CALLDATASIZE PUSH1 0x4 PUSH2 0x2502 JUMP JUMPDEST PUSH2 0x1D24 JUMP JUMPDEST CALLVALUE DUP1 ISZERO PUSH2 0x658 JUMPI PUSH1 0x0 DUP1 REVERT JUMPDEST POP PUSH2 0x2BD PUSH2 0x667 CALLDATASIZE PUSH1 0x4 PUSH2 0x2649 JUMP JUMPDEST PUSH2 0x1D86 JUMP JUMPDEST CALLVALUE DUP1 ISZERO PUSH2 0x678 JUMPI PUSH1 0x0 DUP1 REVERT JUMPDEST POP PUSH2 0x68C PUSH2 0x687 CALLDATASIZE PUSH1 0x4 PUSH2 0x252C JUMP JUMPDEST PUSH2 0x1E7D JUMP JUMPDEST PUSH1 0x40 DUP1 MLOAD SWAP4 DUP5 MSTORE PUSH1 0x20 DUP5 ADD SWAP3 SWAP1 SWAP3 MSTORE SWAP1 DUP3 ADD MSTORE PUSH1 0x60 ADD PUSH2 0x2FE JUMP JUMPDEST CALLVALUE DUP1 ISZERO PUSH2 0x6B3 JUMPI PUSH1 0x0 DUP1 REVERT JUMPDEST POP PUSH2 0x2F4 PUSH1 0x3C DUP2 JUMP JUMPDEST CALLVALUE DUP1 ISZERO PUSH2 0x6C8 JUMPI PUSH1 0x0 DUP1 REVERT JUMPDEST POP PUSH2 0x2BD PUSH2 0x6D7 CALLDATASIZE PUSH1 0x4 PUSH2 0x2473 JUMP JUMPDEST PUSH2 0x1FEB JUMP JUMPDEST CALLVALUE DUP1 ISZERO PUSH2 0x6E8 JUMPI PUSH1 0x0 DUP1 REVERT JUMPDEST POP PUSH2 0x2F4 PUSH2 0x6F7 CALLDATASIZE PUSH1 0x4 PUSH2 0x2360 JUMP JUMPDEST PUSH1 0x1 PUSH1 0x1 PUSH1 0xA0 SHL SUB AND PUSH1 0x0 SWAP1 DUP2 MSTORE PUSH1 0x3 PUSH1 0x20 MSTORE PUSH1 0x40 SWAP1 KECCAK256 SLOAD SWAP1 JUMP JUMPDEST PUSH2 0x2BD PUSH2 0x2081 JUMP JUMPDEST CALLVALUE DUP1 ISZERO PUSH2 0x726 JUMPI PUSH1 0x0 DUP1 REVERT JUMPDEST POP PUSH2 0x73A PUSH2 0x735 CALLDATASIZE PUSH1 0x4 PUSH2 0x2360 JUMP JUMPDEST PUSH2 0x212D JUMP JUMPDEST PUSH1 0x40 DUP1 MLOAD SWAP3 ISZERO ISZERO DUP4 MSTORE PUSH1 0x20 DUP4 ADD SWAP2 SWAP1 SWAP2 MSTORE ADD PUSH2 0x2FE JUMP JUMPDEST CALLVALUE DUP1 ISZERO PUSH2 0x75D JUMPI PUSH1 0x0 DUP1 REVERT JUMPDEST POP PUSH2 0x2F4 PUSH2 0x76C CALLDATASIZE PUSH1 0x4 PUSH2 0x2360 JUMP JUMPDEST PUSH1 0x1 PUSH1 0x20 MSTORE PUSH1 0x0 SWAP1 DUP2 MSTORE PUSH1 0x40 SWAP1 KECCAK256 SLOAD DUP2 JUMP JUMPDEST CALLVALUE DUP1 ISZERO PUSH2 0x78A JUMPI PUSH1 0x0 DUP1 REVERT JUMPDEST POP PUSH2 0x49D PUSH20 0xFE13B060897B5DABBC866C312A6839C007D181FB DUP2 JUMP JUMPDEST CALLVALUE DUP1 ISZERO PUSH2 0x7B2 JUMPI PUSH1 0x0 DUP1 REVERT JUMPDEST POP PUSH2 0x2BD PUSH2 0x7C1 CALLDATASIZE PUSH1 0x4 PUSH2 0x2473 JUMP JUMPDEST PUSH2 0x21A0 JUMP JUMPDEST PUSH1 0x6 SLOAD PUSH1 0xFF AND ISZERO PUSH2 0x7EA JUMPI PUSH1 0x40 MLOAD PUSH4 0x2C1FF443 PUSH1 0xE1 SHL DUP2 MSTORE PUSH1 0x4 ADD PUSH1 0x40 MLOAD DUP1 SWAP2 SUB SWAP1 REVERT JUMPDEST PUSH1 0x6 DUP1 SLOAD PUSH1 0xFF NOT AND PUSH1 0x1 OR SWAP1 SSTORE PUSH1 0x1 PUSH1 0x1 PUSH1 0xA0 SHL SUB DUP2 AND PUSH1 0x0 SWAP1 DUP2 MSTORE PUSH1 0x20 DUP2 SWAP1 MSTORE PUSH1 0x40 SWAP1 KECCAK256 PUSH1 0x3 DUP2 ADD SLOAD DUP3 SWAP2 SWAP1 PUSH1 0xFF AND PUSH2 0x837 JUMPI PUSH1 0x40 MLOAD PUSH4 0x759D4E61 PUSH1 0xE1 SHL DUP2 MSTORE PUSH1 0x4 ADD PUSH1 0x40 MLOAD DUP1 SWAP2 SUB SWAP1 REVERT JUMPDEST DUP1 PUSH1 0x5 ADD SLOAD PUSH1 0x0 SUB PUSH2 0x85C JUMPI PUSH1 0x40 MLOAD PUSH4 0x6AA937D PUSH1 0xE3 SHL DUP2 MSTORE PUSH1 0x4 ADD PUSH1 0x40 MLOAD DUP1 SWAP2 SUB SWAP1 REVERT JUMPDEST PUSH1 0x1 PUSH1 0x1 PUSH1 0xA0 SHL SUB DUP1 DUP5 AND PUSH1 0x0 SWAP1 DUP2 MSTORE PUSH1 0x4 PUSH1 0x20 SWAP1 DUP2 MSTORE PUSH1 0x40 DUP1 DUP4 KECCAK256 CALLER DUP1 DUP6 MSTORE SWAP3 MSTORE SWAP1 SWAP2 KECCAK256 PUSH1 0x1 DUP2 ADD SLOAD SWAP1 SWAP3 AND EQ PUSH2 0x8A7 JUMPI PUSH1 0x40 MLOAD PUSH4 0x644D871F PUSH1 0xE0 SHL DUP2 MSTORE PUSH1 0x4 ADD PUSH1 0x40 MLOAD DUP1 SWAP2 SUB SWAP1 REVERT JUMPDEST PUSH1 0x1 PUSH1 0x1 PUSH1 0xA0 SHL SUB DUP5 AND PUSH1 0x0 SWAP1 DUP2 MSTORE PUSH1 0x20 DUP2 SWAP1 MSTORE PUSH1 0x40 DUP2 KECCAK256 PUSH1 0x2 DUP4 ADD SLOAD PUSH1 0x4 DUP3 ADD SLOAD SWAP2 SWAP3 SWAP2 PUSH2 0x2710 SWAP2 PUSH2 0x8D9 SWAP2 PUSH2 0x2685 JUMP JUMPDEST PUSH2 0x8E3 SWAP2 SWAP1 PUSH2 0x269C JUMP JUMPDEST SWAP1 POP PUSH1 0x0 DUP1 DUP4 PUSH1 0x5 ADD SLOAD TIMESTAMP PUSH2 0x8F8 SWAP2 SWAP1 PUSH2 0x26BE JUMP JUMPDEST SWAP1 POP PUSH1 0x1 PUSH1 0x4 DUP7 ADD SLOAD PUSH1 0xFF AND PUSH1 0x1 DUP2 GT ISZERO PUSH2 0x915 JUMPI PUSH2 0x915 PUSH2 0x25CF JUMP JUMPDEST SUB PUSH2 0x92E JUMPI DUP5 PUSH1 0x5 ADD SLOAD DUP2 LT PUSH2 0x929 JUMPI DUP3 SWAP2 POP JUMPDEST PUSH2 0x95D JUMP JUMPDEST DUP5 PUSH1 0x5 ADD SLOAD DUP2 LT PUSH2 0x941 JUMPI DUP3 SWAP2 POP PUSH2 0x95D JUMP JUMPDEST PUSH1 0x5 DUP6 ADD SLOAD PUSH2 0x950 DUP3 DUP6 PUSH2 0x2685 JUMP JUMPDEST PUSH2 0x95A SWAP2 SWAP1 PUSH2 0x269C JUMP JUMPDEST SWAP2 POP JUMPDEST PUSH1 0x0 DUP6 PUSH1 0x3 ADD SLOAD DUP4 GT ISZERO PUSH2 0x97D JUMPI PUSH1 0x3 DUP7 ADD SLOAD PUSH2 0x97A SWAP1 DUP5 PUSH2 0x26BE JUMP JUMPDEST SWAP1 POP JUMPDEST DUP1 PUSH1 0x0 SUB PUSH2 0x99E JUMPI PUSH1 0x40 MLOAD PUSH4 0x12D37EE5 PUSH1 0xE3 SHL DUP2 MSTORE PUSH1 0x4 ADD PUSH1 0x40 MLOAD DUP1 SWAP2 SUB SWAP1 REVERT JUMPDEST PUSH1 0x1 PUSH1 0x1 PUSH1 0xA0 SHL SUB DUP10 AND PUSH1 0x0 SWAP1 DUP2 MSTORE PUSH1 0x1 PUSH1 0x20 MSTORE PUSH1 0x40 SWAP1 KECCAK256 SLOAD DUP2 GT ISZERO PUSH2 0x9D7 JUMPI PUSH1 0x40 MLOAD PUSH4 0xA908D3D9 PUSH1 0xE0 SHL DUP2 MSTORE PUSH1 0x4 ADD PUSH1 0x40 MLOAD DUP1 SWAP2 SUB SWAP1 REVERT JUMPDEST DUP1 DUP7 PUSH1 0x3 ADD PUSH1 0x0 DUP3 DUP3 SLOAD PUSH2 0x9EB SWAP2 SWAP1 PUSH2 0x2331 JUMP JUMPDEST SWAP1 SWAP2 SSTORE POP POP PUSH1 0x1 PUSH1 0x1 PUSH1 0xA0 SHL SUB DUP10 AND PUSH1 0x0 SWAP1 DUP2 MSTORE PUSH1 0x1 PUSH1 0x20 MSTORE PUSH1 0x40 DUP2 KECCAK256 DUP1 SLOAD DUP4 SWAP3 SWAP1 PUSH2 0xA18 SWAP1 DUP5 SWAP1 PUSH2 0x26BE JUMP JUMPDEST SWAP1 SWAP2 SSTORE POP PUSH1 0x0 SWAP1 POP PUSH2 0x2710 PUSH2 0xA2F PUSH2 0x3E8 DUP5 PUSH2 0x2685 JUMP JUMPDEST PUSH2 0xA39 SWAP2 SWAP1 PUSH2 0x269C JUMP JUMPDEST SWAP1 POP PUSH1 0x0 PUSH2 0xA47 DUP3 DUP5 PUSH2 0x26BE JUMP JUMPDEST PUSH1 0x1 DUP10 ADD SLOAD PUSH1 0x40 MLOAD SWAP2 SWAP3 POP PUSH1 0x0 SWAP2 PUSH1 0x1 PUSH1 0x1 PUSH1 0xA0 SHL SUB SWAP1 SWAP2 AND SWAP1 DUP4 SWAP1 DUP4 DUP2 DUP2 DUP2 DUP6 DUP8 GAS CALL SWAP3 POP POP POP RETURNDATASIZE DUP1 PUSH1 0x0 DUP2 EQ PUSH2 0xA9B JUMPI PUSH1 0x40 MLOAD SWAP2 POP PUSH1 0x1F NOT PUSH1 0x3F RETURNDATASIZE ADD AND DUP3 ADD PUSH1 0x40 MSTORE RETURNDATASIZE DUP3 MSTORE RETURNDATASIZE PUSH1 0x0 PUSH1 0x20 DUP5 ADD RETURNDATACOPY PUSH2 0xAA0 JUMP JUMPDEST PUSH1 0x60 SWAP2 POP JUMPDEST POP POP SWAP1 POP DUP1 PUSH2 0xAF6 JUMPI PUSH1 0x40 MLOAD PUSH3 0x461BCD PUSH1 0xE5 SHL DUP2 MSTORE PUSH1 0x20 PUSH1 0x4 DUP3 ADD MSTORE PUSH1 0x1B PUSH1 0x24 DUP3 ADD MSTORE PUSH32 0x42656E6566696369617279207472616E73666572206661696C65640000000000 PUSH1 0x44 DUP3 ADD MSTORE PUSH1 0x64 ADD JUMPDEST PUSH1 0x40 MLOAD DUP1 SWAP2 SUB SWAP1 REVERT JUMPDEST PUSH1 0x40 MLOAD PUSH1 0x0 SWAP1 PUSH20 0xFE13B060897B5DABBC866C312A6839C007D181FB SWAP1 DUP6 SWAP1 DUP4 DUP2 DUP2 DUP2 DUP6 DUP8 GAS CALL SWAP3 POP POP POP RETURNDATASIZE DUP1 PUSH1 0x0 DUP2 EQ PUSH2 0xB4C JUMPI PUSH1 0x40 MLOAD SWAP2 POP PUSH1 0x1F NOT PUSH1 0x3F RETURNDATASIZE ADD AND DUP3 ADD PUSH1 0x40 MSTORE RETURNDATASIZE DUP3 MSTORE RETURNDATASIZE PUSH1 0x0 PUSH1 0x20 DUP5 ADD RETURNDATACOPY PUSH2 0xB51 JUMP JUMPDEST PUSH1 0x60 SWAP2 POP JUMPDEST POP POP SWAP1 POP DUP1 PUSH2 0xB98 JUMPI PUSH1 0x40 MLOAD PUSH3 0x461BCD PUSH1 0xE5 SHL DUP2 MSTORE PUSH1 0x20 PUSH1 0x4 DUP3 ADD MSTORE PUSH1 0x13 PUSH1 0x24 DUP3 ADD MSTORE PUSH19 0x119959481D1C985B9CD9995C8819985A5B1959 PUSH1 0x6A SHL PUSH1 0x44 DUP3 ADD MSTORE PUSH1 0x64 ADD PUSH2 0xAED JUMP JUMPDEST PUSH1 0x1 DUP11 ADD SLOAD PUSH1 0x40 MLOAD DUP7 DUP2 MSTORE PUSH1 0x1 PUSH1 0x1 PUSH1 0xA0 SHL SUB SWAP2 DUP3 AND SWAP2 DUP16 AND SWAP1 PUSH32 0x716942921E9B67EE05C4C2FFCF216F189086C9053B444C8928A49DB4BDB1AE8E SWAP1 PUSH1 0x20 ADD PUSH1 0x40 MLOAD DUP1 SWAP2 SUB SWAP1 LOG3 PUSH1 0x40 MLOAD DUP5 DUP2 MSTORE CALLER SWAP1 PUSH1 0x1 PUSH1 0x1 PUSH1 0xA0 SHL SUB DUP16 AND SWAP1 PUSH32 0x11218599DE218E2EEC1319FDA62C5AC18D9E7A9EBF9610EE7FD27A652598E636 SWAP1 PUSH1 0x20 ADD PUSH1 0x40 MLOAD DUP1 SWAP2 SUB SWAP1 LOG3 POP POP PUSH1 0x6 DUP1 SLOAD PUSH1 0xFF NOT AND SWAP1 SSTORE POP POP POP POP POP POP POP POP POP POP POP JUMP JUMPDEST CALLER PUSH1 0x0 SWAP1 DUP2 MSTORE PUSH1 0x20 DUP2 SWAP1 MSTORE PUSH1 0x40 SWAP1 KECCAK256 SLOAD PUSH1 0xFF AND PUSH2 0xC68 JUMPI PUSH1 0x40 MLOAD PUSH4 0xABA47339 PUSH1 0xE0 SHL DUP2 MSTORE PUSH1 0x4 ADD PUSH1 0x40 MLOAD DUP1 SWAP2 SUB SWAP1 REVERT JUMPDEST DUP1 PUSH1 0x1 PUSH1 0x1 PUSH1 0xA0 SHL SUB DUP2 AND PUSH2 0xC90 JUMPI PUSH1 0x40 MLOAD PUSH4 0xD92E233D PUSH1 0xE0 SHL DUP2 MSTORE PUSH1 0x4 ADD PUSH1 0x40 MLOAD DUP1 SWAP2 SUB SWAP1 REVERT JUMPDEST DUP3 DUP1 MLOAD PUSH1 0x0 SUB PUSH2 0xCB3 JUMPI PUSH1 0x40 MLOAD PUSH4 0xECD7B0D1 PUSH1 0xE0 SHL DUP2 MSTORE PUSH1 0x4 ADD PUSH1 0x40 MLOAD DUP1 SWAP2 SUB SWAP1 REVERT JUMPDEST CALLER PUSH1 0x0 SWAP1 DUP2 MSTORE PUSH1 0x2 PUSH1 0x20 SWAP1 DUP2 MSTORE PUSH1 0x40 DUP1 DUP4 KECCAK256 PUSH1 0x1 PUSH1 0x1 PUSH1 0xA0 SHL SUB DUP8 DUP2 AND DUP6 MSTORE SWAP3 MSTORE SWAP1 SWAP2 KECCAK256 PUSH1 0x1 ADD SLOAD AND ISZERO PUSH2 0xCFA JUMPI PUSH1 0x40 MLOAD PUSH4 0x35817633 PUSH1 0xE0 SHL DUP2 MSTORE PUSH1 0x4 ADD PUSH1 0x40 MLOAD DUP1 SWAP2 SUB SWAP1 REVERT JUMPDEST CALLER PUSH1 0x0 SWAP1 DUP2 MSTORE PUSH1 0x3 PUSH1 0x20 MSTORE PUSH1 0x40 SWAP1 KECCAK256 SLOAD PUSH1 0xA GT PUSH2 0xD2A JUMPI PUSH1 0x40 MLOAD PUSH4 0x9308529B PUSH1 0xE0 SHL DUP2 MSTORE PUSH1 0x4 ADD PUSH1 0x40 MLOAD DUP1 SWAP2 SUB SWAP1 REVERT JUMPDEST CALLER PUSH1 0x1 PUSH1 0x1 PUSH1 0xA0 SHL SUB DUP5 AND SUB PUSH2 0xD53 JUMPI PUSH1 0x40 MLOAD PUSH4 0x265079BD PUSH1 0xE2 SHL DUP2 MSTORE PUSH1 0x4 ADD PUSH1 0x40 MLOAD DUP1 SWAP2 SUB SWAP1 REVERT JUMPDEST PUSH1 0x40 DUP1 MLOAD PUSH1 0x60 DUP2 ADD DUP3 MSTORE DUP6 DUP2 MSTORE PUSH1 0x1 PUSH1 0x1 PUSH1 0xA0 SHL SUB DUP6 AND PUSH1 0x20 DUP1 DUP4 ADD DUP3 SWAP1 MSTORE PUSH1 0x0 DUP4 DUP6 ADD DUP2 SWAP1 MSTORE CALLER DUP2 MSTORE PUSH1 0x2 DUP3 MSTORE DUP5 DUP2 KECCAK256 SWAP3 DUP2 MSTORE SWAP2 SWAP1 MSTORE SWAP2 SWAP1 SWAP2 KECCAK256 DUP2 MLOAD DUP2 SWAP1 PUSH2 0xD9C SWAP1 DUP3 PUSH2 0x275A JUMP JUMPDEST POP PUSH1 0x20 DUP3 DUP2 ADD MLOAD PUSH1 0x1 SWAP3 DUP4 ADD DUP1 SLOAD PUSH1 0x40 SWAP6 DUP7 ADD MLOAD ISZERO ISZERO PUSH1 0x1 PUSH1 0xA0 SHL MUL PUSH1 0x1 PUSH1 0x1 PUSH1 0xA8 SHL SUB NOT SWAP1 SWAP2 AND PUSH1 0x1 PUSH1 0x1 PUSH1 0xA0 SHL SUB SWAP4 DUP5 AND OR OR SWAP1 SSTORE CALLER PUSH1 0x0 DUP2 DUP2 MSTORE PUSH1 0x3 DUP5 MSTORE DUP6 DUP2 KECCAK256 DUP1 SLOAD SWAP6 DUP7 ADD DUP2 SSTORE DUP2 MSTORE SWAP3 DUP4 KECCAK256 SWAP1 SWAP4 ADD DUP1 SLOAD SWAP2 DUP9 AND PUSH1 0x1 PUSH1 0x1 PUSH1 0xA0 SHL SUB NOT SWAP3 SWAP1 SWAP3 AND DUP3 OR SWAP1 SSTORE SWAP3 MLOAD PUSH32 0xBC3292102FA77E083913064B282926717CDFAEDE4D35F553D66366C0A3DA755A SWAP2 SWAP1 LOG3 POP POP POP POP JUMP JUMPDEST CALLER PUSH1 0x0 SWAP1 DUP2 MSTORE PUSH1 0x20 DUP2 SWAP1 MSTORE PUSH1 0x40 SWAP1 KECCAK256 SLOAD PUSH1 0xFF AND PUSH2 0xE61 JUMPI PUSH1 0x40 MLOAD PUSH4 0xABA47339 PUSH1 0xE0 SHL DUP2 MSTORE PUSH1 0x4 ADD PUSH1 0x40 MLOAD DUP1 SWAP2 SUB SWAP1 REVERT JUMPDEST PUSH1 0x6 SLOAD PUSH1 0xFF AND ISZERO PUSH2 0xE85 JUMPI PUSH1 0x40 MLOAD PUSH4 0x2C1FF443 PUSH1 0xE1 SHL DUP2 MSTORE PUSH1 0x4 ADD PUSH1 0x40 MLOAD DUP1 SWAP2 SUB SWAP1 REVERT JUMPDEST PUSH1 0x6 DUP1 SLOAD PUSH1 0xFF NOT AND PUSH1 0x1 OR SWAP1 SSTORE CALLER PUSH1 0x0 SWAP1 DUP2 MSTORE PUSH1 0x20 DUP2 SWAP1 MSTORE PUSH1 0x40 SWAP1 KECCAK256 PUSH1 0x3 ADD SLOAD PUSH1 0xFF AND ISZERO PUSH2 0xEC6 JUMPI PUSH1 0x40 MLOAD PUSH4 0x52E39C5B PUSH1 0xE1 SHL DUP2 MSTORE PUSH1 0x4 ADD PUSH1 0x40 MLOAD DUP1 SWAP2 SUB SWAP1 REVERT JUMPDEST DUP1 PUSH1 0x0 SUB PUSH2 0xEE7 JUMPI PUSH1 0x40 MLOAD PUSH4 0x1F2A2005 PUSH1 0xE0 SHL DUP2 MSTORE PUSH1 0x4 ADD PUSH1 0x40 MLOAD DUP1 SWAP2 SUB SWAP1 REVERT JUMPDEST CALLER PUSH1 0x0 SWAP1 DUP2 MSTORE PUSH1 0x1 PUSH1 0x20 MSTORE PUSH1 0x40 SWAP1 KECCAK256 SLOAD DUP2 GT ISZERO PUSH2 0xF17 JUMPI PUSH1 0x40 MLOAD PUSH4 0x1E9ACF17 PUSH1 0xE3 SHL DUP2 MSTORE PUSH1 0x4 ADD PUSH1 0x40 MLOAD DUP1 SWAP2 SUB SWAP1 REVERT JUMPDEST CALLER PUSH1 0x0 SWAP1 DUP2 MSTORE PUSH1 0x1 PUSH1 0x20 MSTORE PUSH1 0x40 DUP2 KECCAK256 DUP1 SLOAD DUP4 SWAP3 SWAP1 PUSH2 0xF36 SWAP1 DUP5 SWAP1 PUSH2 0x26BE JUMP JUMPDEST SWAP1 SWAP2 SSTORE POP POP PUSH1 0x40 MLOAD PUSH1 0x0 SWAP1 CALLER SWAP1 DUP4 SWAP1 DUP4 DUP2 DUP2 DUP2 DUP6 DUP8 GAS CALL SWAP3 POP POP POP RETURNDATASIZE DUP1 PUSH1 0x0 DUP2 EQ PUSH2 0xF7D JUMPI PUSH1 0x40 MLOAD SWAP2 POP PUSH1 0x1F NOT PUSH1 0x3F RETURNDATASIZE ADD AND DUP3 ADD PUSH1 0x40 MSTORE RETURNDATASIZE DUP3 MSTORE RETURNDATASIZE PUSH1 0x0 PUSH1 0x20 DUP5 ADD RETURNDATACOPY PUSH2 0xF82 JUMP JUMPDEST PUSH1 0x60 SWAP2 POP JUMPDEST POP POP SWAP1 POP DUP1 PUSH2 0xFC5 JUMPI PUSH1 0x40 MLOAD PUSH3 0x461BCD PUSH1 0xE5 SHL DUP2 MSTORE PUSH1 0x20 PUSH1 0x4 DUP3 ADD MSTORE PUSH1 0xF PUSH1 0x24 DUP3 ADD MSTORE PUSH15 0x151C985B9CD9995C8819985A5B1959 PUSH1 0x8A SHL PUSH1 0x44 DUP3 ADD MSTORE PUSH1 0x64 ADD PUSH2 0xAED JUMP JUMPDEST PUSH1 0x40 MLOAD DUP3 DUP2 MSTORE CALLER SWAP1 PUSH32 0xEAFF4B37086828766AD3268786972C0CD24259D4C87A80F9D3963A3C3D999B0D SWAP1 PUSH1 0x20 ADD PUSH1 0x40 MLOAD DUP1 SWAP2 SUB SWAP1 LOG2 POP POP PUSH1 0x6 DUP1 SLOAD PUSH1 0xFF NOT AND SWAP1 SSTORE JUMP JUMPDEST CALLER PUSH1 0x0 SWAP1 DUP2 MSTORE PUSH1 0x20 DUP2 SWAP1 MSTORE PUSH1 0x40 SWAP1 KECCAK256 SLOAD PUSH1 0xFF AND PUSH2 0x1038 JUMPI PUSH1 0x40 MLOAD PUSH4 0xABA47339 PUSH1 0xE0 SHL DUP2 MSTORE PUSH1 0x4 ADD PUSH1 0x40 MLOAD DUP1 SWAP2 SUB SWAP1 REVERT JUMPDEST DUP4 PUSH1 0x1 PUSH1 0x1 PUSH1 0xA0 SHL SUB DUP2 AND PUSH2 0x1060 JUMPI PUSH1 0x40 MLOAD PUSH4 0xD92E233D PUSH1 0xE0 SHL DUP2 MSTORE PUSH1 0x4 ADD PUSH1 0x40 MLOAD DUP1 SWAP2 SUB SWAP1 REVERT JUMPDEST DUP6 DUP1 MLOAD PUSH1 0x0 SUB PUSH2 0x1083 JUMPI PUSH1 0x40 MLOAD PUSH4 0xECD7B0D1 PUSH1 0xE0 SHL DUP2 MSTORE PUSH1 0x4 ADD PUSH1 0x40 MLOAD DUP1 SWAP2 SUB SWAP1 REVERT JUMPDEST CALLER PUSH1 0x0 SWAP1 DUP2 MSTORE PUSH1 0x4 PUSH1 0x20 SWAP1 DUP2 MSTORE PUSH1 0x40 DUP1 DUP4 KECCAK256 PUSH1 0x1 PUSH1 0x1 PUSH1 0xA0 SHL SUB DUP11 DUP2 AND DUP6 MSTORE SWAP3 MSTORE SWAP1 SWAP2 KECCAK256 PUSH1 0x1 ADD SLOAD AND ISZERO PUSH2 0x10CA JUMPI PUSH1 0x40 MLOAD PUSH4 0x7FFEBE83 PUSH1 0xE0 SHL DUP2 MSTORE PUSH1 0x4 ADD PUSH1 0x40 MLOAD DUP1 SWAP2 SUB SWAP1 REVERT JUMPDEST CALLER PUSH1 0x0 SWAP1 DUP2 MSTORE PUSH1 0x5 PUSH1 0x20 MSTORE PUSH1 0x40 SWAP1 KECCAK256 SLOAD PUSH1 0x14 GT PUSH2 0x10FA JUMPI PUSH1 0x40 MLOAD PUSH4 0xDD34C165 PUSH1 0xE0 SHL DUP2 MSTORE PUSH1 0x4 ADD PUSH1 0x40 MLOAD DUP1 SWAP2 SUB SWAP1 REVERT JUMPDEST DUP5 PUSH1 0x0 SUB PUSH2 0x111B JUMPI PUSH1 0x40 MLOAD PUSH4 0xBA0D87B5 PUSH1 0xE0 SHL DUP2 MSTORE PUSH1 0x4 ADD PUSH1 0x40 MLOAD DUP1 SWAP2 SUB SWAP1 REVERT JUMPDEST CALLER PUSH1 0x0 SWAP1 DUP2 MSTORE PUSH1 0x20 DUP2 SWAP1 MSTORE PUSH1 0x40 SWAP1 KECCAK256 PUSH1 0x6 ADD SLOAD PUSH2 0x2710 SWAP1 PUSH2 0x113D SWAP1 DUP8 SWAP1 PUSH2 0x2331 JUMP JUMPDEST GT ISZERO PUSH2 0x115C JUMPI PUSH1 0x40 MLOAD PUSH4 0xF1B7A5D1 PUSH1 0xE0 SHL DUP2 MSTORE PUSH1 0x4 ADD PUSH1 0x40 MLOAD DUP1 SWAP2 SUB SWAP1 REVERT JUMPDEST DUP3 PUSH1 0x0 SUB PUSH2 0x117D JUMPI PUSH1 0x40 MLOAD PUSH4 0x346AB437 PUSH1 0xE1 SHL DUP2 MSTORE PUSH1 0x4 ADD PUSH1 0x40 MLOAD DUP1 SWAP2 SUB SWAP1 REVERT JUMPDEST PUSH1 0x40 MLOAD DUP1 PUSH1 0xC0 ADD PUSH1 0x40 MSTORE DUP1 DUP9 DUP2 MSTORE PUSH1 0x20 ADD DUP8 PUSH1 0x1 PUSH1 0x1 PUSH1 0xA0 SHL SUB AND DUP2 MSTORE PUSH1 0x20 ADD DUP7 DUP2 MSTORE PUSH1 0x20 ADD PUSH1 0x0 DUP2 MSTORE PUSH1 0x20 ADD DUP6 PUSH1 0x1 DUP2 GT ISZERO PUSH2 0x11BC JUMPI PUSH2 0x11BC PUSH2 0x25CF JUMP JUMPDEST DUP2 MSTORE PUSH1 0x20 SWAP1 DUP2 ADD DUP6 SWAP1 MSTORE CALLER PUSH1 0x0 SWAP1 DUP2 MSTORE PUSH1 0x4 DUP3 MSTORE PUSH1 0x40 DUP1 DUP3 KECCAK256 PUSH1 0x1 PUSH1 0x1 PUSH1 0xA0 SHL SUB DUP12 AND DUP4 MSTORE SWAP1 SWAP3 MSTORE KECCAK256 DUP2 MLOAD DUP2 SWAP1 PUSH2 0x11F3 SWAP1 DUP3 PUSH2 0x275A JUMP JUMPDEST POP PUSH1 0x20 DUP3 ADD MLOAD PUSH1 0x1 DUP3 DUP2 ADD DUP1 SLOAD PUSH1 0x1 PUSH1 0x1 PUSH1 0xA0 SHL SUB NOT AND PUSH1 0x1 PUSH1 0x1 PUSH1 0xA0 SHL SUB SWAP1 SWAP4 AND SWAP3 SWAP1 SWAP3 OR SWAP1 SWAP2 SSTORE PUSH1 0x40 DUP4 ADD MLOAD PUSH1 0x2 DUP4 ADD SSTORE PUSH1 0x60 DUP4 ADD MLOAD PUSH1 0x3 DUP4 ADD SSTORE PUSH1 0x80 DUP4 ADD MLOAD PUSH1 0x4 DUP4 ADD DUP1 SLOAD SWAP2 SWAP3 SWAP1 SWAP2 PUSH1 0xFF NOT AND SWAP1 DUP4 DUP2 DUP2 GT ISZERO PUSH2 0x1255 JUMPI PUSH2 0x1255 PUSH2 0x25CF JUMP JUMPDEST MUL OR SWAP1 SSTORE POP PUSH1 0xA0 SWAP2 SWAP1 SWAP2 ADD MLOAD PUSH1 0x5 SWAP2 DUP3 ADD SSTORE CALLER PUSH1 0x0 DUP2 DUP2 MSTORE PUSH1 0x20 SWAP3 DUP4 MSTORE PUSH1 0x40 DUP1 DUP3 KECCAK256 DUP1 SLOAD PUSH1 0x1 DUP2 ADD DUP3 SSTORE SWAP1 DUP4 MSTORE DUP5 DUP4 KECCAK256 ADD DUP1 SLOAD PUSH1 0x1 PUSH1 0x1 PUSH1 0xA0 SHL SUB NOT AND PUSH1 0x1 PUSH1 0x1 PUSH1 0xA0 SHL SUB DUP13 AND OR SWAP1 SSTORE SWAP2 DUP2 MSTORE SWAP2 DUP3 SWAP1 MSTORE DUP2 KECCAK256 PUSH1 0x6 ADD DUP1 SLOAD DUP8 SWAP3 SWAP1 PUSH2 0x12BB SWAP1 DUP5 SWAP1 PUSH2 0x2331 JUMP JUMPDEST SWAP1 SWAP2 SSTORE POP POP PUSH1 0x40 MLOAD DUP6 DUP2 MSTORE PUSH1 0x1 PUSH1 0x1 PUSH1 0xA0 SHL SUB DUP8 AND SWAP1 CALLER SWAP1 PUSH32 0x5D081D791B64899ADAB031015397EF8D7600501212EF97573B9E50F8C9BB6D9B SWAP1 PUSH1 0x20 ADD PUSH1 0x40 MLOAD DUP1 SWAP2 SUB SWAP1 LOG3 POP POP POP POP POP POP POP JUMP JUMPDEST PUSH1 0x5 PUSH1 0x20 MSTORE DUP2 PUSH1 0x0 MSTORE PUSH1 0x40 PUSH1 0x0 KECCAK256 DUP2 DUP2 SLOAD DUP2 LT PUSH2 0x1325 JUMPI PUSH1 0x0 DUP1 REVERT JUMPDEST PUSH1 0x0 SWAP2 DUP3 MSTORE PUSH1 0x20 SWAP1 SWAP2 KECCAK256 ADD SLOAD PUSH1 0x1 PUSH1 0x1 PUSH1 0xA0 SHL SUB AND SWAP2 POP DUP3 SWAP1 POP JUMP JUMPDEST PUSH1 0x3 PUSH1 0x20 MSTORE DUP2 PUSH1 0x0 MSTORE PUSH1 0x40 PUSH1 0x0 KECCAK256 DUP2 DUP2 SLOAD DUP2 LT PUSH2 0x1325 JUMPI PUSH1 0x0 DUP1 REVERT JUMPDEST PUSH1 0x2 PUSH1 0x20 SWAP1 DUP2 MSTORE PUSH1 0x0 SWAP3 DUP4 MSTORE PUSH1 0x40 DUP1 DUP5 KECCAK256 SWAP1 SWAP2 MSTORE SWAP1 DUP3 MSTORE SWAP1 KECCAK256 DUP1 SLOAD DUP2 SWAP1 PUSH2 0x1383 SWAP1 PUSH2 0x26D1 JUMP JUMPDEST DUP1 PUSH1 0x1F ADD PUSH1 0x20 DUP1 SWAP2 DIV MUL PUSH1 0x20 ADD PUSH1 0x40 MLOAD SWAP1 DUP2 ADD PUSH1 0x40 MSTORE DUP1 SWAP3 SWAP2 SWAP1 DUP2 DUP2 MSTORE PUSH1 0x20 ADD DUP3 DUP1 SLOAD PUSH2 0x13AF SWAP1 PUSH2 0x26D1 JUMP JUMPDEST DUP1 ISZERO PUSH2 0x13FC JUMPI DUP1 PUSH1 0x1F LT PUSH2 0x13D1 JUMPI PUSH2 0x100 DUP1 DUP4 SLOAD DIV MUL DUP4 MSTORE SWAP2 PUSH1 0x20 ADD SWAP2 PUSH2 0x13FC JUMP JUMPDEST DUP3 ADD SWAP2 SWAP1 PUSH1 0x0 MSTORE PUSH1 0x20 PUSH1 0x0 KECCAK256 SWAP1 JUMPDEST DUP2 SLOAD DUP2 MSTORE SWAP1 PUSH1 0x1 ADD SWAP1 PUSH1 0x20 ADD DUP1 DUP4 GT PUSH2 0x13DF JUMPI DUP3 SWAP1 SUB PUSH1 0x1F AND DUP3 ADD SWAP2 JUMPDEST POP POP POP PUSH1 0x1 SWAP1 SWAP4 ADD SLOAD SWAP2 SWAP3 POP POP PUSH1 0x1 PUSH1 0x1 PUSH1 0xA0 SHL SUB DUP2 AND SWAP1 PUSH1 0xFF PUSH1 0x1 PUSH1 0xA0 SHL SWAP1 SWAP2 DIV AND DUP4 JUMP JUMPDEST PUSH1 0x4 PUSH1 0x20 SWAP1 DUP2 MSTORE PUSH1 0x0 SWAP3 DUP4 MSTORE PUSH1 0x40 DUP1 DUP5 KECCAK256 SWAP1 SWAP2 MSTORE SWAP1 DUP3 MSTORE SWAP1 KECCAK256 DUP1 SLOAD DUP2 SWAP1 PUSH2 0x1448 SWAP1 PUSH2 0x26D1 JUMP JUMPDEST DUP1 PUSH1 0x1F ADD PUSH1 0x20 DUP1 SWAP2 DIV MUL PUSH1 0x20 ADD PUSH1 0x40 MLOAD SWAP1 DUP2 ADD PUSH1 0x40 MSTORE DUP1 SWAP3 SWAP2 SWAP1 DUP2 DUP2 MSTORE PUSH1 0x20 ADD DUP3 DUP1 SLOAD PUSH2 0x1474 SWAP1 PUSH2 0x26D1 JUMP JUMPDEST DUP1 ISZERO PUSH2 0x14C1 JUMPI DUP1 PUSH1 0x1F LT PUSH2 0x1496 JUMPI PUSH2 0x100 DUP1 DUP4 SLOAD DIV MUL DUP4 MSTORE SWAP2 PUSH1 0x20 ADD SWAP2 PUSH2 0x14C1 JUMP JUMPDEST DUP3 ADD SWAP2 SWAP1 PUSH1 0x0 MSTORE PUSH1 0x20 PUSH1 0x0 KECCAK256 SWAP1 JUMPDEST DUP2 SLOAD DUP2 MSTORE SWAP1 PUSH1 0x1 ADD SWAP1 PUSH1 0x20 ADD DUP1 DUP4 GT PUSH2 0x14A4 JUMPI DUP3 SWAP1 SUB PUSH1 0x1F AND DUP3 ADD SWAP2 JUMPDEST POP POP POP POP PUSH1 0x1 DUP4 ADD SLOAD PUSH1 0x2 DUP5 ADD SLOAD PUSH1 0x3 DUP6 ADD SLOAD PUSH1 0x4 DUP7 ADD SLOAD PUSH1 0x5 SWAP1 SWAP7 ADD SLOAD SWAP5 SWAP6 PUSH1 0x1 PUSH1 0x1 PUSH1 0xA0 SHL SUB SWAP1 SWAP4 AND SWAP5 SWAP2 SWAP4 POP SWAP2 PUSH1 0xFF AND SWAP1 DUP7 JUMP JUMPDEST PUSH1 0x1 PUSH1 0x1 PUSH1 0xA0 SHL SUB DUP1 DUP3 AND PUSH1 0x0 SWAP1 DUP2 MSTORE PUSH1 0x2 PUSH1 0x20 SWAP1 DUP2 MSTORE PUSH1 0x40 DUP1 DUP4 KECCAK256 CALLER DUP5 MSTORE SWAP1 SWAP2 MSTORE SWAP1 KECCAK256 PUSH1 0x1 ADD SLOAD DUP3 SWAP2 AND PUSH2 0x1540 JUMPI PUSH1 0x40 MLOAD PUSH4 0x77B68781 PUSH1 0xE1 SHL DUP2 MSTORE PUSH1 0x4 ADD PUSH1 0x40 MLOAD DUP1 SWAP2 SUB SWAP1 REVERT JUMPDEST PUSH1 0x1 PUSH1 0x1 PUSH1 0xA0 SHL SUB DUP3 AND PUSH1 0x0 SWAP1 DUP2 MSTORE PUSH1 0x20 DUP2 SWAP1 MSTORE PUSH1 0x40 SWAP1 KECCAK256 DUP1 SLOAD PUSH1 0xFF AND PUSH2 0x157A JUMPI PUSH1 0x40 MLOAD PUSH4 0xABA47339 PUSH1 0xE0 SHL DUP2 MSTORE PUSH1 0x4 ADD PUSH1 0x40 MLOAD DUP1 SWAP2 SUB SWAP1 REVERT JUMPDEST PUSH1 0x3 DUP2 ADD SLOAD PUSH1 0xFF AND ISZERO PUSH2 0x15A0 JUMPI PUSH1 0x40 MLOAD PUSH4 0x7281D96B PUSH1 0xE1 SHL DUP2 MSTORE PUSH1 0x4 ADD PUSH1 0x40 MLOAD DUP1 SWAP2 SUB SWAP1 REVERT JUMPDEST DUP1 PUSH1 0x2 ADD SLOAD DUP2 PUSH1 0x1 ADD SLOAD PUSH2 0x15B4 SWAP2 SWAP1 PUSH2 0x2331 JUMP JUMPDEST TIMESTAMP GT PUSH2 0x15D3 JUMPI PUSH1 0x40 MLOAD PUSH4 0x5FFD62B PUSH1 0xE1 SHL DUP2 MSTORE PUSH1 0x4 ADD PUSH1 0x40 MLOAD DUP1 SWAP2 SUB SWAP1 REVERT JUMPDEST PUSH1 0x3 DUP2 ADD DUP1 SLOAD PUSH1 0xFF NOT AND PUSH1 0x1 SWAP1 DUP2 OR SWAP1 SWAP2 SSTORE TIMESTAMP PUSH1 0x5 DUP4 ADD DUP2 SWAP1 SSTORE PUSH1 0x7 DUP4 ADD DUP2 SWAP1 SSTORE PUSH1 0x1 PUSH1 0x1 PUSH1 0xA0 SHL SUB DUP6 AND PUSH1 0x0 DUP2 DUP2 MSTORE PUSH1 0x20 SWAP4 DUP5 MSTORE PUSH1 0x40 SWAP1 DUP2 SWAP1 KECCAK256 SLOAD PUSH1 0x4 DUP7 ADD SSTORE MLOAD SWAP2 DUP3 MSTORE SWAP2 PUSH32 0x79A18691D9845D93F3A7276C16D1737E190DA43060FA3FB2049F02DBF50A3D9A SWAP2 ADD JUMPDEST PUSH1 0x40 MLOAD DUP1 SWAP2 SUB SWAP1 LOG2 POP POP POP JUMP JUMPDEST CALLER PUSH1 0x0 SWAP1 DUP2 MSTORE PUSH1 0x20 DUP2 SWAP1 MSTORE PUSH1 0x40 SWAP1 KECCAK256 SLOAD PUSH1 0xFF AND PUSH2 0x167A JUMPI PUSH1 0x40 MLOAD PUSH4 0xABA47339 PUSH1 0xE0 SHL DUP2 MSTORE PUSH1 0x4 ADD PUSH1 0x40 MLOAD DUP1 SWAP2 SUB SWAP1 REVERT JUMPDEST CALLER PUSH1 0x0 SWAP1 DUP2 MSTORE PUSH1 0x4 PUSH1 0x20 SWAP1 DUP2 MSTORE PUSH1 0x40 DUP1 DUP4 KECCAK256 PUSH1 0x1 PUSH1 0x1 PUSH1 0xA0 SHL SUB DUP6 DUP2 AND DUP6 MSTORE SWAP3 MSTORE SWAP1 SWAP2 KECCAK256 PUSH1 0x1 ADD SLOAD AND PUSH2 0x16C0 JUMPI PUSH1 0x40 MLOAD PUSH4 0x694F351F PUSH1 0xE0 SHL DUP2 MSTORE PUSH1 0x4 ADD PUSH1 0x40 MLOAD DUP1 SWAP2 SUB SWAP1 REVERT JUMPDEST CALLER PUSH1 0x0 DUP2 DUP2 MSTORE PUSH1 0x4 PUSH1 0x20 SWAP1 DUP2 MSTORE PUSH1 0x40 DUP1 DUP4 KECCAK256 PUSH1 0x1 PUSH1 0x1 PUSH1 0xA0 SHL SUB DUP7 AND DUP5 MSTORE DUP3 MSTORE DUP1 DUP4 KECCAK256 PUSH1 0x2 ADD SLOAD SWAP4 DUP4 MSTORE SWAP1 DUP3 SWAP1 MSTORE DUP2 KECCAK256 PUSH1 0x6 ADD DUP1 SLOAD DUP4 SWAP3 SWAP1 PUSH2 0x1703 SWAP1 DUP5 SWAP1 PUSH2 0x26BE JUMP JUMPDEST SWAP1 SWAP2 SSTORE POP POP CALLER PUSH1 0x0 SWAP1 DUP2 MSTORE PUSH1 0x4 PUSH1 0x20 SWAP1 DUP2 MSTORE PUSH1 0x40 DUP1 DUP4 KECCAK256 PUSH1 0x1 PUSH1 0x1 PUSH1 0xA0 SHL SUB DUP7 AND DUP5 MSTORE SWAP1 SWAP2 MSTORE DUP2 KECCAK256 SWAP1 PUSH2 0x1736 DUP3 DUP3 PUSH2 0x22C5 JUMP JUMPDEST POP PUSH1 0x1 DUP2 ADD DUP1 SLOAD PUSH1 0x1 PUSH1 0x1 PUSH1 0xA0 SHL SUB NOT AND SWAP1 SSTORE PUSH1 0x0 PUSH1 0x2 DUP3 ADD DUP2 SWAP1 SSTORE PUSH1 0x3 DUP3 ADD DUP2 SWAP1 SSTORE PUSH1 0x4 DUP3 ADD DUP1 SLOAD PUSH1 0xFF NOT AND SWAP1 SSTORE PUSH1 0x5 SWAP2 DUP3 ADD DUP2 SWAP1 SSTORE CALLER DUP2 MSTORE PUSH1 0x20 SWAP2 SWAP1 SWAP2 MSTORE PUSH1 0x40 DUP2 KECCAK256 DUP1 SLOAD SWAP1 SWAP2 JUMPDEST DUP2 DUP2 LT ISZERO PUSH2 0x1880 JUMPI DUP5 PUSH1 0x1 PUSH1 0x1 PUSH1 0xA0 SHL SUB AND DUP4 DUP3 DUP2 SLOAD DUP2 LT PUSH2 0x17A3 JUMPI PUSH2 0x17A3 PUSH2 0x281A JUMP JUMPDEST PUSH1 0x0 SWAP2 DUP3 MSTORE PUSH1 0x20 SWAP1 SWAP2 KECCAK256 ADD SLOAD PUSH1 0x1 PUSH1 0x1 PUSH1 0xA0 SHL SUB AND SUB PUSH2 0x186E JUMPI DUP3 PUSH2 0x17C9 PUSH1 0x1 DUP5 PUSH2 0x26BE JUMP JUMPDEST DUP2 SLOAD DUP2 LT PUSH2 0x17D9 JUMPI PUSH2 0x17D9 PUSH2 0x281A JUMP JUMPDEST SWAP1 PUSH1 0x0 MSTORE PUSH1 0x20 PUSH1 0x0 KECCAK256 ADD PUSH1 0x0 SWAP1 SLOAD SWAP1 PUSH2 0x100 EXP SWAP1 DIV PUSH1 0x1 PUSH1 0x1 PUSH1 0xA0 SHL SUB AND DUP4 DUP3 DUP2 SLOAD DUP2 LT PUSH2 0x1809 JUMPI PUSH2 0x1809 PUSH2 0x281A JUMP JUMPDEST SWAP1 PUSH1 0x0 MSTORE PUSH1 0x20 PUSH1 0x0 KECCAK256 ADD PUSH1 0x0 PUSH2 0x100 EXP DUP2 SLOAD DUP2 PUSH1 0x1 PUSH1 0x1 PUSH1 0xA0 SHL SUB MUL NOT AND SWAP1 DUP4 PUSH1 0x1 PUSH1 0x1 PUSH1 0xA0 SHL SUB AND MUL OR SWAP1 SSTORE POP DUP3 DUP1 SLOAD DUP1 PUSH2 0x1847 JUMPI PUSH2 0x1847 PUSH2 0x2830 JUMP JUMPDEST PUSH1 0x0 DUP3 DUP2 MSTORE PUSH1 0x20 SWAP1 KECCAK256 DUP2 ADD PUSH1 0x0 NOT SWAP1 DUP2 ADD DUP1 SLOAD PUSH1 0x1 PUSH1 0x1 PUSH1 0xA0 SHL SUB NOT AND SWAP1 SSTORE ADD SWAP1 SSTORE PUSH2 0x1880 JUMP JUMPDEST DUP1 PUSH2 0x1878 DUP2 PUSH2 0x2846 JUMP JUMPDEST SWAP2 POP POP PUSH2 0x177F JUMP JUMPDEST POP PUSH1 0x40 MLOAD PUSH1 0x1 PUSH1 0x1 PUSH1 0xA0 SHL SUB DUP6 AND SWAP1 CALLER SWAP1 PUSH32 0x1A6590BD0CABBFCC7C86BEF99E1034054E179905CFCC294598FCD426C0922442 SWAP1 PUSH1 0x0 SWAP1 LOG3 POP POP POP POP JUMP JUMPDEST CALLER PUSH1 0x0 SWAP1 DUP2 MSTORE PUSH1 0x20 DUP2 SWAP1 MSTORE PUSH1 0x40 SWAP1 KECCAK256 SLOAD PUSH1 0xFF AND PUSH2 0x18ED JUMPI PUSH1 0x40 MLOAD PUSH4 0xABA47339 PUSH1 0xE0 SHL DUP2 MSTORE PUSH1 0x4 ADD PUSH1 0x40 MLOAD DUP1 SWAP2 SUB SWAP1 REVERT JUMPDEST CALLER PUSH1 0x0 SWAP1 DUP2 MSTORE PUSH1 0x20 DUP2 SWAP1 MSTORE PUSH1 0x40 SWAP1 KECCAK256 PUSH1 0x3 DUP2 ADD SLOAD PUSH1 0xFF AND ISZERO PUSH2 0x1A0D JUMPI PUSH1 0x78 DUP2 PUSH1 0x7 ADD SLOAD PUSH2 0x191A SWAP2 SWAP1 PUSH2 0x2331 JUMP JUMPDEST TIMESTAMP GT ISZERO PUSH2 0x193A JUMPI PUSH1 0x40 MLOAD PUSH4 0x4B3C3227 PUSH1 0xE1 SHL DUP2 MSTORE PUSH1 0x4 ADD PUSH1 0x40 MLOAD DUP1 SWAP2 SUB SWAP1 REVERT JUMPDEST PUSH1 0x3 DUP2 ADD DUP1 SLOAD PUSH1 0xFF NOT AND SWAP1 SSTORE PUSH1 0x0 PUSH1 0x5 DUP1 DUP4 ADD DUP3 SWAP1 SSTORE PUSH1 0x4 DUP4 ADD DUP3 SWAP1 SSTORE PUSH1 0x7 DUP4 ADD DUP3 SWAP1 SSTORE TIMESTAMP PUSH1 0x1 DUP5 ADD SSTORE CALLER DUP3 MSTORE PUSH1 0x20 MSTORE PUSH1 0x40 DUP2 KECCAK256 DUP1 SLOAD SWAP1 SWAP2 JUMPDEST DUP2 DUP2 LT ISZERO PUSH2 0x19DA JUMPI CALLER PUSH1 0x0 SWAP1 DUP2 MSTORE PUSH1 0x4 PUSH1 0x20 MSTORE PUSH1 0x40 DUP2 KECCAK256 DUP5 SLOAD DUP3 SWAP1 DUP7 SWAP1 DUP6 SWAP1 DUP2 LT PUSH2 0x19A0 JUMPI PUSH2 0x19A0 PUSH2 0x281A JUMP JUMPDEST PUSH1 0x0 SWAP2 DUP3 MSTORE PUSH1 0x20 DUP1 DUP4 KECCAK256 SWAP1 SWAP2 ADD SLOAD PUSH1 0x1 PUSH1 0x1 PUSH1 0xA0 SHL SUB AND DUP4 MSTORE DUP3 ADD SWAP3 SWAP1 SWAP3 MSTORE PUSH1 0x40 ADD SWAP1 KECCAK256 PUSH1 0x3 ADD SSTORE DUP1 PUSH2 0x19D2 DUP2 PUSH2 0x2846 JUMP JUMPDEST SWAP2 POP POP PUSH2 0x1973 JUMP JUMPDEST POP PUSH1 0x40 MLOAD TIMESTAMP DUP2 MSTORE CALLER SWAP1 PUSH32 0x5178649125CFF20230F3D21B86A7386E3924B30D642EEA1F977A6668FAB8344C SWAP1 PUSH1 0x20 ADD PUSH2 0x163D JUMP JUMPDEST TIMESTAMP PUSH1 0x1 DUP3 ADD DUP2 SWAP1 SSTORE PUSH1 0x40 MLOAD SWAP1 DUP2 MSTORE CALLER SWAP1 PUSH32 0xDCEFC94F16BF43DEA53B136BE3C49B2418F70B051A322B89F92F7739D65548EA SWAP1 PUSH1 0x20 ADD JUMPDEST PUSH1 0x40 MLOAD DUP1 SWAP2 SUB SWAP1 LOG2 POP JUMP JUMPDEST CALLER PUSH1 0x0 SWAP1 DUP2 MSTORE PUSH1 0x20 DUP2 SWAP1 MSTORE PUSH1 0x40 SWAP1 KECCAK256 SLOAD PUSH1 0xFF AND PUSH2 0x1A7E JUMPI PUSH1 0x40 MLOAD PUSH4 0xABA47339 PUSH1 0xE0 SHL DUP2 MSTORE PUSH1 0x4 ADD PUSH1 0x40 MLOAD DUP1 SWAP2 SUB SWAP1 REVERT JUMPDEST CALLER PUSH1 0x0 SWAP1 DUP2 MSTORE PUSH1 0x2 PUSH1 0x20 SWAP1 DUP2 MSTORE PUSH1 0x40 DUP1 DUP4 KECCAK256 PUSH1 0x1 PUSH1 0x1 PUSH1 0xA0 SHL SUB DUP6 DUP2 AND DUP6 MSTORE SWAP3 MSTORE SWAP1 SWAP2 KECCAK256 PUSH1 0x1 ADD SLOAD AND PUSH2 0x1AC4 JUMPI PUSH1 0x40 MLOAD PUSH4 0x37C5C3A3 PUSH1 0xE2 SHL DUP2 MSTORE PUSH1 0x4 ADD PUSH1 0x40 MLOAD DUP1 SWAP2 SUB SWAP1 REVERT JUMPDEST CALLER PUSH1 0x0 SWAP1 DUP2 MSTORE PUSH1 0x2 PUSH1 0x20 SWAP1 DUP2 MSTORE PUSH1 0x40 DUP1 DUP4 KECCAK256 PUSH1 0x1 PUSH1 0x1 PUSH1 0xA0 SHL SUB DUP6 AND DUP5 MSTORE SWAP1 SWAP2 MSTORE SWAP1 KECCAK256 PUSH1 0x1 ADD SLOAD PUSH1 0x1 PUSH1 0xA0 SHL SWAP1 DIV PUSH1 0xFF AND ISZERO PUSH2 0x1B13 JUMPI PUSH1 0x40 MLOAD PUSH4 0x51C65DB PUSH1 0xE0 SHL DUP2 MSTORE PUSH1 0x4 ADD PUSH1 0x40 MLOAD DUP1 SWAP2 SUB SWAP1 REVERT JUMPDEST CALLER PUSH1 0x0 SWAP1 DUP2 MSTORE PUSH1 0x2 PUSH1 0x20 SWAP1 DUP2 MSTORE PUSH1 0x40 DUP1 DUP4 KECCAK256 PUSH1 0x1 PUSH1 0x1 PUSH1 0xA0 SHL SUB DUP6 AND DUP5 MSTORE SWAP1 SWAP2 MSTORE DUP2 KECCAK256 SWAP1 PUSH2 0x1B41 DUP3 DUP3 PUSH2 0x22C5 JUMP JUMPDEST POP PUSH1 0x1 ADD DUP1 SLOAD PUSH1 0x1 PUSH1 0x1 PUSH1 0xA8 SHL SUB NOT AND SWAP1 SSTORE CALLER PUSH1 0x0 SWAP1 DUP2 MSTORE PUSH1 0x3 PUSH1 0x20 MSTORE PUSH1 0x40 DUP2 KECCAK256 DUP1 SLOAD SWAP1 SWAP2 JUMPDEST DUP2 DUP2 LT ISZERO PUSH2 0x1C68 JUMPI DUP4 PUSH1 0x1 PUSH1 0x1 PUSH1 0xA0 SHL SUB AND DUP4 DUP3 DUP2 SLOAD DUP2 LT PUSH2 0x1B8B JUMPI PUSH2 0x1B8B PUSH2 0x281A JUMP JUMPDEST PUSH1 0x0 SWAP2 DUP3 MSTORE PUSH1 0x20 SWAP1 SWAP2 KECCAK256 ADD SLOAD PUSH1 0x1 PUSH1 0x1 PUSH1 0xA0 SHL SUB AND SUB PUSH2 0x1C56 JUMPI DUP3 PUSH2 0x1BB1 PUSH1 0x1 DUP5 PUSH2 0x26BE JUMP JUMPDEST DUP2 SLOAD DUP2 LT PUSH2 0x1BC1 JUMPI PUSH2 0x1BC1 PUSH2 0x281A JUMP JUMPDEST SWAP1 PUSH1 0x0 MSTORE PUSH1 0x20 PUSH1 0x0 KECCAK256 ADD PUSH1 0x0 SWAP1 SLOAD SWAP1 PUSH2 0x100 EXP SWAP1 DIV PUSH1 0x1 PUSH1 0x1 PUSH1 0xA0 SHL SUB AND DUP4 DUP3 DUP2 SLOAD DUP2 LT PUSH2 0x1BF1 JUMPI PUSH2 0x1BF1 PUSH2 0x281A JUMP JUMPDEST SWAP1 PUSH1 0x0 MSTORE PUSH1 0x20 PUSH1 0x0 KECCAK256 ADD PUSH1 0x0 PUSH2 0x100 EXP DUP2 SLOAD DUP2 PUSH1 0x1 PUSH1 0x1 PUSH1 0xA0 SHL SUB MUL NOT AND SWAP1 DUP4 PUSH1 0x1 PUSH1 0x1 PUSH1 0xA0 SHL SUB AND MUL OR SWAP1 SSTORE POP DUP3 DUP1 SLOAD DUP1 PUSH2 0x1C2F JUMPI PUSH2 0x1C2F PUSH2 0x2830 JUMP JUMPDEST PUSH1 0x0 DUP3 DUP2 MSTORE PUSH1 0x20 SWAP1 KECCAK256 DUP2 ADD PUSH1 0x0 NOT SWAP1 DUP2 ADD DUP1 SLOAD PUSH1 0x1 PUSH1 0x1 PUSH1 0xA0 SHL SUB NOT AND SWAP1 SSTORE ADD SWAP1 SSTORE PUSH2 0x1C68 JUMP JUMPDEST DUP1 PUSH2 0x1C60 DUP2 PUSH2 0x2846 JUMP JUMPDEST SWAP2 POP POP PUSH2 0x1B67 JUMP JUMPDEST POP PUSH1 0x40 MLOAD PUSH1 0x1 PUSH1 0x1 PUSH1 0xA0 SHL SUB DUP5 AND SWAP1 CALLER SWAP1 PUSH32 0xEE943CDB81826D5909C559C6B1AE6908FCAF2DBC16C4B730346736B486283E8B SWAP1 PUSH1 0x0 SWAP1 LOG3 POP POP POP JUMP JUMPDEST PUSH1 0x1 PUSH1 0x1 PUSH1 0xA0 SHL SUB DUP3 AND PUSH1 0x0 SWAP1 DUP2 MSTORE PUSH1 0x3 PUSH1 0x20 MSTORE PUSH1 0x40 DUP2 KECCAK256 SLOAD DUP3 LT PUSH2 0x1CDC JUMPI PUSH1 0x40 MLOAD PUSH4 0x4E23D035 PUSH1 0xE0 SHL DUP2 MSTORE PUSH1 0x4 ADD PUSH1 0x40 MLOAD DUP1 SWAP2 SUB SWAP1 REVERT JUMPDEST PUSH1 0x1 PUSH1 0x1 PUSH1 0xA0 SHL SUB DUP4 AND PUSH1 0x0 SWAP1 DUP2 MSTORE PUSH1 0x3 PUSH1 0x20 MSTORE PUSH1 0x40 SWAP1 KECCAK256 DUP1 SLOAD DUP4 SWAP1 DUP2 LT PUSH2 0x1D06 JUMPI PUSH2 0x1D06 PUSH2 0x281A JUMP JUMPDEST PUSH1 0x0 SWAP2 DUP3 MSTORE PUSH1 0x20 SWAP1 SWAP2 KECCAK256 ADD SLOAD PUSH1 0x1 PUSH1 0x1 PUSH1 0xA0 SHL SUB AND SWAP1 POP JUMPDEST SWAP3 SWAP2 POP POP JUMP JUMPDEST PUSH1 0x1 PUSH1 0x1 PUSH1 0xA0 SHL SUB DUP3 AND PUSH1 0x0 SWAP1 DUP2 MSTORE PUSH1 0x5 PUSH1 0x20 MSTORE PUSH1 0x40 DUP2 KECCAK256 SLOAD DUP3 LT PUSH2 0x1D5C JUMPI PUSH1 0x40 MLOAD PUSH4 0x4E23D035 PUSH1 0xE0 SHL DUP2 MSTORE PUSH1 0x4 ADD PUSH1 0x40 MLOAD DUP1 SWAP2 SUB SWAP1 REVERT JUMPDEST PUSH1 0x1 PUSH1 0x1 PUSH1 0xA0 SHL SUB DUP4 AND PUSH1 0x0 SWAP1 DUP2 MSTORE PUSH1 0x5 PUSH1 0x20 MSTORE PUSH1 0x40 SWAP1 KECCAK256 DUP1 SLOAD DUP4 SWAP1 DUP2 LT PUSH2 0x1D06 JUMPI PUSH2 0x1D06 PUSH2 0x281A JUMP JUMPDEST CALLER PUSH1 0x0 SWAP1 DUP2 MSTORE PUSH1 0x20 DUP2 SWAP1 MSTORE PUSH1 0x40 SWAP1 KECCAK256 SLOAD PUSH1 0xFF AND PUSH2 0x1DB6 JUMPI PUSH1 0x40 MLOAD PUSH4 0xABA47339 PUSH1 0xE0 SHL DUP2 MSTORE PUSH1 0x4 ADD PUSH1 0x40 MLOAD DUP1 SWAP2 SUB SWAP1 REVERT JUMPDEST CALLER PUSH1 0x0 SWAP1 DUP2 MSTORE PUSH1 0x2 PUSH1 0x20 SWAP1 DUP2 MSTORE PUSH1 0x40 DUP1 DUP4 KECCAK256 PUSH1 0x1 PUSH1 0x1 PUSH1 0xA0 SHL SUB DUP7 DUP2 AND DUP6 MSTORE SWAP3 MSTORE SWAP1 SWAP2 KECCAK256 PUSH1 0x1 ADD SLOAD AND PUSH2 0x1DFC JUMPI PUSH1 0x40 MLOAD PUSH4 0x37C5C3A3 PUSH1 0xE2 SHL DUP2 MSTORE PUSH1 0x4 ADD PUSH1 0x40 MLOAD DUP1 SWAP2 SUB SWAP1 REVERT JUMPDEST CALLER PUSH1 0x0 DUP2 DUP2 MSTORE PUSH1 0x2 PUSH1 0x20 SWAP1 DUP2 MSTORE PUSH1 0x40 DUP1 DUP4 KECCAK256 PUSH1 0x1 PUSH1 0x1 PUSH1 0xA0 SHL SUB DUP8 AND DUP1 DUP6 MSTORE SWAP3 MSTORE SWAP2 DUP3 SWAP1 KECCAK256 PUSH1 0x1 ADD DUP1 SLOAD DUP6 ISZERO ISZERO PUSH1 0x1 PUSH1 0xA0 SHL MUL PUSH1 0xFF PUSH1 0xA0 SHL NOT SWAP1 SWAP2 AND OR SWAP1 SSTORE SWAP1 MLOAD SWAP1 SWAP2 SWAP1 PUSH32 0xEA39C92A08A5C775F8B77F8813F0C227D5AE58F04E182B81B62D37A24107484F SWAP1 PUSH2 0x1E71 SWAP1 DUP6 ISZERO ISZERO DUP2 MSTORE PUSH1 0x20 ADD SWAP1 JUMP JUMPDEST PUSH1 0x40 MLOAD DUP1 SWAP2 SUB SWAP1 LOG3 POP POP JUMP JUMPDEST PUSH1 0x1 PUSH1 0x1 PUSH1 0xA0 SHL SUB DUP1 DUP4 AND PUSH1 0x0 SWAP1 DUP2 MSTORE PUSH1 0x20 DUP2 DUP2 MSTORE PUSH1 0x40 DUP1 DUP4 KECCAK256 PUSH1 0x4 DUP4 MSTORE DUP2 DUP5 KECCAK256 SWAP5 DUP7 AND DUP5 MSTORE SWAP4 SWAP1 SWAP2 MSTORE DUP2 KECCAK256 PUSH1 0x3 DUP4 ADD SLOAD SWAP2 SWAP3 DUP4 SWAP3 DUP4 SWAP3 SWAP1 PUSH1 0xFF AND PUSH2 0x1ED5 JUMPI PUSH1 0x40 MLOAD PUSH4 0x759D4E61 PUSH1 0xE1 SHL DUP2 MSTORE PUSH1 0x4 ADD PUSH1 0x40 MLOAD DUP1 SWAP2 SUB SWAP1 REVERT JUMPDEST PUSH1 0x1 DUP2 ADD SLOAD PUSH1 0x1 PUSH1 0x1 PUSH1 0xA0 SHL SUB AND PUSH2 0x1F00 JUMPI PUSH1 0x40 MLOAD PUSH4 0x644D871F PUSH1 0xE0 SHL DUP2 MSTORE PUSH1 0x4 ADD PUSH1 0x40 MLOAD DUP1 SWAP2 SUB SWAP1 REVERT JUMPDEST PUSH1 0x78 DUP3 PUSH1 0x7 ADD SLOAD PUSH2 0x1F11 SWAP2 SWAP1 PUSH2 0x2331 JUMP JUMPDEST TIMESTAMP GT PUSH2 0x1F29 JUMPI PUSH1 0x0 DUP1 PUSH1 0x0 SWAP5 POP SWAP5 POP SWAP5 POP POP POP PUSH2 0x1FE4 JUMP JUMPDEST PUSH2 0x2710 DUP2 PUSH1 0x2 ADD SLOAD DUP4 PUSH1 0x4 ADD SLOAD PUSH2 0x1F40 SWAP2 SWAP1 PUSH2 0x2685 JUMP JUMPDEST PUSH2 0x1F4A SWAP2 SWAP1 PUSH2 0x269C JUMP JUMPDEST SWAP4 POP DUP1 PUSH1 0x3 ADD SLOAD SWAP3 POP PUSH1 0x0 DUP3 PUSH1 0x5 ADD SLOAD TIMESTAMP PUSH2 0x1F65 SWAP2 SWAP1 PUSH2 0x26BE JUMP JUMPDEST SWAP1 POP PUSH1 0x0 PUSH1 0x1 PUSH1 0x4 DUP5 ADD SLOAD PUSH1 0xFF AND PUSH1 0x1 DUP2 GT ISZERO PUSH2 0x1F84 JUMPI PUSH2 0x1F84 PUSH2 0x25CF JUMP JUMPDEST SUB PUSH2 0x1F9C JUMPI DUP3 PUSH1 0x5 ADD SLOAD DUP3 LT PUSH2 0x1F97 JUMPI POP DUP5 JUMPDEST PUSH2 0x1FCA JUMP JUMPDEST DUP3 PUSH1 0x5 ADD SLOAD DUP3 LT PUSH2 0x1FAE JUMPI POP DUP5 PUSH2 0x1FCA JUMP JUMPDEST PUSH1 0x5 DUP4 ADD SLOAD PUSH2 0x1FBD DUP4 DUP9 PUSH2 0x2685 JUMP JUMPDEST PUSH2 0x1FC7 SWAP2 SWAP1 PUSH2 0x269C JUMP JUMPDEST SWAP1 POP JUMPDEST DUP5 DUP2 GT ISZERO PUSH2 0x1FDF JUMPI PUSH2 0x1FDC DUP6 DUP3 PUSH2 0x26BE JUMP JUMPDEST SWAP7 POP JUMPDEST POP POP POP POP JUMPDEST SWAP3 POP SWAP3 POP SWAP3 JUMP JUMPDEST CALLER PUSH1 0x0 SWAP1 DUP2 MSTORE PUSH1 0x20 DUP2 SWAP1 MSTORE PUSH1 0x40 SWAP1 KECCAK256 SLOAD PUSH1 0xFF AND PUSH2 0x201B JUMPI PUSH1 0x40 MLOAD PUSH4 0xABA47339 PUSH1 0xE0 SHL DUP2 MSTORE PUSH1 0x4 ADD PUSH1 0x40 MLOAD DUP1 SWAP2 SUB SWAP1 REVERT JUMPDEST PUSH1 0x3C DUP2 LT ISZERO PUSH2 0x203D JUMPI PUSH1 0x40 MLOAD PUSH4 0x58C277E7 PUSH1 0xE0 SHL DUP2 MSTORE PUSH1 0x4 ADD PUSH1 0x40 MLOAD DUP1 SWAP2 SUB SWAP1 REVERT JUMPDEST CALLER PUSH1 0x0 DUP2 DUP2 MSTORE PUSH1 0x20 DUP2 DUP2 MSTORE PUSH1 0x40 SWAP2 DUP3 SWAP1 KECCAK256 PUSH1 0x2 ADD DUP5 SWAP1 SSTORE SWAP1 MLOAD DUP4 DUP2 MSTORE PUSH32 0xA4D780A276EB469A8A23984707D159B7887C3F1D43E2CC22A91CEA75FAEA9EC3 SWAP2 ADD PUSH2 0x1A43 JUMP JUMPDEST CALLER PUSH1 0x0 SWAP1 DUP2 MSTORE PUSH1 0x20 DUP2 SWAP1 MSTORE PUSH1 0x40 SWAP1 KECCAK256 SLOAD PUSH1 0xFF AND PUSH2 0x20B1 JUMPI PUSH1 0x40 MLOAD PUSH4 0xABA47339 PUSH1 0xE0 SHL DUP2 MSTORE PUSH1 0x4 ADD PUSH1 0x40 MLOAD DUP1 SWAP2 SUB SWAP1 REVERT JUMPDEST CALLVALUE PUSH1 0x0 SUB PUSH2 0x20D2 JUMPI PUSH1 0x40 MLOAD PUSH4 0xF2365B5B PUSH1 0xE0 SHL DUP2 MSTORE PUSH1 0x4 ADD PUSH1 0x40 MLOAD DUP1 SWAP2 SUB SWAP1 REVERT JUMPDEST CALLER PUSH1 0x0 SWAP1 DUP2 MSTORE PUSH1 0x1 PUSH1 0x20 MSTORE PUSH1 0x40 DUP2 KECCAK256 DUP1 SLOAD CALLVALUE SWAP3 SWAP1 PUSH2 0x20F1 SWAP1 DUP5 SWAP1 PUSH2 0x2331 JUMP JUMPDEST SWAP1 SWAP2 SSTORE POP POP PUSH1 0x40 MLOAD CALLVALUE DUP2 MSTORE CALLER SWAP1 PUSH32 0x543BA50A5EEC5E6178218E364B1D0F396157B3C8FA278522C2CB7FD99407D474 SWAP1 PUSH1 0x20 ADD PUSH1 0x40 MLOAD DUP1 SWAP2 SUB SWAP1 LOG2 JUMP JUMPDEST PUSH1 0x1 PUSH1 0x1 PUSH1 0xA0 SHL SUB DUP2 AND PUSH1 0x0 SWAP1 DUP2 MSTORE PUSH1 0x20 DUP2 SWAP1 MSTORE PUSH1 0x40 DUP2 KECCAK256 PUSH1 0x3 DUP2 ADD SLOAD DUP3 SWAP2 SWAP1 PUSH1 0xFF AND PUSH2 0x2160 JUMPI POP PUSH1 0x0 SWAP4 DUP5 SWAP4 POP SWAP2 POP POP JUMP JUMPDEST PUSH1 0x0 PUSH1 0x78 DUP3 PUSH1 0x7 ADD SLOAD PUSH2 0x2173 SWAP2 SWAP1 PUSH2 0x2331 JUMP JUMPDEST SWAP1 POP DUP1 TIMESTAMP LT PUSH2 0x2189 JUMPI POP PUSH1 0x0 SWAP5 DUP6 SWAP5 POP SWAP3 POP POP POP JUMP JUMPDEST PUSH1 0x1 PUSH2 0x2195 TIMESTAMP DUP4 PUSH2 0x26BE JUMP JUMPDEST SWAP4 POP SWAP4 POP POP POP SWAP2 POP SWAP2 JUMP JUMPDEST CALLER PUSH1 0x0 SWAP1 DUP2 MSTORE PUSH1 0x20 DUP2 SWAP1 MSTORE PUSH1 0x40 SWAP1 KECCAK256 SLOAD PUSH1 0xFF AND ISZERO PUSH2 0x21D1 JUMPI PUSH1 0x40 MLOAD PUSH4 0xEA075BF PUSH1 0xE2 SHL DUP2 MSTORE PUSH1 0x4 ADD PUSH1 0x40 MLOAD DUP1 SWAP2 SUB SWAP1 REVERT JUMPDEST PUSH1 0x3C DUP2 LT ISZERO PUSH2 0x21F3 JUMPI PUSH1 0x40 MLOAD PUSH4 0x58C277E7 PUSH1 0xE0 SHL DUP2 MSTORE PUSH1 0x4 ADD PUSH1 0x40 MLOAD DUP1 SWAP2 SUB SWAP1 REVERT JUMPDEST PUSH1 0x40 DUP1 MLOAD PUSH2 0x100 DUP2 ADD DUP3 MSTORE PUSH1 0x1 DUP1 DUP3 MSTORE TIMESTAMP PUSH1 0x20 DUP1 DUP5 ADD SWAP2 DUP3 MSTORE DUP4 DUP6 ADD DUP7 DUP2 MSTORE PUSH1 0x0 PUSH1 0x60 DUP7 ADD DUP2 DUP2 MSTORE PUSH1 0x80 DUP8 ADD DUP3 DUP2 MSTORE PUSH1 0xA0 DUP9 ADD DUP4 DUP2 MSTORE PUSH1 0xC0 DUP10 ADD DUP5 DUP2 MSTORE PUSH1 0xE0 DUP11 ADD DUP6 DUP2 MSTORE CALLER DUP1 DUP8 MSTORE SWAP8 DUP7 SWAP1 MSTORE SWAP5 DUP12 SWAP1 KECCAK256 SWAP10 MLOAD DUP11 SLOAD SWAP1 ISZERO ISZERO PUSH1 0xFF NOT SWAP2 DUP3 AND OR DUP12 SSTORE SWAP8 MLOAD SWAP9 DUP11 ADD SWAP9 SWAP1 SWAP9 SSTORE SWAP4 MLOAD PUSH1 0x2 DUP10 ADD SSTORE SWAP1 MLOAD PUSH1 0x3 DUP9 ADD DUP1 SLOAD SWAP2 ISZERO ISZERO SWAP2 SWAP1 SWAP7 AND OR SWAP1 SWAP5 SSTORE SWAP3 MLOAD PUSH1 0x4 DUP7 ADD SSTORE MLOAD PUSH1 0x5 DUP6 ADD SSTORE SWAP2 MLOAD PUSH1 0x6 DUP5 ADD SSTORE MLOAD PUSH1 0x7 SWAP1 SWAP3 ADD SWAP2 SWAP1 SWAP2 SSTORE SWAP1 MLOAD PUSH32 0xA4D780A276EB469A8A23984707D159B7887C3F1D43E2CC22A91CEA75FAEA9EC3 SWAP1 PUSH2 0x1A43 SWAP1 DUP5 DUP2 MSTORE PUSH1 0x20 ADD SWAP1 JUMP JUMPDEST POP DUP1 SLOAD PUSH2 0x22D1 SWAP1 PUSH2 0x26D1 JUMP JUMPDEST PUSH1 0x0 DUP3 SSTORE DUP1 PUSH1 0x1F LT PUSH2 0x22E1 JUMPI POP POP JUMP JUMPDEST PUSH1 0x1F ADD PUSH1 0x20 SWAP1 DIV SWAP1 PUSH1 0x0 MSTORE PUSH1 0x20 PUSH1 0x0 KECCAK256 SWAP1 DUP2 ADD SWAP1 PUSH2 0x22FF SWAP2 SWAP1 PUSH2 0x2302 JUMP JUMPDEST POP JUMP JUMPDEST JUMPDEST DUP1 DUP3 GT ISZERO PUSH2 0x2317 JUMPI PUSH1 0x0 DUP2 SSTORE PUSH1 0x1 ADD PUSH2 0x2303 JUMP JUMPDEST POP SWAP1 JUMP JUMPDEST PUSH4 0x4E487B71 PUSH1 0xE0 SHL PUSH1 0x0 MSTORE PUSH1 0x11 PUSH1 0x4 MSTORE PUSH1 0x24 PUSH1 0x0 REVERT JUMPDEST DUP1 DUP3 ADD DUP1 DUP3 GT ISZERO PUSH2 0x1D1E JUMPI PUSH2 0x1D1E PUSH2 0x231B JUMP JUMPDEST DUP1 CALLDATALOAD PUSH1 0x1 PUSH1 0x1 PUSH1 0xA0 SHL SUB DUP2 AND DUP2 EQ PUSH2 0x235B JUMPI PUSH1 0x0 DUP1 REVERT JUMPDEST SWAP2 SWAP1 POP JUMP JUMPDEST PUSH1 0x0 PUSH1 0x20 DUP3 DUP5 SUB SLT ISZERO PUSH2 0x2372 JUMPI PUSH1 0x0 DUP1 REVERT JUMPDEST PUSH2 0x237B DUP3 PUSH2 0x2344 JUMP JUMPDEST SWAP4 SWAP3 POP POP POP JUMP JUMPDEST PUSH4 0x4E487B71 PUSH1 0xE0 SHL PUSH1 0x0 MSTORE PUSH1 0x41 PUSH1 0x4 MSTORE PUSH1 0x24 PUSH1 0x0 REVERT JUMPDEST PUSH1 0x0 DUP3 PUSH1 0x1F DUP4 ADD SLT PUSH2 0x23A9 JUMPI PUSH1 0x0 DUP1 REVERT JUMPDEST DUP2 CALLDATALOAD PUSH8 0xFFFFFFFFFFFFFFFF DUP1 DUP3 GT ISZERO PUSH2 0x23C4 JUMPI PUSH2 0x23C4 PUSH2 0x2382 JUMP JUMPDEST PUSH1 0x40 MLOAD PUSH1 0x1F DUP4 ADD PUSH1 0x1F NOT SWAP1 DUP2 AND PUSH1 0x3F ADD AND DUP2 ADD SWAP1 DUP3 DUP3 GT DUP2 DUP4 LT OR ISZERO PUSH2 0x23EC JUMPI PUSH2 0x23EC PUSH2 0x2382 JUMP JUMPDEST DUP2 PUSH1 0x40 MSTORE DUP4 DUP2 MSTORE DUP7 PUSH1 0x20 DUP6 DUP9 ADD ADD GT ISZERO PUSH2 0x2405 JUMPI PUSH1 0x0 DUP1 REVERT JUMPDEST DUP4 PUSH1 0x20 DUP8 ADD PUSH1 0x20 DUP4 ADD CALLDATACOPY PUSH1 0x0 PUSH1 0x20 DUP6 DUP4 ADD ADD MSTORE DUP1 SWAP5 POP POP POP POP POP SWAP3 SWAP2 POP POP JUMP JUMPDEST PUSH1 0x0 DUP1 PUSH1 0x40 DUP4 DUP6 SUB SLT ISZERO PUSH2 0x2438 JUMPI PUSH1 0x0 DUP1 REVERT JUMPDEST DUP3 CALLDATALOAD PUSH8 0xFFFFFFFFFFFFFFFF DUP2 GT ISZERO PUSH2 0x244F JUMPI PUSH1 0x0 DUP1 REVERT JUMPDEST PUSH2 0x245B DUP6 DUP3 DUP7 ADD PUSH2 0x2398 JUMP JUMPDEST SWAP3 POP POP PUSH2 0x246A PUSH1 0x20 DUP5 ADD PUSH2 0x2344 JUMP JUMPDEST SWAP1 POP SWAP3 POP SWAP3 SWAP1 POP JUMP JUMPDEST PUSH1 0x0 PUSH1 0x20 DUP3 DUP5 SUB SLT ISZERO PUSH2 0x2485 JUMPI PUSH1 0x0 DUP1 REVERT JUMPDEST POP CALLDATALOAD SWAP2 SWAP1 POP JUMP JUMPDEST PUSH1 0x0 DUP1 PUSH1 0x0 DUP1 PUSH1 0x0 PUSH1 0xA0 DUP7 DUP9 SUB SLT ISZERO PUSH2 0x24A4 JUMPI PUSH1 0x0 DUP1 REVERT JUMPDEST DUP6 CALLDATALOAD PUSH8 0xFFFFFFFFFFFFFFFF DUP2 GT ISZERO PUSH2 0x24BB JUMPI PUSH1 0x0 DUP1 REVERT JUMPDEST PUSH2 0x24C7 DUP9 DUP3 DUP10 ADD PUSH2 0x2398 JUMP JUMPDEST SWAP6 POP POP PUSH2 0x24D6 PUSH1 0x20 DUP8 ADD PUSH2 0x2344 JUMP JUMPDEST SWAP4 POP PUSH1 0x40 DUP7 ADD CALLDATALOAD SWAP3 POP PUSH1 0x60 DUP7 ADD CALLDATALOAD PUSH1 0x2 DUP2 LT PUSH2 0x24F1 JUMPI PUSH1 0x0 DUP1 REVERT JUMPDEST SWAP5 SWAP8 SWAP4 SWAP7 POP SWAP2 SWAP5 PUSH1 0x80 ADD CALLDATALOAD SWAP3 SWAP2 POP POP JUMP JUMPDEST PUSH1 0x0 DUP1 PUSH1 0x40 DUP4 DUP6 SUB SLT ISZERO PUSH2 0x2515 JUMPI PUSH1 0x0 DUP1 REVERT JUMPDEST PUSH2 0x251E DUP4 PUSH2 0x2344 JUMP JUMPDEST SWAP5 PUSH1 0x20 SWAP4 SWAP1 SWAP4 ADD CALLDATALOAD SWAP4 POP POP POP JUMP JUMPDEST PUSH1 0x0 DUP1 PUSH1 0x40 DUP4 DUP6 SUB SLT ISZERO PUSH2 0x253F JUMPI PUSH1 0x0 DUP1 REVERT JUMPDEST PUSH2 0x2548 DUP4 PUSH2 0x2344 JUMP JUMPDEST SWAP2 POP PUSH2 0x246A PUSH1 0x20 DUP5 ADD PUSH2 0x2344 JUMP JUMPDEST PUSH1 0x0 DUP2 MLOAD DUP1 DUP5 MSTORE PUSH1 0x0 JUMPDEST DUP2 DUP2 LT ISZERO PUSH2 0x257C JUMPI PUSH1 0x20 DUP2 DUP6 ADD DUP2 ADD MLOAD DUP7 DUP4 ADD DUP3 ADD MSTORE ADD PUSH2 0x2560 JUMP JUMPDEST POP PUSH1 0x0 PUSH1 0x20 DUP3 DUP7 ADD ADD MSTORE PUSH1 0x20 PUSH1 0x1F NOT PUSH1 0x1F DUP4 ADD AND DUP6 ADD ADD SWAP2 POP POP SWAP3 SWAP2 POP POP JUMP JUMPDEST PUSH1 0x60 DUP2 MSTORE PUSH1 0x0 PUSH2 0x25AF PUSH1 0x60 DUP4 ADD DUP7 PUSH2 0x2556 JUMP JUMPDEST PUSH1 0x1 PUSH1 0x1 PUSH1 0xA0 SHL SUB SWAP5 SWAP1 SWAP5 AND PUSH1 0x20 DUP4 ADD MSTORE POP SWAP1 ISZERO ISZERO PUSH1 0x40 SWAP1 SWAP2 ADD MSTORE SWAP2 SWAP1 POP JUMP JUMPDEST PUSH4 0x4E487B71 PUSH1 0xE0 SHL PUSH1 0x0 MSTORE PUSH1 0x21 PUSH1 0x4 MSTORE PUSH1 0x24 PUSH1 0x0 REVERT JUMPDEST PUSH1 0xC0 DUP2 MSTORE PUSH1 0x0 PUSH2 0x25F8 PUSH1 0xC0 DUP4 ADD DUP10 PUSH2 0x2556 JUMP JUMPDEST PUSH1 0x1 PUSH1 0x1 PUSH1 0xA0 SHL SUB DUP9 AND PUSH1 0x20 DUP5 ADD MSTORE PUSH1 0x40 DUP4 ADD DUP8 SWAP1 MSTORE PUSH1 0x60 DUP4 ADD DUP7 SWAP1 MSTORE SWAP1 POP PUSH1 0x2 DUP5 LT PUSH2 0x2635 JUMPI PUSH4 0x4E487B71 PUSH1 0xE0 SHL PUSH1 0x0 MSTORE PUSH1 0x21 PUSH1 0x4 MSTORE PUSH1 0x24 PUSH1 0x0 REVERT JUMPDEST PUSH1 0x80 DUP3 ADD SWAP4 SWAP1 SWAP4 MSTORE PUSH1 0xA0 ADD MSTORE SWAP5 SWAP4 POP POP POP POP JUMP JUMPDEST PUSH1 0x0 DUP1 PUSH1 0x40 DUP4 DUP6 SUB SLT ISZERO PUSH2 0x265C JUMPI PUSH1 0x0 DUP1 REVERT JUMPDEST PUSH2 0x2665 DUP4 PUSH2 0x2344 JUMP JUMPDEST SWAP2 POP PUSH1 0x20 DUP4 ADD CALLDATALOAD DUP1 ISZERO ISZERO DUP2 EQ PUSH2 0x267A JUMPI PUSH1 0x0 DUP1 REVERT JUMPDEST DUP1 SWAP2 POP POP SWAP3 POP SWAP3 SWAP1 POP JUMP JUMPDEST DUP1 DUP3 MUL DUP2 ISZERO DUP3 DUP3 DIV DUP5 EQ OR PUSH2 0x1D1E JUMPI PUSH2 0x1D1E PUSH2 0x231B JUMP JUMPDEST PUSH1 0x0 DUP3 PUSH2 0x26B9 JUMPI PUSH4 0x4E487B71 PUSH1 0xE0 SHL PUSH1 0x0 MSTORE PUSH1 0x12 PUSH1 0x4 MSTORE PUSH1 0x24 PUSH1 0x0 REVERT JUMPDEST POP DIV SWAP1 JUMP JUMPDEST DUP2 DUP2 SUB DUP2 DUP2 GT ISZERO PUSH2 0x1D1E JUMPI PUSH2 0x1D1E PUSH2 0x231B JUMP JUMPDEST PUSH1 0x1 DUP2 DUP2 SHR SWAP1 DUP3 AND DUP1 PUSH2 0x26E5 JUMPI PUSH1 0x7F DUP3 AND SWAP2 POP JUMPDEST PUSH1 0x20 DUP3 LT DUP2 SUB PUSH2 0x2705 JUMPI PUSH4 0x4E487B71 PUSH1 0xE0 SHL PUSH1 0x0 MSTORE PUSH1 0x22 PUSH1 0x4 MSTORE PUSH1 0x24 PUSH1 0x0 REVERT JUMPDEST POP SWAP2 SWAP1 POP JUMP JUMPDEST PUSH1 0x1F DUP3 GT ISZERO PUSH2 0x2755 JUMPI PUSH1 0x0 DUP2 DUP2 MSTORE PUSH1 0x20 DUP2 KECCAK256 PUSH1 0x1F DUP6 ADD PUSH1 0x5 SHR DUP2 ADD PUSH1 0x20 DUP7 LT ISZERO PUSH2 0x2732 JUMPI POP DUP1 JUMPDEST PUSH1 0x1F DUP6 ADD PUSH1 0x5 SHR DUP3 ADD SWAP2 POP JUMPDEST DUP2 DUP2 LT ISZERO PUSH2 0x2751 JUMPI DUP3 DUP2 SSTORE PUSH1 0x1 ADD PUSH2 0x273E JUMP JUMPDEST POP POP POP JUMPDEST POP POP POP JUMP JUMPDEST DUP2 MLOAD PUSH8 0xFFFFFFFFFFFFFFFF DUP2 GT ISZERO PUSH2 0x2774 JUMPI PUSH2 0x2774 PUSH2 0x2382 JUMP JUMPDEST PUSH2 0x2788 DUP2 PUSH2 0x2782 DUP5 SLOAD PUSH2 0x26D1 JUMP JUMPDEST DUP5 PUSH2 0x270B JUMP JUMPDEST PUSH1 0x20 DUP1 PUSH1 0x1F DUP4 GT PUSH1 0x1 DUP2 EQ PUSH2 0x27BD JUMPI PUSH1 0x0 DUP5 ISZERO PUSH2 0x27A5 JUMPI POP DUP6 DUP4 ADD MLOAD JUMPDEST PUSH1 0x0 NOT PUSH1 0x3 DUP7 SWAP1 SHL SHR NOT AND PUSH1 0x1 DUP6 SWAP1 SHL OR DUP6 SSTORE PUSH2 0x2751 JUMP JUMPDEST PUSH1 0x0 DUP6 DUP2 MSTORE PUSH1 0x20 DUP2 KECCAK256 PUSH1 0x1F NOT DUP7 AND SWAP2 JUMPDEST DUP3 DUP2 LT ISZERO PUSH2 0x27EC JUMPI DUP9 DUP7 ADD MLOAD DUP3 SSTORE SWAP5 DUP5 ADD SWAP5 PUSH1 0x1 SWAP1 SWAP2 ADD SWAP1 DUP5 ADD PUSH2 0x27CD JUMP JUMPDEST POP DUP6 DUP3 LT ISZERO PUSH2 0x280A JUMPI DUP8 DUP6 ADD MLOAD PUSH1 0x0 NOT PUSH1 0x3 DUP9 SWAP1 SHL PUSH1 0xF8 AND SHR NOT AND DUP2 SSTORE JUMPDEST POP POP POP POP POP PUSH1 0x1 SWAP1 DUP2 SHL ADD SWAP1 SSTORE POP JUMP JUMPDEST PUSH4 0x4E487B71 PUSH1 0xE0 SHL PUSH1 0x0 MSTORE PUSH1 0x32 PUSH1 0x4 MSTORE PUSH1 0x24 PUSH1 0x0 REVERT JUMPDEST PUSH4 0x4E487B71 PUSH1 0xE0 SHL PUSH1 0x0 MSTORE PUSH1 0x31 PUSH1 0x4 MSTORE PUSH1 0x24 PUSH1 0x0 REVERT JUMPDEST PUSH1 0x0 PUSH1 0x1 DUP3 ADD PUSH2 0x2858 JUMPI PUSH2 0x2858 PUSH2 0x231B JUMP JUMPDEST POP PUSH1 0x1 ADD SWAP1 JUMP INVALID LOG2 PUSH5 0x6970667358 0x22 SLT KECCAK256 0xD4 0xEA OR 0xD5 0xC9 0xB1 SWAP16 DUP16 XOR 0xE3 0xDE PREVRANDAO 0xB5 SWAP14 LOG3 OR SELFBALANCE PUSH29 0xB067854FFA144B9D658E8131A2FE64736F6C6343000814003300000000 "},"methodIdentifiers":{"MAX_BENEFICIARIES()":"2348dd18","MAX_GUARDIANS()":"422c1d37","MIN_THRESHOLD()":"bd11c4c0","PLATFORM_FEE_BPS()":"539aa77f","PLATFORM_WALLET()":"eb8b12d4","REVIVE_GRACE_PERIOD()":"36c79d52","addBeneficiary(string,address,uint256,uint8,uint256)":"35f93867","addGuardian(string,address)":"20292859","beneficiaries(address,address)":"460e7398","beneficiaryLists(address,uint256)":"3a6708e2","claim(address)":"1e83409a","confirmInactivity(address)":"50b8c372","deposit()":"d0e30db0","getBeneficiaryAt(address,uint256)":"8b9676a7","getBeneficiaryCount(address)":"2423c7f3","getClaimableAmount(address,address)":"bb7dbfe7","getGuardianAt(address,uint256)":"7e6929ae","getGuardianCount(address)":"cb60ee24","getOwnerBalance(address)":"7fcf440a","getReviveStatus(address)":"e1a253d9","guardianLists(address,uint256)":"4036cec2","guardians(address,address)":"44813081","isOwner(address)":"2f54bf6e","ownerBalances(address)":"e3538bc1","protocols(address)":"26638a0a","proveLife()":"5bd61f23","register(uint256)":"f207564e","removeBeneficiary(address)":"59633a1c","removeGuardian(address)":"71404156","setGuardianFixed(address,bool)":"8c1334b2","updateInactivityThreshold(uint256)":"be3f2280","withdraw(uint256)":"2e1a7d4d"}}}}}