{"contracts/AfterLife.sol":{"AfterLife":{"abi":[{"inputs":[],"name":"AllocationExceeds100Percent","type":"error"},{"inputs":[],"name":"AlreadyDead","type":"error"},{"inputs":[],"name":"AlreadyRegistered","type":"error"},{"inputs":[],"name":"BeneficiaryExists","type":"error"},{"inputs":[],"name":"BeneficiaryNotFound","type":"error"},{"inputs":[],"name":"CannotBeSelf","type":"error"},{"inputs":[],"name":"EmptyString","type":"error"},{"inputs":[],"name":"FixedGuardian","type":"error"},{"inputs":[],"name":"GracePeriodExpired","type":"error"},{"inputs":[],"name":"GuardianExists","type":"error"},{"inputs":[],"name":"GuardianNotFound","type":"error"},{"inputs":[],"name":"IndexOutOfBounds","type":"error"},{"inputs":[],"name":"InsufficientBalance","type":"error"},{"inputs":[],"name":"NoReentrancy","type":"error"},{"inputs":[],"name":"NoValue","type":"error"},{"inputs":[],"name":"NotBeneficiary","type":"error"},{"inputs":[],"name":"NotGuardian","type":"error"},{"inputs":[],"name":"NotRegistered","type":"error"},{"inputs":[],"name":"NothingToClaim","type":"error"},{"inputs":[],"name":"OwnerStillActive","type":"error"},{"inputs":[],"name":"ProtocolActive","type":"error"},{"inputs":[],"name":"ProtocolDead","type":"error"},{"inputs":[],"name":"ThresholdTooShort","type":"error"},{"inputs":[],"name":"TooManyBeneficiaries","type":"error"},{"inputs":[],"name":"TooManyGuardians","type":"error"},{"inputs":[],"name":"VaultInsolvency","type":"error"},{"inputs":[],"name":"VestingNotStarted","type":"error"},{"inputs":[],"name":"ZeroAddress","type":"error"},{"inputs":[],"name":"ZeroAllocation","type":"error"},{"inputs":[],"name":"ZeroAmount","type":"error"},{"inputs":[],"name":"ZeroDuration","type":"error"},{"anonymous":false,"inputs":[{"indexed":true,"internalType":"address","name":"owner","type":"address"},{"indexed":true,"internalType":"address","name":"wallet","type":"address"},{"indexed":false,"internalType":"uint256","name":"allocation","type":"uint256"}],"name":"BeneficiaryAdded","type":"event"},{"anonymous":false,"inputs":[{"indexed":true,"internalType":"address","name":"owner","type":"address"},{"indexed":true,"internalType":"address","name":"wallet","type":"address"}],"name":"BeneficiaryRemoved","type":"event"},{"anonymous":false,"inputs":[{"indexed":true,"internalType":"address","name":"owner","type":"address"},{"indexed":true,"internalType":"address","name":"beneficiary","type":"address"},{"indexed":false,"internalType":"uint256","name":"amount","type":"uint256"}],"name":"FundsClaimed","type":"event"},{"anonymous":false,"inputs":[{"indexed":true,"internalType":"address","name":"owner","type":"address"},{"indexed":false,"internalType":"uint256","name":"amount","type":"uint256"}],"name":"FundsDeposited","type":"event"},{"anonymous":false,"inputs":[{"indexed":true,"internalType":"address","name":"owner","type":"address"},{"indexed":false,"internalType":"uint256","name":"amount","type":"uint256"}],"name":"FundsWithdrawn","type":"event"},{"anonymous":false,"inputs":[{"indexed":true,"internalType":"address","name":"owner","type":"address"},{"indexed":true,"internalType":"address","name":"wallet","type":"address"}],"name":"GuardianAdded","type":"event"},{"anonymous":false,"inputs":[{"indexed":true,"internalType":"address","name":"owner","type":"address"},{"indexed":true,"internalType":"address","name":"wallet","type":"address"},{"indexed":false,"internalType":"bool","name":"isFixed","type":"bool"}],"name":"GuardianFixedStatusChanged","type":"event"},{"anonymous":false,"inputs":[{"indexed":true,"internalType":"address","name":"owner","type":"address"},{"indexed":true,"internalType":"address","name":"wallet","type":"address"}],"name":"GuardianRemoved","type":"event"},{"anonymous":false,"inputs":[{"indexed":true,"internalType":"address","name":"owner","type":"address"},{"indexed":false,"internalType":"uint256","name":"timestamp","type":"uint256"}],"name":"InactivityConfirmed","type":"event"},{"anonymous":false,"inputs":[{"indexed":true,"internalType":"address","name":"owner","type":"address"},{"indexed":false,"internalType":"uint256","name":"threshold","type":"uint256"}],"name":"ProtocolRegistered","type":"event"},{"anonymous":false,"inputs":[{"indexed":true,"internalType":"address","name":"owner","type":"address"},{"indexed":false,"internalType":"uint256","name":"timestamp","type":"uint256"}],"name":"ProtocolRevived","type":"event"},{"anonymous":false,"inputs":[{"indexed":true,"internalType":"address","name":"owner","type":"address"},{"indexed":false,"internalType":"uint256","name":"timestamp","type":"uint256"}],"name":"Pulse","type":"event"},{"inputs":[],"name":"MAX_BENEFICIARIES","outputs":[{"internalType":"uint256","name":"","type":"uint256"}],"stateMutability":"view","type":"function"},{"inputs":[],"name":"MAX_GUARDIANS","outputs":[{"internalType":"uint256","name":"","type":"uint256"}],"stateMutability":"view","type":"function"},{"inputs":[],"name":"MIN_THRESHOLD","outputs":[{"internalType":"uint256","name":"","type":"uint256"}],"stateMutability":"view","type":"function"},{"inputs":[],"name":"REVIVE_GRACE_PERIOD","outputs":[{"internalType":"uint256","name":"","type":"uint256"}],"stateMutability":"view","type":"function"},{"inputs":[{"internalType":"string","name":"_name","type":"string"},{"internalType":"address","name":"_wallet","type":"address"},{"internalType":"uint256","name":"_allocationBps","type":"uint256"},{"internalType":"enum AfterLife.VestingType","name":"_vestingType","type":"uint8"},{"internalType":"uint256","name":"_duration","type":"uint256"}],"name":"addBeneficiary","outputs":[],"stateMutability":"nonpayable","type":"function"},{"inputs":[{"internalType":"string","name":"_name","type":"string"},{"internalType":"address","name":"_wallet","type":"address"}],"name":"addGuardian","outputs":[],"stateMutability":"nonpayable","type":"function"},{"inputs":[{"internalType":"address","name":"","type":"address"},{"internalType":"address","name":"","type":"address"}],"name":"beneficiaries","outputs":[{"internalType":"string","name":"name","type":"string"},{"internalType":"address","name":"wallet","type":"address"},{"internalType":"uint256","name":"allocation","type":"uint256"},{"internalType":"uint256","name":"amountClaimed","type":"uint256"},{"internalType":"enum AfterLife.VestingType","name":"vestingType","type":"uint8"},{"internalType":"uint256","name":"vestingDuration","type":"uint256"}],"stateMutability":"view","type":"function"},{"inputs":[{"internalType":"address","name":"","type":"address"},{"internalType":"uint256","name":"","type":"uint256"}],"name":"beneficiaryLists","outputs":[{"internalType":"address","name":"","type":"address"}],"stateMutability":"view","type":"function"},{"inputs":[{"internalType":"address","name":"_owner","type":"address"}],"name":"claim","outputs":[],"stateMutability":"nonpayable","type":"function"},{"inputs":[{"internalType":"address","name":"_owner","type":"address"}],"name":"confirmInactivity","outputs":[],"stateMutability":"nonpayable","type":"function"},{"inputs":[],"name":"deposit","outputs":[],"stateMutability":"payable","type":"function"},{"inputs":[{"internalType":"address","name":"_owner","type":"address"},{"internalType":"uint256","name":"_index","type":"uint256"}],"name":"getBeneficiaryAt","outputs":[{"internalType":"address","name":"","type":"address"}],"stateMutability":"view","type":"function"},{"inputs":[{"internalType":"address","name":"_owner","type":"address"}],"name":"getBeneficiaryCount","outputs":[{"internalType":"uint256","name":"","type":"uint256"}],"stateMutability":"view","type":"function"},{"inputs":[{"internalType":"address","name":"_owner","type":"address"},{"internalType":"address","name":"_beneficiary","type":"address"}],"name":"getClaimableAmount","outputs":[{"internalType":"uint256","name":"claimable","type":"uint256"},{"internalType":"uint256","name":"totalEntitlement","type":"uint256"},{"internalType":"uint256","name":"alreadyClaimed","type":"uint256"}],"stateMutability":"view","type":"function"},{"inputs":[{"internalType":"address","name":"_owner","type":"address"},{"internalType":"uint256","name":"_index","type":"uint256"}],"name":"getGuardianAt","outputs":[{"internalType":"address","name":"","type":"address"}],"stateMutability":"view","type":"function"},{"inputs":[{"internalType":"address","name":"_owner","type":"address"}],"name":"getGuardianCount","outputs":[{"internalType":"uint256","name":"","type":"uint256"}],"stateMutability":"view","type":"function"},{"inputs":[{"internalType":"address","name":"_owner","type":"address"}],"name":"getOwnerBalance","outputs":[{"internalType":"uint256","name":"","type":"uint256"}],"stateMutability":"view","type":"function"},{"inputs":[{"internalType":"address","name":"_owner","type":"address"}],"name":"getReviveStatus","outputs":[{"internalType":"bool","name":"canRevive","type":"bool"},{"internalType":"uint256","name":"timeRemaining","type":"uint256"}],"stateMutability":"view","type":"function"},{"inputs":[{"internalType":"address","name":"","type":"address"},{"internalType":"uint256","name":"","type":"uint256"}],"name":"guardianLists","outputs":[{"internalType":"address","name":"","type":"address"}],"stateMutability":"view","type":"function"},{"inputs":[{"internalType":"address","name":"","type":"address"},{"internalType":"address","name":"","type":"address"}],"name":"guardians","outputs":[{"internalType":"string","name":"name","type":"string"},{"internalType":"address","name":"wallet","type":"address"},{"internalType":"bool","name":"isFixed","type":"bool"}],"stateMutability":"view","type":"function"},{"inputs":[{"internalType":"address","name":"_addr","type":"address"}],"name":"isOwner","outputs":[{"internalType":"bool","name":"","type":"bool"}],"stateMutability":"view","type":"function"},{"inputs":[{"internalType":"address","name":"","type":"address"}],"name":"ownerBalances","outputs":[{"internalType":"uint256","name":"","type":"uint256"}],"stateMutability":"view","type":"function"},{"inputs":[{"internalType":"address","name":"","type":"address"}],"name":"protocols","outputs":[{"internalType":"bool","name":"isRegistered","type":"bool"},{"internalType":"uint256","name":"lastHeartbeat","type":"uint256"},{"internalType":"uint256","name":"inactivityThreshold","type":"uint256"},{"internalType":"bool","name":"isDead","type":"bool"},{"internalType":"uint256","name":"initialVaultBalance","type":"uint256"},{"internalType":"uint256","name":"vestingStartTime","type":"uint256"},{"internalType":"uint256","name":"totalAllocation","type":"uint256"},{"internalType":"uint256","name":"deathDeclarationTime","type":"uint256"}],"stateMutability":"view","type":"function"},{"inputs":[],"name":"proveLife","outputs":[],"stateMutability":"nonpayable","type":"function"},{"inputs":[{"internalType":"uint256","name":"_thresholdSeconds","type":"uint256"}],"name":"register","outputs":[],"stateMutability":"nonpayable","type":"function"},{"inputs":[{"internalType":"address","name":"_beneficiary","type":"address"}],"name":"removeBeneficiary","outputs":[],"stateMutability":"nonpayable","type":"function"},{"inputs":[{"internalType":"address","name":"_guardian","type":"address"}],"name":"removeGuardian","outputs":[],"stateMutability":"nonpayable","type":"function"},{"inputs":[{"internalType":"address","name":"_guardian","type":"address"},{"internalType":"bool","name":"_fixed","type":"bool"}],"name":"setGuardianFixed","outputs":[],"stateMutability":"nonpayable","type":"function"},{"inputs":[{"internalType":"uint256","name":"_newThreshold","type":"uint256"}],"name":"updateInactivityThreshold","outputs":[],"stateMutability":"nonpayable","type":"function"},{"inputs":[{"internalType":"uint256","name":"_amount","type":"uint256"}],"name":"withdraw","outputs":[],"stateMutability":"nonpayable","type":"function"},{"stateMutability":"payable","type":"receive"}],"evm":{"bytecode":{"linkReferences":{},"object":"608060405234801561001057600080fd5b50612727806100206000396000f3fe6080604052600436106101d15760003560e01c806359633a1c116100f7578063bb7dbfe711610095578063d0e30db011610064578063d0e30db0146106e8578063e1a253d9146106f0578063e3538bc114610727578063f207564e1461075457600080fd5b8063bb7dbfe714610642578063bd11c4c01461067d578063be3f228014610692578063cb60ee24146106b257600080fd5b80637e6929ae116100d15780637e6929ae146105ac5780637fcf440a146105cc5780638b9676a7146106025780638c1334b21461062257600080fd5b806359633a1c146105575780635bd61f2314610577578063714041561461058c57600080fd5b806335f938671161016f578063422c1d371161013e578063422c1d37146104c157806344813081146104d6578063460e73981461050557806350b8c3721461053757600080fd5b806335f938671461043257806336c79d52146104525780633a6708e2146104695780634036cec2146104a157600080fd5b80632423c7f3116101ab5780632423c7f3146102f157806326638a0a146103275780632e1a7d4d146103c95780632f54bf6e146103e957600080fd5b80631e83409a1461028757806320292859146102a95780632348dd18146102c957600080fd5b36610282573360009081526020819052604090205460ff166102065760405163aba4733960e01b815260040160405180910390fd5b346000036102275760405163f2365b5b60e01b815260040160405180910390fd5b33600090815260016020526040812080543492906102469084906121c3565b909155505060405134815233907f543ba50a5eec5e6178218e364b1d0f396157b3c8fa278522c2cb7fd99407d4749060200160405180910390a2005b600080fd5b34801561029357600080fd5b506102a76102a23660046121f2565b610774565b005b3480156102b557600080fd5b506102a76102c43660046122b7565b610ac4565b3480156102d557600080fd5b506102de601481565b6040519081526020015b60405180910390f35b3480156102fd57600080fd5b506102de61030c3660046121f2565b6001600160a01b031660009081526005602052604090205490565b34801561033357600080fd5b5061038c6103423660046121f2565b6000602081905290815260409020805460018201546002830154600384015460048501546005860154600687015460079097015460ff968716979596949593909416939192909188565b6040805198151589526020890197909752958701949094529115156060860152608085015260a084015260c083015260e0820152610100016102e8565b3480156103d557600080fd5b506102a76103e4366004612305565b610cbd565b3480156103f557600080fd5b506104226104043660046121f2565b6001600160a01b031660009081526020819052604090205460ff1690565b60405190151581526020016102e8565b34801561043e57600080fd5b506102a761044d36600461231e565b610e94565b34801561045e57600080fd5b506102de62093a8081565b34801561047557600080fd5b50610489610484366004612394565b611195565b6040516001600160a01b0390911681526020016102e8565b3480156104ad57600080fd5b506104896104bc366004612394565b6111cd565b3480156104cd57600080fd5b506102de600a81565b3480156104e257600080fd5b506104f66104f13660046123be565b6111e9565b6040516102e89392919061242e565b34801561051157600080fd5b506105256105203660046123be565b6112ae565b6040516102e896959493929190612477565b34801561054357600080fd5b506102a76105523660046121f2565b611384565b34801561056357600080fd5b506102a76105723660046121f2565b6114d6565b34801561058357600080fd5b506102a7611749565b34801561059857600080fd5b506102a76105a73660046121f2565b6118dc565b3480156105b857600080fd5b506104896105c7366004612394565b611b32565b3480156105d857600080fd5b506102de6105e73660046121f2565b6001600160a01b031660009081526001602052604090205490565b34801561060e57600080fd5b5061048961061d366004612394565b611bb2565b34801561062e57600080fd5b506102a761063d3660046124db565b611c14565b34801561064e57600080fd5b5061066261065d3660046123be565b611d0b565b604080519384526020840192909252908201526060016102e8565b34801561068957600080fd5b506102de603c81565b34801561069e57600080fd5b506102a76106ad366004612305565b611e7b565b3480156106be57600080fd5b506102de6106cd3660046121f2565b6001600160a01b031660009081526003602052604090205490565b6102a7611f11565b3480156106fc57600080fd5b5061071061070b3660046121f2565b611fbd565b6040805192151583526020830191909152016102e8565b34801561073357600080fd5b506102de6107423660046121f2565b60016020526000908152604090205481565b34801561076057600080fd5b506102a761076f366004612305565b612032565b60065460ff161561079857604051632c1ff44360e11b815260040160405180910390fd5b6006805460ff191660011790556001600160a01b0381166000908152602081905260409020600381015482919060ff166107e55760405163759d4e6160e11b815260040160405180910390fd5b806005015460000361080a576040516306aa937d60e31b815260040160405180910390fd5b6001600160a01b0380841660009081526004602090815260408083203380855292529091206001810154909216146108555760405163644d871f60e01b815260040160405180910390fd5b6001600160a01b0384166000908152602081905260408120600283015460048201549192916127109161088791612517565b610891919061252e565b90506000808360050154426108a69190612550565b90506001600486015460ff1660018111156108c3576108c3612461565b036108dc57846005015481106108d7578291505b61090b565b846005015481106108ef5782915061090b565b60058501546108fe8285612517565b610908919061252e565b91505b6000856003015483111561092b5760038601546109289084612550565b90505b8060000361094c576040516312d37ee560e31b815260040160405180910390fd5b6001600160a01b0389166000908152600160205260409020548111156109855760405163a908d3d960e01b815260040160405180910390fd5b8086600301600082825461099991906121c3565b90915550506001600160a01b038916600090815260016020526040812080548392906109c6908490612550565b909155505060018601546040516000916001600160a01b03169083908381818185875af1925050503d8060008114610a1a576040519150601f19603f3d011682016040523d82523d6000602084013e610a1f565b606091505b5050905080610a675760405162461bcd60e51b815260206004820152600f60248201526e151c985b9cd9995c8819985a5b1959608a1b60448201526064015b60405180910390fd5b60018701546040518381526001600160a01b03918216918c16907f716942921e9b67ee05c4c2ffcf216f189086c9053b444c8928a49db4bdb1ae8e9060200160405180910390a350506006805460ff191690555050505050505050565b3360009081526020819052604090205460ff16610af45760405163aba4733960e01b815260040160405180910390fd5b806001600160a01b038116610b1c5760405163d92e233d60e01b815260040160405180910390fd5b828051600003610b3f5760405163ecd7b0d160e01b815260040160405180910390fd5b3360009081526002602090815260408083206001600160a01b0387811685529252909120600101541615610b8657604051633581763360e01b815260040160405180910390fd5b33600090815260036020526040902054600a11610bb657604051639308529b60e01b815260040160405180910390fd5b336001600160a01b03841603610bdf5760405163265079bd60e21b815260040160405180910390fd5b604080516060810182528581526001600160a01b03851660208083018290526000838501819052338152600282528481209281529190529190912081518190610c2890826125ec565b50602082810151600192830180546040958601511515600160a01b026001600160a81b03199091166001600160a01b03938416171790553360008181526003845285812080549586018155815292832090930180549188166001600160a01b0319929092168217905592517fbc3292102fa77e083913064b282926717cdfaede4d35f553d66366c0a3da755a9190a350505050565b3360009081526020819052604090205460ff16610ced5760405163aba4733960e01b815260040160405180910390fd5b60065460ff1615610d1157604051632c1ff44360e11b815260040160405180910390fd5b6006805460ff191660011790553360009081526020819052604090206003015460ff1615610d52576040516352e39c5b60e11b815260040160405180910390fd5b80600003610d7357604051631f2a200560e01b815260040160405180910390fd5b33600090815260016020526040902054811115610da357604051631e9acf1760e31b815260040160405180910390fd5b3360009081526001602052604081208054839290610dc2908490612550565b9091555050604051600090339083908381818185875af1925050503d8060008114610e09576040519150601f19603f3d011682016040523d82523d6000602084013e610e0e565b606091505b5050905080610e515760405162461bcd60e51b815260206004820152600f60248201526e151c985b9cd9995c8819985a5b1959608a1b6044820152606401610a5e565b60405182815233907feaff4b37086828766ad3268786972c0cd24259d4c87a80f9d3963a3c3d999b0d9060200160405180910390a250506006805460ff19169055565b3360009081526020819052604090205460ff16610ec45760405163aba4733960e01b815260040160405180910390fd5b836001600160a01b038116610eec5760405163d92e233d60e01b815260040160405180910390fd5b858051600003610f0f5760405163ecd7b0d160e01b815260040160405180910390fd5b3360009081526004602090815260408083206001600160a01b038a811685529252909120600101541615610f5657604051637ffebe8360e01b815260040160405180910390fd5b33600090815260056020526040902054601411610f865760405163dd34c16560e01b815260040160405180910390fd5b84600003610fa75760405163ba0d87b560e01b815260040160405180910390fd5b3360009081526020819052604090206006015461271090610fc99087906121c3565b1115610fe85760405163f1b7a5d160e01b815260040160405180910390fd5b826000036110095760405163346ab43760e11b815260040160405180910390fd5b6040518060c00160405280888152602001876001600160a01b031681526020018681526020016000815260200185600181111561104857611048612461565b815260209081018590523360009081526004825260408082206001600160a01b038b168352909252208151819061107f90826125ec565b506020820151600182810180546001600160a01b0319166001600160a01b0390931692909217909155604083015160028301556060830151600383015560808301516004830180549192909160ff19169083818111156110e1576110e1612461565b021790555060a091909101516005918201553360008181526020928352604080822080546001810182559083528483200180546001600160a01b0319166001600160a01b038c1617905591815291829052812060060180548792906111479084906121c3565b90915550506040518581526001600160a01b0387169033907f5d081d791b64899adab031015397ef8d7600501212ef97573b9e50f8c9bb6d9b9060200160405180910390a350505050505050565b600560205281600052604060002081815481106111b157600080fd5b6000918252602090912001546001600160a01b03169150829050565b600360205281600052604060002081815481106111b157600080fd5b600260209081526000928352604080842090915290825290208054819061120f90612563565b80601f016020809104026020016040519081016040528092919081815260200182805461123b90612563565b80156112885780601f1061125d57610100808354040283529160200191611288565b820191906000526020600020905b81548152906001019060200180831161126b57829003601f168201915b505050600190930154919250506001600160a01b0381169060ff600160a01b9091041683565b60046020908152600092835260408084209091529082529020805481906112d490612563565b80601f016020809104026020016040519081016040528092919081815260200182805461130090612563565b801561134d5780601f106113225761010080835404028352916020019161134d565b820191906000526020600020905b81548152906001019060200180831161133057829003601f168201915b50505050600183015460028401546003850154600486015460059096015494956001600160a01b03909316949193509160ff169086565b6001600160a01b0380821660009081526002602090815260408083203384529091529020600101548291166113cc576040516377b6878160e11b815260040160405180910390fd5b6001600160a01b0382166000908152602081905260409020805460ff166114065760405163aba4733960e01b815260040160405180910390fd5b600381015460ff161561142c57604051637281d96b60e11b815260040160405180910390fd5b8060020154816001015461144091906121c3565b421161145f576040516305ffd62b60e11b815260040160405180910390fd5b60038101805460ff191660019081179091554260058301819055600783018190556001600160a01b0385166000818152602093845260409081902054600486015551918252917f79a18691d9845d93f3a7276c16d1737e190da43060fa3fb2049f02dbf50a3d9a91015b60405180910390a2505050565b3360009081526020819052604090205460ff166115065760405163aba4733960e01b815260040160405180910390fd5b3360009081526004602090815260408083206001600160a01b0385811685529252909120600101541661154c5760405163694f351f60e01b815260040160405180910390fd5b3360008181526004602090815260408083206001600160a01b0386168452825280832060020154938352908290528120600601805483929061158f908490612550565b90915550503360009081526004602090815260408083206001600160a01b03861684529091528120906115c28282612157565b506001810180546001600160a01b03191690556000600282018190556003820181905560048201805460ff19169055600591820181905533815260209190915260408120805490915b8181101561170c57846001600160a01b031683828154811061162f5761162f6126ac565b6000918252602090912001546001600160a01b0316036116fa5782611655600184612550565b81548110611665576116656126ac565b9060005260206000200160009054906101000a90046001600160a01b0316838281548110611695576116956126ac565b9060005260206000200160006101000a8154816001600160a01b0302191690836001600160a01b03160217905550828054806116d3576116d36126c2565b600082815260209020810160001990810180546001600160a01b031916905501905561170c565b80611704816126d8565b91505061160b565b506040516001600160a01b0385169033907f1a6590bd0cabbfcc7c86bef99e1034054e179905cfcc294598fcd426c092244290600090a350505050565b3360009081526020819052604090205460ff166117795760405163aba4733960e01b815260040160405180910390fd5b336000908152602081905260409020600381015460ff161561189b5762093a8081600701546117a891906121c3565b4211156117c857604051634b3c322760e11b815260040160405180910390fd5b60038101805460ff1916905560006005808301829055600483018290556007830182905542600184015533825260205260408120805490915b81811015611868573360009081526004602052604081208454829086908590811061182e5761182e6126ac565b60009182526020808320909101546001600160a01b0316835282019290925260400190206003015580611860816126d8565b915050611801565b5060405142815233907f5178649125cff20230f3d21b86a7386e3924b30d642eea1f977a6668fab8344c906020016114c9565b426001820181905560405190815233907fdcefc94f16bf43dea53b136be3c49b2418f70b051a322b89f92f7739d65548ea906020015b60405180910390a250565b3360009081526020819052604090205460ff1661190c5760405163aba4733960e01b815260040160405180910390fd5b3360009081526002602090815260408083206001600160a01b03858116855292529091206001015416611952576040516337c5c3a360e21b815260040160405180910390fd5b3360009081526002602090815260408083206001600160a01b0385168452909152902060010154600160a01b900460ff16156119a15760405163051c65db60e01b815260040160405180910390fd5b3360009081526002602090815260408083206001600160a01b03851684529091528120906119cf8282612157565b5060010180546001600160a81b0319169055336000908152600360205260408120805490915b81811015611af657836001600160a01b0316838281548110611a1957611a196126ac565b6000918252602090912001546001600160a01b031603611ae45782611a3f600184612550565b81548110611a4f57611a4f6126ac565b9060005260206000200160009054906101000a90046001600160a01b0316838281548110611a7f57611a7f6126ac565b9060005260206000200160006101000a8154816001600160a01b0302191690836001600160a01b0316021790555082805480611abd57611abd6126c2565b600082815260209020810160001990810180546001600160a01b0319169055019055611af6565b80611aee816126d8565b9150506119f5565b506040516001600160a01b0384169033907fee943cdb81826d5909c559c6b1ae6908fcaf2dbc16c4b730346736b486283e8b90600090a3505050565b6001600160a01b0382166000908152600360205260408120548210611b6a57604051634e23d03560e01b815260040160405180910390fd5b6001600160a01b0383166000908152600360205260409020805483908110611b9457611b946126ac565b6000918252602090912001546001600160a01b031690505b92915050565b6001600160a01b0382166000908152600560205260408120548210611bea57604051634e23d03560e01b815260040160405180910390fd5b6001600160a01b0383166000908152600560205260409020805483908110611b9457611b946126ac565b3360009081526020819052604090205460ff16611c445760405163aba4733960e01b815260040160405180910390fd5b3360009081526002602090815260408083206001600160a01b03868116855292529091206001015416611c8a576040516337c5c3a360e21b815260040160405180910390fd5b3360008181526002602090815260408083206001600160a01b0387168085529252918290206001018054851515600160a01b0260ff60a01b1990911617905590519091907fea39c92a08a5c775f8b77f8813f0c227d5ae58f04e182b81b62d37a24107484f90611cff90851515815260200190565b60405180910390a35050565b6001600160a01b0380831660009081526020818152604080832060048352818420948616845293909152812060038301549192839283929060ff16611d635760405163759d4e6160e11b815260040160405180910390fd5b60018101546001600160a01b0316611d8e5760405163644d871f60e01b815260040160405180910390fd5b62093a808260070154611da191906121c3565b4211611db95760008060009450945094505050611e74565b61271081600201548360040154611dd09190612517565b611dda919061252e565b9350806003015492506000826005015442611df59190612550565b905060006001600484015460ff166001811115611e1457611e14612461565b03611e2c5782600501548210611e275750845b611e5a565b82600501548210611e3e575084611e5a565b6005830154611e4d8388612517565b611e57919061252e565b90505b84811115611e6f57611e6c8582612550565b96505b505050505b9250925092565b3360009081526020819052604090205460ff16611eab5760405163aba4733960e01b815260040160405180910390fd5b603c811015611ecd576040516358c277e760e01b815260040160405180910390fd5b336000818152602081815260409182902060020184905590518381527fa4d780a276eb469a8a23984707d159b7887c3f1d43e2cc22a91cea75faea9ec391016118d1565b3360009081526020819052604090205460ff16611f415760405163aba4733960e01b815260040160405180910390fd5b34600003611f625760405163f2365b5b60e01b815260040160405180910390fd5b3360009081526001602052604081208054349290611f819084906121c3565b909155505060405134815233907f543ba50a5eec5e6178218e364b1d0f396157b3c8fa278522c2cb7fd99407d4749060200160405180910390a2565b6001600160a01b0381166000908152602081905260408120600381015482919060ff16611ff05750600093849350915050565b600062093a80826007015461200591906121c3565b905080421061201b575060009485945092505050565b60016120274283612550565b935093505050915091565b3360009081526020819052604090205460ff161561206357604051630ea075bf60e21b815260040160405180910390fd5b603c811015612085576040516358c277e760e01b815260040160405180910390fd5b604080516101008101825260018082524260208084019182528385018681526000606086018181526080870182815260a0880183815260c0890184815260e08a018581523380875297869052948b902099518a5490151560ff19918216178b559751988a0198909855935160028901559051600388018054911515919096161790945592516004860155516005850155915160068401555160079092019190915590517fa4d780a276eb469a8a23984707d159b7887c3f1d43e2cc22a91cea75faea9ec3906118d19084815260200190565b50805461216390612563565b6000825580601f10612173575050565b601f0160209004906000526020600020908101906121919190612194565b50565b5b808211156121a95760008155600101612195565b5090565b634e487b7160e01b600052601160045260246000fd5b80820180821115611bac57611bac6121ad565b80356001600160a01b03811681146121ed57600080fd5b919050565b60006020828403121561220457600080fd5b61220d826121d6565b9392505050565b634e487b7160e01b600052604160045260246000fd5b600082601f83011261223b57600080fd5b813567ffffffffffffffff8082111561225657612256612214565b604051601f8301601f19908116603f0116810190828211818310171561227e5761227e612214565b8160405283815286602085880101111561229757600080fd5b836020870160208301376000602085830101528094505050505092915050565b600080604083850312156122ca57600080fd5b823567ffffffffffffffff8111156122e157600080fd5b6122ed8582860161222a565b9250506122fc602084016121d6565b90509250929050565b60006020828403121561231757600080fd5b5035919050565b600080600080600060a0868803121561233657600080fd5b853567ffffffffffffffff81111561234d57600080fd5b6123598882890161222a565b955050612368602087016121d6565b93506040860135925060608601356002811061238357600080fd5b949793965091946080013592915050565b600080604083850312156123a757600080fd5b6123b0836121d6565b946020939093013593505050565b600080604083850312156123d157600080fd5b6123da836121d6565b91506122fc602084016121d6565b6000815180845260005b8181101561240e576020818501810151868301820152016123f2565b506000602082860101526020601f19601f83011685010191505092915050565b60608152600061244160608301866123e8565b6001600160a01b0394909416602083015250901515604090910152919050565b634e487b7160e01b600052602160045260246000fd5b60c08152600061248a60c08301896123e8565b6001600160a01b038816602084015260408301879052606083018690529050600284106124c757634e487b7160e01b600052602160045260246000fd5b608082019390935260a00152949350505050565b600080604083850312156124ee57600080fd5b6124f7836121d6565b91506020830135801515811461250c57600080fd5b809150509250929050565b8082028115828204841417611bac57611bac6121ad565b60008261254b57634e487b7160e01b600052601260045260246000fd5b500490565b81810381811115611bac57611bac6121ad565b600181811c9082168061257757607f821691505b60208210810361259757634e487b7160e01b600052602260045260246000fd5b50919050565b601f8211156125e757600081815260208120601f850160051c810160208610156125c45750805b601f850160051c820191505b818110156125e3578281556001016125d0565b5050505b505050565b815167ffffffffffffffff81111561260657612606612214565b61261a816126148454612563565b8461259d565b602080601f83116001811461264f57600084156126375750858301515b600019600386901b1c1916600185901b1785556125e3565b600085815260208120601f198616915b8281101561267e5788860151825594840194600190910190840161265f565b508582101561269c5787850151600019600388901b60f8161c191681555b5050505050600190811b01905550565b634e487b7160e01b600052603260045260246000fd5b634e487b7160e01b600052603160045260246000fd5b6000600182016126ea576126ea6121ad565b506001019056fea26469706673582212200ef65950d1cbd58a4da463427a0874ad54e3cca95c7460ce9186f988ff22a11164736f6c63430008140033","opcodes":"PUSH1 0x80 PUSH1 0x40 MSTORE CALLVALUE DUP1 ISZERO PUSH2 0x10 JUMPI PUSH1 0x0 DUP1 REVERT JUMPDEST POP PUSH2 0x2727 DUP1 PUSH2 0x20 PUSH1 0x0 CODECOPY PUSH1 0x0 RETURN INVALID PUSH1 0x80 PUSH1 0x40 MSTORE PUSH1 0x4 CALLDATASIZE LT PUSH2 0x1D1 JUMPI PUSH1 0x0 CALLDATALOAD PUSH1 0xE0 SHR DUP1 PUSH4 0x59633A1C GT PUSH2 0xF7 JUMPI DUP1 PUSH4 0xBB7DBFE7 GT PUSH2 0x95 JUMPI DUP1 PUSH4 0xD0E30DB0 GT PUSH2 0x64 JUMPI DUP1 PUSH4 0xD0E30DB0 EQ PUSH2 0x6E8 JUMPI DUP1 PUSH4 0xE1A253D9 EQ PUSH2 0x6F0 JUMPI DUP1 PUSH4 0xE3538BC1 EQ PUSH2 0x727 JUMPI DUP1 PUSH4 0xF207564E EQ PUSH2 0x754 JUMPI PUSH1 0x0 DUP1 REVERT JUMPDEST DUP1 PUSH4 0xBB7DBFE7 EQ PUSH2 0x642 JUMPI DUP1 PUSH4 0xBD11C4C0 EQ PUSH2 0x67D JUMPI DUP1 PUSH4 0xBE3F2280 EQ PUSH2 0x692 JUMPI DUP1 PUSH4 0xCB60EE24 EQ PUSH2 0x6B2 JUMPI PUSH1 0x0 DUP1 REVERT JUMPDEST DUP1 PUSH4 0x7E6929AE GT PUSH2 0xD1 JUMPI DUP1 PUSH4 0x7E6929AE EQ PUSH2 0x5AC JUMPI DUP1 PUSH4 0x7FCF440A EQ PUSH2 0x5CC JUMPI DUP1 PUSH4 0x8B9676A7 EQ PUSH2 0x602 JUMPI DUP1 PUSH4 0x8C1334B2 EQ PUSH2 0x622 JUMPI PUSH1 0x0 DUP1 REVERT JUMPDEST DUP1 PUSH4 0x59633A1C EQ PUSH2 0x557 JUMPI DUP1 PUSH4 0x5BD61F23 EQ PUSH2 0x577 JUMPI DUP1 PUSH4 0x71404156 EQ PUSH2 0x58C JUMPI PUSH1 0x0 DUP1 REVERT JUMPDEST DUP1 PUSH4 0x35F93867 GT PUSH2 0x16F JUMPI DUP1 PUSH4 0x422C1D37 GT PUSH2 0x13E JUMPI DUP1 PUSH4 0x422C1D37 EQ PUSH2 0x4C1 JUMPI DUP1 PUSH4 0x44813081 EQ PUSH2 0x4D6 JUMPI DUP1 PUSH4 0x460E7398 EQ PUSH2 0x505 JUMPI DUP1 PUSH4 0x50B8C372 EQ PUSH2 0x537 JUMPI PUSH1 0x0 DUP1 REVERT JUMPDEST DUP1 PUSH4 0x35F93867 EQ PUSH2 0x432 JUMPI DUP1 PUSH4 0x36C79D52 EQ PUSH2 0x452 JUMPI DUP1 PUSH4 0x3A6708E2 EQ PUSH2 0x469 JUMPI DUP1 PUSH4 0x4036CEC2 EQ PUSH2 0x4A1 JUMPI PUSH1 0x0 DUP1 REVERT JUMPDEST DUP1 PUSH4 0x2423C7F3 GT PUSH2 0x1AB JUMPI DUP1 PUSH4 0x2423C7F3 EQ PUSH2 0x2F1 JUMPI DUP1 PUSH4 0x26638A0A EQ PUSH2 0x327 JUMPI DUP1 PUSH4 0x2E1A7D4D EQ PUSH2 0x3C9 JUMPI DUP1 PUSH4 0x2F54BF6E EQ PUSH2 0x3E9 JUMPI PUSH1 0x0 DUP1 REVERT JUMPDEST DUP1 PUSH4 0x1E83409A EQ PUSH2 0x287 JUMPI DUP1 PUSH4 0x20292859 EQ PUSH2 0x2A9 JUMPI DUP1 PUSH4 0x2348DD18 EQ PUSH2 0x2C9 JUMPI PUSH1 0x0 DUP1 REVERT JUMPDEST CALLDATASIZE PUSH2 0x282 JUMPI CALLER PUSH1 0x0 SWAP1 DUP2 MSTORE PUSH1 0x20 DUP2 SWAP1 MSTORE PUSH1 0x40 SWAP1 KECCAK256 SLOAD PUSH1 0xFF AND PUSH2 0x206 JUMPI PUSH1 0x40 MLOAD PUSH4 0xABA47339 PUSH1 0xE0 SHL DUP2 MSTORE PUSH1 0x4 ADD PUSH1 0x40 MLOAD DUP1 SWAP2 SUB SWAP1 REVERT JUMPDEST CALLVALUE PUSH1 0x0 SUB PUSH2 0x227 JUMPI PUSH1 0x40 MLOAD PUSH4 0xF2365B5B PUSH1 0xE0 SHL DUP2 MSTORE PUSH1 0x4 ADD PUSH1 0x40 MLOAD DUP1 SWAP2 SUB SWAP1 REVERT JUMPDEST CALLER PUSH1 0x0 SWAP1 DUP2 MSTORE PUSH1 0x1 PUSH1 0x20 MSTORE PUSH1 0x40 DUP2 KECCAK256 DUP1 SLOAD CALLVALUE SWAP3 SWAP1 PUSH2 0x246 SWAP1 DUP5 SWAP1 PUSH2 0x21C3 JUMP JUMPDEST SWAP1 SWAP2 SSTORE POP POP PUSH1 0x40 MLOAD CALLVALUE DUP2 MSTORE CALLER SWAP1 PUSH32 0x543BA50A5EEC5E6178218E364B1D0F396157B3C8FA278522C2CB7FD99407D474 SWAP1 PUSH1 0x20 ADD PUSH1 0x40 MLOAD DUP1 SWAP2 SUB SWAP1 LOG2 STOP JUMPDEST PUSH1 0x0 DUP1 REVERT JUMPDEST CALLVALUE DUP1 ISZERO PUSH2 0x293 JUMPI PUSH1 0x0 DUP1 REVERT JUMPDEST POP PUSH2 0x2A7 PUSH2 0x2A2 CALLDATASIZE PUSH1 0x4 PUSH2 0x21F2 JUMP JUMPDEST PUSH2 0x774 JUMP JUMPDEST STOP JUMPDEST CALLVALUE DUP1 ISZERO PUSH2 0x2B5 JUMPI PUSH1 0x0 DUP1 REVERT JUMPDEST POP PUSH2 0x2A7 PUSH2 0x2C4 CALLDATASIZE PUSH1 0x4 PUSH2 0x22B7 JUMP JUMPDEST PUSH2 0xAC4 JUMP JUMPDEST CALLVALUE DUP1 ISZERO PUSH2 0x2D5 JUMPI PUSH1 0x0 DUP1 REVERT JUMPDEST POP PUSH2 0x2DE PUSH1 0x14 DUP2 JUMP JUMPDEST PUSH1 0x40 MLOAD SWAP1 DUP2 MSTORE PUSH1 0x20 ADD JUMPDEST PUSH1 0x40 MLOAD DUP1 SWAP2 SUB SWAP1 RETURN JUMPDEST CALLVALUE DUP1 ISZERO PUSH2 0x2FD JUMPI PUSH1 0x0 DUP1 REVERT JUMPDEST POP PUSH2 0x2DE PUSH2 0x30C CALLDATASIZE PUSH1 0x4 PUSH2 0x21F2 JUMP JUMPDEST PUSH1 0x1 PUSH1 0x1 PUSH1 0xA0 SHL SUB AND PUSH1 0x0 SWAP1 DUP2 MSTORE PUSH1 0x5 PUSH1 0x20 MSTORE PUSH1 0x40 SWAP1 KECCAK256 SLOAD SWAP1 JUMP JUMPDEST CALLVALUE DUP1 ISZERO PUSH2 0x333 JUMPI PUSH1 0x0 DUP1 REVERT JUMPDEST POP PUSH2 0x38C PUSH2 0x342 CALLDATASIZE PUSH1 0x4 PUSH2 0x21F2 JUMP JUMPDEST PUSH1 0x0 PUSH1 0x20 DUP2 SWAP1 MSTORE SWAP1 DUP2 MSTORE PUSH1 0x40 SWAP1 KECCAK256 DUP1 SLOAD PUSH1 0x1 DUP3 ADD SLOAD PUSH1 0x2 DUP4 ADD SLOAD PUSH1 0x3 DUP5 ADD SLOAD PUSH1 0x4 DUP6 ADD SLOAD PUSH1 0x5 DUP7 ADD SLOAD PUSH1 0x6 DUP8 ADD SLOAD PUSH1 0x7 SWAP1 SWAP8 ADD SLOAD PUSH1 0xFF SWAP7 DUP8 AND SWAP8 SWAP6 SWAP7 SWAP5 SWAP6 SWAP4 SWAP1 SWAP5 AND SWAP4 SWAP2 SWAP3 SWAP1 SWAP2 DUP9 JUMP JUMPDEST PUSH1 0x40 DUP1 MLOAD SWAP9 ISZERO ISZERO DUP10 MSTORE PUSH1 0x20 DUP10 ADD SWAP8 SWAP1 SWAP8 MSTORE SWAP6 DUP8 ADD SWAP5 SWAP1 SWAP5 MSTORE SWAP2 ISZERO ISZERO PUSH1 0x60 DUP7 ADD MSTORE PUSH1 0x80 DUP6 ADD MSTORE PUSH1 0xA0 DUP5 ADD MSTORE PUSH1 0xC0 DUP4 ADD MSTORE PUSH1 0xE0 DUP3 ADD MSTORE PUSH2 0x100 ADD PUSH2 0x2E8 JUMP JUMPDEST CALLVALUE DUP1 ISZERO PUSH2 0x3D5 JUMPI PUSH1 0x0 DUP1 REVERT JUMPDEST POP PUSH2 0x2A7 PUSH2 0x3E4 CALLDATASIZE PUSH1 0x4 PUSH2 0x2305 JUMP JUMPDEST PUSH2 0xCBD JUMP JUMPDEST CALLVALUE DUP1 ISZERO PUSH2 0x3F5 JUMPI PUSH1 0x0 DUP1 REVERT JUMPDEST POP PUSH2 0x422 PUSH2 0x404 CALLDATASIZE PUSH1 0x4 PUSH2 0x21F2 JUMP JUMPDEST PUSH1 0x1 PUSH1 0x1 PUSH1 0xA0 SHL SUB AND PUSH1 0x0 SWAP1 DUP2 MSTORE PUSH1 0x20 DUP2 SWAP1 MSTORE PUSH1 0x40 SWAP1 KECCAK256 SLOAD PUSH1 0xFF AND SWAP1 JUMP JUMPDEST PUSH1 0x40 MLOAD SWAP1 ISZERO ISZERO DUP2 MSTORE PUSH1 0x20 ADD PUSH2 0x2E8 JUMP JUMPDEST CALLVALUE DUP1 ISZERO PUSH2 0x43E JUMPI PUSH1 0x0 DUP1 REVERT JUMPDEST POP PUSH2 0x2A7 PUSH2 0x44D CALLDATASIZE PUSH1 0x4 PUSH2 0x231E JUMP JUMPDEST PUSH2 0xE94 JUMP JUMPDEST CALLVALUE DUP1 ISZERO PUSH2 0x45E JUMPI PUSH1 0x0 DUP1 REVERT JUMPDEST POP PUSH2 0x2DE PUSH3 0x93A80 DUP2 JUMP JUMPDEST CALLVALUE DUP1 ISZERO PUSH2 0x475 JUMPI PUSH1 0x0 DUP1 REVERT JUMPDEST POP PUSH2 0x489 PUSH2 0x484 CALLDATASIZE PUSH1 0x4 PUSH2 0x2394 JUMP JUMPDEST PUSH2 0x1195 JUMP JUMPDEST PUSH1 0x40 MLOAD PUSH1 0x1 PUSH1 0x1 PUSH1 0xA0 SHL SUB SWAP1 SWAP2 AND DUP2 MSTORE PUSH1 0x20 ADD PUSH2 0x2E8 JUMP JUMPDEST CALLVALUE DUP1 ISZERO PUSH2 0x4AD JUMPI PUSH1 0x0 DUP1 REVERT JUMPDEST POP PUSH2 0x489 PUSH2 0x4BC CALLDATASIZE PUSH1 0x4 PUSH2 0x2394 JUMP JUMPDEST PUSH2 0x11CD JUMP JUMPDEST CALLVALUE DUP1 ISZERO PUSH2 0x4CD JUMPI PUSH1 0x0 DUP1 REVERT JUMPDEST POP PUSH2 0x2DE PUSH1 0xA DUP2 JUMP JUMPDEST CALLVALUE DUP1 ISZERO PUSH2 0x4E2 JUMPI PUSH1 0x0 DUP1 REVERT JUMPDEST POP PUSH2 0x4F6 PUSH2 0x4F1 CALLDATASIZE PUSH1 0x4 PUSH2 0x23BE JUMP JUMPDEST PUSH2 0x11E9 JUMP JUMPDEST PUSH1 0x40 MLOAD PUSH2 0x2E8 SWAP4 SWAP3 SWAP2 SWAP1 PUSH2 0x242E JUMP JUMPDEST CALLVALUE DUP1 ISZERO PUSH2 0x511 JUMPI PUSH1 0x0 DUP1 REVERT JUMPDEST POP PUSH2 0x525 PUSH2 0x520 CALLDATASIZE PUSH1 0x4 PUSH2 0x23BE JUMP JUMPDEST PUSH2 0x12AE JUMP JUMPDEST PUSH1 0x40 MLOAD PUSH2 0x2E8 SWAP7 SWAP6 SWAP5 SWAP4 SWAP3 SWAP2 SWAP1 PUSH2 0x2477 JUMP JUMPDEST CALLVALUE DUP1 ISZERO PUSH2 0x543 JUMPI PUSH1 0x0 DUP1 REVERT JUMPDEST POP PUSH2 0x2A7 PUSH2 0x552 CALLDATASIZE PUSH1 0x4 PUSH2 0x21F2 JUMP JUMPDEST PUSH2 0x1384 JUMP JUMPDEST CALLVALUE DUP1 ISZERO PUSH2 0x563 JUMPI PUSH1 0x0 DUP1 REVERT JUMPDEST POP PUSH2 0x2A7 PUSH2 0x572 CALLDATASIZE PUSH1 0x4 PUSH2 0x21F2 JUMP JUMPDEST PUSH2 0x14D6 JUMP JUMPDEST CALLVALUE DUP1 ISZERO PUSH2 0x583 JUMPI PUSH1 0x0 DUP1 REVERT JUMPDEST POP PUSH2 0x2A7 PUSH2 0x1749 JUMP JUMPDEST CALLVALUE DUP1 ISZERO PUSH2 0x598 JUMPI PUSH1 0x0 DUP1 REVERT JUMPDEST POP PUSH2 0x2A7 PUSH2 0x5A7 CALLDATASIZE PUSH1 0x4 PUSH2 0x21F2 JUMP JUMPDEST PUSH2 0x18DC JUMP JUMPDEST CALLVALUE DUP1 ISZERO PUSH2 0x5B8 JUMPI PUSH1 0x0 DUP1 REVERT JUMPDEST POP PUSH2 0x489 PUSH2 0x5C7 CALLDATASIZE PUSH1 0x4 PUSH2 0x2394 JUMP JUMPDEST PUSH2 0x1B32 JUMP JUMPDEST CALLVALUE DUP1 ISZERO PUSH2 0x5D8 JUMPI PUSH1 0x0 DUP1 REVERT JUMPDEST POP PUSH2 0x2DE PUSH2 0x5E7 CALLDATASIZE PUSH1 0x4 PUSH2 0x21F2 JUMP JUMPDEST PUSH1 0x1 PUSH1 0x1 PUSH1 0xA0 SHL SUB AND PUSH1 0x0 SWAP1 DUP2 MSTORE PUSH1 0x1 PUSH1 0x20 MSTORE PUSH1 0x40 SWAP1 KECCAK256 SLOAD SWAP1 JUMP JUMPDEST CALLVALUE DUP1 ISZERO PUSH2 0x60E JUMPI PUSH1 0x0 DUP1 REVERT JUMPDEST POP PUSH2 0x489 PUSH2 0x61D CALLDATASIZE PUSH1 0x4 PUSH2 0x2394 JUMP JUMPDEST PUSH2 0x1BB2 JUMP JUMPDEST CALLVALUE DUP1 ISZERO PUSH2 0x62E JUMPI PUSH1 0x0 DUP1 REVERT JUMPDEST POP PUSH2 0x2A7 PUSH2 0x63D CALLDATASIZE PUSH1 0x4 PUSH2 0x24DB JUMP JUMPDEST PUSH2 0x1C14 JUMP JUMPDEST CALLVALUE DUP1 ISZERO PUSH2 0x64E JUMPI PUSH1 0x0 DUP1 REVERT JUMPDEST POP PUSH2 0x662 PUSH2 0x65D CALLDATASIZE PUSH1 0x4 PUSH2 0x23BE JUMP JUMPDEST PUSH2 0x1D0B JUMP JUMPDEST PUSH1 0x40 DUP1 MLOAD SWAP4 DUP5 MSTORE PUSH1 0x20 DUP5 ADD SWAP3 SWAP1 SWAP3 MSTORE SWAP1 DUP3 ADD MSTORE PUSH1 0x60 ADD PUSH2 0x2E8 JUMP JUMPDEST CALLVALUE DUP1 ISZERO PUSH2 0x689 JUMPI PUSH1 0x0 DUP1 REVERT JUMPDEST POP PUSH2 0x2DE PUSH1 0x3C DUP2 JUMP JUMPDEST CALLVALUE DUP1 ISZERO PUSH2 0x69E JUMPI PUSH1 0x0 DUP1 REVERT JUMPDEST POP PUSH2 0x2A7 PUSH2 0x6AD CALLDATASIZE PUSH1 0x4 PUSH2 0x2305 JUMP JUMPDEST PUSH2 0x1E7B JUMP JUMPDEST CALLVALUE DUP1 ISZERO PUSH2 0x6BE JUMPI PUSH1 0x0 DUP1 REVERT JUMPDEST POP PUSH2 0x2DE PUSH2 0x6CD CALLDATASIZE PUSH1 0x4 PUSH2 0x21F2 JUMP JUMPDEST PUSH1 0x1 PUSH1 0x1 PUSH1 0xA0 SHL SUB AND PUSH1 0x0 SWAP1 DUP2 MSTORE PUSH1 0x3 PUSH1 0x20 MSTORE PUSH1 0x40 SWAP1 KECCAK256 SLOAD SWAP1 JUMP JUMPDEST PUSH2 0x2A7 PUSH2 0x1F11 JUMP JUMPDEST CALLVALUE DUP1 ISZERO PUSH2 0x6FC JUMPI PUSH1 0x0 DUP1 REVERT JUMPDEST POP PUSH2 0x710 PUSH2 0x70B CALLDATASIZE PUSH1 0x4 PUSH2 0x21F2 JUMP JUMPDEST PUSH2 0x1FBD JUMP JUMPDEST PUSH1 0x40 DUP1 MLOAD SWAP3 ISZERO ISZERO DUP4 MSTORE PUSH1 0x20 DUP4 ADD SWAP2 SWAP1 SWAP2 MSTORE ADD PUSH2 0x2E8 JUMP JUMPDEST CALLVALUE DUP1 ISZERO PUSH2 0x733 JUMPI PUSH1 0x0 DUP1 REVERT JUMPDEST POP PUSH2 0x2DE PUSH2 0x742 CALLDATASIZE PUSH1 0x4 PUSH2 0x21F2 JUMP JUMPDEST PUSH1 0x1 PUSH1 0x20 MSTORE PUSH1 0x0 SWAP1 DUP2 MSTORE PUSH1 0x40 SWAP1 KECCAK256 SLOAD DUP2 JUMP JUMPDEST CALLVALUE DUP1 ISZERO PUSH2 0x760 JUMPI PUSH1 0x0 DUP1 REVERT JUMPDEST POP PUSH2 0x2A7 PUSH2 0x76F CALLDATASIZE PUSH1 0x4 PUSH2 0x2305 JUMP JUMPDEST PUSH2 0x2032 JUMP JUMPDEST PUSH1 0x6 SLOAD PUSH1 0xFF AND ISZERO PUSH2 0x798 JUMPI PUSH1 0x40 MLOAD PUSH4 0x2C1FF443 PUSH1 0xE1 SHL DUP2 MSTORE PUSH1 0x4 ADD PUSH1 0x40 MLOAD DUP1 SWAP2 SUB SWAP1 REVERT JUMPDEST PUSH1 0x6 DUP1 SLOAD PUSH1 0xFF NOT AND PUSH1 0x1 OR SWAP1 SSTORE PUSH1 0x1 PUSH1 0x1 PUSH1 0xA0 SHL SUB DUP2 AND PUSH1 0x0 SWAP1 DUP2 MSTORE PUSH1 0x20 DUP2 SWAP1 MSTORE PUSH1 0x40 SWAP1 KECCAK256 PUSH1 0x3 DUP2 ADD SLOAD DUP3 SWAP2 SWAP1 PUSH1 0xFF AND PUSH2 0x7E5 JUMPI PUSH1 0x40 MLOAD PUSH4 0x759D4E61 PUSH1 0xE1 SHL DUP2 MSTORE PUSH1 0x4 ADD PUSH1 0x40 MLOAD DUP1 SWAP2 SUB SWAP1 REVERT JUMPDEST DUP1 PUSH1 0x5 ADD SLOAD PUSH1 0x0 SUB PUSH2 0x80A JUMPI PUSH1 0x40 MLOAD PUSH4 0x6AA937D PUSH1 0xE3 SHL DUP2 MSTORE PUSH1 0x4 ADD PUSH1 0x40 MLOAD DUP1 SWAP2 SUB SWAP1 REVERT JUMPDEST PUSH1 0x1 PUSH1 0x1 PUSH1 0xA0 SHL SUB DUP1 DUP5 AND PUSH1 0x0 SWAP1 DUP2 MSTORE PUSH1 0x4 PUSH1 0x20 SWAP1 DUP2 MSTORE PUSH1 0x40 DUP1 DUP4 KECCAK256 CALLER DUP1 DUP6 MSTORE SWAP3 MSTORE SWAP1 SWAP2 KECCAK256 PUSH1 0x1 DUP2 ADD SLOAD SWAP1 SWAP3 AND EQ PUSH2 0x855 JUMPI PUSH1 0x40 MLOAD PUSH4 0x644D871F PUSH1 0xE0 SHL DUP2 MSTORE PUSH1 0x4 ADD PUSH1 0x40 MLOAD DUP1 SWAP2 SUB SWAP1 REVERT JUMPDEST PUSH1 0x1 PUSH1 0x1 PUSH1 0xA0 SHL SUB DUP5 AND PUSH1 0x0 SWAP1 DUP2 MSTORE PUSH1 0x20 DUP2 SWAP1 MSTORE PUSH1 0x40 DUP2 KECCAK256 PUSH1 0x2 DUP4 ADD SLOAD PUSH1 0x4 DUP3 ADD SLOAD SWAP2 SWAP3 SWAP2 PUSH2 0x2710 SWAP2 PUSH2 0x887 SWAP2 PUSH2 0x2517 JUMP JUMPDEST PUSH2 0x891 SWAP2 SWAP1 PUSH2 0x252E JUMP JUMPDEST SWAP1 POP PUSH1 0x0 DUP1 DUP4 PUSH1 0x5 ADD SLOAD TIMESTAMP PUSH2 0x8A6 SWAP2 SWAP1 PUSH2 0x2550 JUMP JUMPDEST SWAP1 POP PUSH1 0x1 PUSH1 0x4 DUP7 ADD SLOAD PUSH1 0xFF AND PUSH1 0x1 DUP2 GT ISZERO PUSH2 0x8C3 JUMPI PUSH2 0x8C3 PUSH2 0x2461 JUMP JUMPDEST SUB PUSH2 0x8DC JUMPI DUP5 PUSH1 0x5 ADD SLOAD DUP2 LT PUSH2 0x8D7 JUMPI DUP3 SWAP2 POP JUMPDEST PUSH2 0x90B JUMP JUMPDEST DUP5 PUSH1 0x5 ADD SLOAD DUP2 LT PUSH2 0x8EF JUMPI DUP3 SWAP2 POP PUSH2 0x90B JUMP JUMPDEST PUSH1 0x5 DUP6 ADD SLOAD PUSH2 0x8FE DUP3 DUP6 PUSH2 0x2517 JUMP JUMPDEST PUSH2 0x908 SWAP2 SWAP1 PUSH2 0x252E JUMP JUMPDEST SWAP2 POP JUMPDEST PUSH1 0x0 DUP6 PUSH1 0x3 ADD SLOAD DUP4 GT ISZERO PUSH2 0x92B JUMPI PUSH1 0x3 DUP7 ADD SLOAD PUSH2 0x928 SWAP1 DUP5 PUSH2 0x2550 JUMP JUMPDEST SWAP1 POP JUMPDEST DUP1 PUSH1 0x0 SUB PUSH2 0x94C JUMPI PUSH1 0x40 MLOAD PUSH4 0x12D37EE5 PUSH1 0xE3 SHL DUP2 MSTORE PUSH1 0x4 ADD PUSH1 0x40 MLOAD DUP1 SWAP2 SUB SWAP1 REVERT JUMPDEST PUSH1 0x1 PUSH1 0x1 PUSH1 0xA0 SHL SUB DUP10 AND PUSH1 0x0 SWAP1 DUP2 MSTORE PUSH1 0x1 PUSH1 0x20 MSTORE PUSH1 0x40 SWAP1 KECCAK256 SLOAD DUP2 GT ISZERO PUSH2 0x985 JUMPI PUSH1 0x40 MLOAD PUSH4 0xA908D3D9 PUSH1 0xE0 SHL DUP2 MSTORE PUSH1 0x4 ADD PUSH1 0x40 MLOAD DUP1 SWAP2 SUB SWAP1 REVERT JUMPDEST DUP1 DUP7 PUSH1 0x3 ADD PUSH1 0x0 DUP3 DUP3 SLOAD PUSH2 0x999 SWAP2 SWAP1 PUSH2 0x21C3 JUMP JUMPDEST SWAP1 SWAP2 SSTORE POP POP PUSH1 0x1 PUSH1 0x1 PUSH1 0xA0 SHL SUB DUP10 AND PUSH1 0x0 SWAP1 DUP2 MSTORE PUSH1 0x1 PUSH1 0x20 MSTORE PUSH1 0x40 DUP2 KECCAK256 DUP1 SLOAD DUP4 SWAP3 SWAP1 PUSH2 0x9C6 SWAP1 DUP5 SWAP1 PUSH2 0x2550 JUMP JUMPDEST SWAP1 SWAP2 SSTORE POP POP PUSH1 0x1 DUP7 ADD SLOAD PUSH1 0x40 MLOAD PUSH1 0x0 SWAP2 PUSH1 0x1 PUSH1 0x1 PUSH1 0xA0 SHL SUB AND SWAP1 DUP4 SWAP1 DUP4 DUP2 DUP2 DUP2 DUP6 DUP8 GAS CALL SWAP3 POP POP POP RETURNDATASIZE DUP1 PUSH1 0x0 DUP2 EQ PUSH2 0xA1A JUMPI PUSH1 0x40 MLOAD SWAP2 POP PUSH1 0x1F NOT PUSH1 0x3F RETURNDATASIZE ADD AND DUP3 ADD PUSH1 0x40 MSTORE RETURNDATASIZE DUP3 MSTORE RETURNDATASIZE PUSH1 0x0 PUSH1 0x20 DUP5 ADD RETURNDATACOPY PUSH2 0xA1F JUMP JUMPDEST PUSH1 0x60 SWAP2 POP JUMPDEST POP POP SWAP1 POP DUP1 PUSH2 0xA67 JUMPI PUSH1 0x40 MLOAD PUSH3 0x461BCD PUSH1 0xE5 SHL DUP2 MSTORE PUSH1 0x20 PUSH1 0x4 DUP3 ADD MSTORE PUSH1 0xF PUSH1 0x24 DUP3 ADD MSTORE PUSH15 0x151C985B9CD9995C8819985A5B1959 PUSH1 0x8A SHL PUSH1 0x44 DUP3 ADD MSTORE PUSH1 0x64 ADD JUMPDEST PUSH1 0x40 MLOAD DUP1 SWAP2 SUB SWAP1 REVERT JUMPDEST PUSH1 0x1 DUP8 ADD SLOAD PUSH1 0x40 MLOAD DUP4 DUP2 MSTORE PUSH1 0x1 PUSH1 0x1 PUSH1 0xA0 SHL SUB SWAP2 DUP3 AND SWAP2 DUP13 AND SWAP1 PUSH32 0x716942921E9B67EE05C4C2FFCF216F189086C9053B444C8928A49DB4BDB1AE8E SWAP1 PUSH1 0x20 ADD PUSH1 0x40 MLOAD DUP1 SWAP2 SUB SWAP1 LOG3 POP POP PUSH1 0x6 DUP1 SLOAD PUSH1 0xFF NOT AND SWAP1 SSTORE POP POP POP POP POP POP POP POP JUMP JUMPDEST CALLER PUSH1 0x0 SWAP1 DUP2 MSTORE PUSH1 0x20 DUP2 SWAP1 MSTORE PUSH1 0x40 SWAP1 KECCAK256 SLOAD PUSH1 0xFF AND PUSH2 0xAF4 JUMPI PUSH1 0x40 MLOAD PUSH4 0xABA47339 PUSH1 0xE0 SHL DUP2 MSTORE PUSH1 0x4 ADD PUSH1 0x40 MLOAD DUP1 SWAP2 SUB SWAP1 REVERT JUMPDEST DUP1 PUSH1 0x1 PUSH1 0x1 PUSH1 0xA0 SHL SUB DUP2 AND PUSH2 0xB1C JUMPI PUSH1 0x40 MLOAD PUSH4 0xD92E233D PUSH1 0xE0 SHL DUP2 MSTORE PUSH1 0x4 ADD PUSH1 0x40 MLOAD DUP1 SWAP2 SUB SWAP1 REVERT JUMPDEST DUP3 DUP1 MLOAD PUSH1 0x0 SUB PUSH2 0xB3F JUMPI PUSH1 0x40 MLOAD PUSH4 0xECD7B0D1 PUSH1 0xE0 SHL DUP2 MSTORE PUSH1 0x4 ADD PUSH1 0x40 MLOAD DUP1 SWAP2 SUB SWAP1 REVERT JUMPDEST CALLER PUSH1 0x0 SWAP1 DUP2 MSTORE PUSH1 0x2 PUSH1 0x20 SWAP1 DUP2 MSTORE PUSH1 0x40 DUP1 DUP4 KECCAK256 PUSH1 0x1 PUSH1 0x1 PUSH1 0xA0 SHL SUB DUP8 DUP2 AND DUP6 MSTORE SWAP3 MSTORE SWAP1 SWAP2 KECCAK256 PUSH1 0x1 ADD SLOAD AND ISZERO PUSH2 0xB86 JUMPI PUSH1 0x40 MLOAD PUSH4 0x35817633 PUSH1 0xE0 SHL DUP2 MSTORE PUSH1 0x4 ADD PUSH1 0x40 MLOAD DUP1 SWAP2 SUB SWAP1 REVERT JUMPDEST CALLER PUSH1 0x0 SWAP1 DUP2 MSTORE PUSH1 0x3 PUSH1 0x20 MSTORE PUSH1 0x40 SWAP1 KECCAK256 SLOAD PUSH1 0xA GT PUSH2 0xBB6 JUMPI PUSH1 0x40 MLOAD PUSH4 0x9308529B PUSH1 0xE0 SHL DUP2 MSTORE PUSH1 0x4 ADD PUSH1 0x40 MLOAD DUP1 SWAP2 SUB SWAP1 REVERT JUMPDEST CALLER PUSH1 0x1 PUSH1 0x1 PUSH1 0xA0 SHL SUB DUP5 AND SUB PUSH2 0xBDF JUMPI PUSH1 0x40 MLOAD PUSH4 0x265079BD PUSH1 0xE2 SHL DUP2 MSTORE PUSH1 0x4 ADD PUSH1 0x40 MLOAD DUP1 SWAP2 SUB SWAP1 REVERT JUMPDEST PUSH1 0x40 DUP1 MLOAD PUSH1 0x60 DUP2 ADD DUP3 MSTORE DUP6 DUP2 MSTORE PUSH1 0x1 PUSH1 0x1 PUSH1 0xA0 SHL SUB DUP6 AND PUSH1 0x20 DUP1 DUP4 ADD DUP3 SWAP1 MSTORE PUSH1 0x0 DUP4 DUP6 ADD DUP2 SWAP1 MSTORE CALLER DUP2 MSTORE PUSH1 0x2 DUP3 MSTORE DUP5 DUP2 KECCAK256 SWAP3 DUP2 MSTORE SWAP2 SWAP1 MSTORE SWAP2 SWAP1 SWAP2 KECCAK256 DUP2 MLOAD DUP2 SWAP1 PUSH2 0xC28 SWAP1 DUP3 PUSH2 0x25EC JUMP JUMPDEST POP PUSH1 0x20 DUP3 DUP2 ADD MLOAD PUSH1 0x1 SWAP3 DUP4 ADD DUP1 SLOAD PUSH1 0x40 SWAP6 DUP7 ADD MLOAD ISZERO ISZERO PUSH1 0x1 PUSH1 0xA0 SHL MUL PUSH1 0x1 PUSH1 0x1 PUSH1 0xA8 SHL SUB NOT SWAP1 SWAP2 AND PUSH1 0x1 PUSH1 0x1 PUSH1 0xA0 SHL SUB SWAP4 DUP5 AND OR OR SWAP1 SSTORE CALLER PUSH1 0x0 DUP2 DUP2 MSTORE PUSH1 0x3 DUP5 MSTORE DUP6 DUP2 KECCAK256 DUP1 SLOAD SWAP6 DUP7 ADD DUP2 SSTORE DUP2 MSTORE SWAP3 DUP4 KECCAK256 SWAP1 SWAP4 ADD DUP1 SLOAD SWAP2 DUP9 AND PUSH1 0x1 PUSH1 0x1 PUSH1 0xA0 SHL SUB NOT SWAP3 SWAP1 SWAP3 AND DUP3 OR SWAP1 SSTORE SWAP3 MLOAD PUSH32 0xBC3292102FA77E083913064B282926717CDFAEDE4D35F553D66366C0A3DA755A SWAP2 SWAP1 LOG3 POP POP POP POP JUMP JUMPDEST CALLER PUSH1 0x0 SWAP1 DUP2 MSTORE PUSH1 0x20 DUP2 SWAP1 MSTORE PUSH1 0x40 SWAP1 KECCAK256 SLOAD PUSH1 0xFF AND PUSH2 0xCED JUMPI PUSH1 0x40 MLOAD PUSH4 0xABA47339 PUSH1 0xE0 SHL DUP2 MSTORE PUSH1 0x4 ADD PUSH1 0x40 MLOAD DUP1 SWAP2 SUB SWAP1 REVERT JUMPDEST PUSH1 0x6 SLOAD PUSH1 0xFF AND ISZERO PUSH2 0xD11 JUMPI PUSH1 0x40 MLOAD PUSH4 0x2C1FF443 PUSH1 0xE1 SHL DUP2 MSTORE PUSH1 0x4 ADD PUSH1 0x40 MLOAD DUP1 SWAP2 SUB SWAP1 REVERT JUMPDEST PUSH1 0x6 DUP1 SLOAD PUSH1 0xFF NOT AND PUSH1 0x1 OR SWAP1 SSTORE CALLER PUSH1 0x0 SWAP1 DUP2 MSTORE PUSH1 0x20 DUP2 SWAP1 MSTORE PUSH1 0x40 SWAP1 KECCAK256 PUSH1 0x3 ADD SLOAD PUSH1 0xFF AND ISZERO PUSH2 0xD52 JUMPI PUSH1 0x40 MLOAD PUSH4 0x52E39C5B PUSH1 0xE1 SHL DUP2 MSTORE PUSH1 0x4 ADD PUSH1 0x40 MLOAD DUP1 SWAP2 SUB SWAP1 REVERT JUMPDEST DUP1 PUSH1 0x0 SUB PUSH2 0xD73 JUMPI PUSH1 0x40 MLOAD PUSH4 0x1F2A2005 PUSH1 0xE0 SHL DUP2 MSTORE PUSH1 0x4 ADD PUSH1 0x40 MLOAD DUP1 SWAP2 SUB SWAP1 REVERT JUMPDEST CALLER PUSH1 0x0 SWAP1 DUP2 MSTORE PUSH1 0x1 PUSH1 0x20 MSTORE PUSH1 0x40 SWAP1 KECCAK256 SLOAD DUP2 GT ISZERO PUSH2 0xDA3 JUMPI PUSH1 0x40 MLOAD PUSH4 0x1E9ACF17 PUSH1 0xE3 SHL DUP2 MSTORE PUSH1 0x4 ADD PUSH1 0x40 MLOAD DUP1 SWAP2 SUB SWAP1 REVERT JUMPDEST CALLER PUSH1 0x0 SWAP1 DUP2 MSTORE PUSH1 0x1 PUSH1 0x20 MSTORE PUSH1 0x40 DUP2 KECCAK256 DUP1 SLOAD DUP4 SWAP3 SWAP1 PUSH2 0xDC2 SWAP1 DUP5 SWAP1 PUSH2 0x2550 JUMP JUMPDEST SWAP1 SWAP2 SSTORE POP POP PUSH1 0x40 MLOAD PUSH1 0x0 SWAP1 CALLER SWAP1 DUP4 SWAP1 DUP4 DUP2 DUP2 DUP2 DUP6 DUP8 GAS CALL SWAP3 POP POP POP RETURNDATASIZE DUP1 PUSH1 0x0 DUP2 EQ PUSH2 0xE09 JUMPI PUSH1 0x40 MLOAD SWAP2 POP PUSH1 0x1F NOT PUSH1 0x3F RETURNDATASIZE ADD AND DUP3 ADD PUSH1 0x40 MSTORE RETURNDATASIZE DUP3 MSTORE RETURNDATASIZE PUSH1 0x0 PUSH1 0x20 DUP5 ADD RETURNDATACOPY PUSH2 0xE0E JUMP JUMPDEST PUSH1 0x60 SWAP2 POP JUMPDEST POP POP SWAP1 POP DUP1 PUSH2 0xE51 JUMPI PUSH1 0x40 MLOAD PUSH3 0x461BCD PUSH1 0xE5 SHL DUP2 MSTORE PUSH1 0x20 PUSH1 0x4 DUP3 ADD MSTORE PUSH1 0xF PUSH1 0x24 DUP3 ADD MSTORE PUSH15 0x151C985B9CD9995C8819985A5B1959 PUSH1 0x8A SHL PUSH1 0x44 DUP3 ADD MSTORE PUSH1 0x64 ADD PUSH2 0xA5E JUMP JUMPDEST PUSH1 0x40 MLOAD DUP3 DUP2 MSTORE CALLER SWAP1 PUSH32 0xEAFF4B37086828766AD3268786972C0CD24259D4C87A80F9D3963A3C3D999B0D SWAP1 PUSH1 0x20 ADD PUSH1 0x40 MLOAD DUP1 SWAP2 SUB SWAP1 LOG2 POP POP PUSH1 0x6 DUP1 SLOAD PUSH1 0xFF NOT AND SWAP1 SSTORE JUMP JUMPDEST CALLER PUSH1 0x0 SWAP1 DUP2 MSTORE PUSH1 0x20 DUP2 SWAP1 MSTORE PUSH1 0x40 SWAP1 KECCAK256 SLOAD PUSH1 0xFF AND PUSH2 0xEC4 JUMPI PUSH1 0x40 MLOAD PUSH4 0xABA47339 PUSH1 0xE0 SHL DUP2 MSTORE PUSH1 0x4 ADD PUSH1 0x40 MLOAD DUP1 SWAP2 SUB SWAP1 REVERT JUMPDEST DUP4 PUSH1 0x1 PUSH1 0x1 PUSH1 0xA0 SHL SUB DUP2 AND PUSH2 0xEEC JUMPI PUSH1 0x40 MLOAD PUSH4 0xD92E233D PUSH1 0xE0 SHL DUP2 MSTORE PUSH1 0x4 ADD PUSH1 0x40 MLOAD DUP1 SWAP2 SUB SWAP1 REVERT JUMPDEST DUP6 DUP1 MLOAD PUSH1 0x0 SUB PUSH2 0xF0F JUMPI PUSH1 0x40 MLOAD PUSH4 0xECD7B0D1 PUSH1 0xE0 SHL DUP2 MSTORE PUSH1 0x4 ADD PUSH1 0x40 MLOAD DUP1 SWAP2 SUB SWAP1 REVERT JUMPDEST CALLER PUSH1 0x0 SWAP1 DUP2 MSTORE PUSH1 0x4 PUSH1 0x20 SWAP1 DUP2 MSTORE PUSH1 0x40 DUP1 DUP4 KECCAK256 PUSH1 0x1 PUSH1 0x1 PUSH1 0xA0 SHL SUB DUP11 DUP2 AND DUP6 MSTORE SWAP3 MSTORE SWAP1 SWAP2 KECCAK256 PUSH1 0x1 ADD SLOAD AND ISZERO PUSH2 0xF56 JUMPI PUSH1 0x40 MLOAD PUSH4 0x7FFEBE83 PUSH1 0xE0 SHL DUP2 MSTORE PUSH1 0x4 ADD PUSH1 0x40 MLOAD DUP1 SWAP2 SUB SWAP1 REVERT JUMPDEST CALLER PUSH1 0x0 SWAP1 DUP2 MSTORE PUSH1 0x5 PUSH1 0x20 MSTORE PUSH1 0x40 SWAP1 KECCAK256 SLOAD PUSH1 0x14 GT PUSH2 0xF86 JUMPI PUSH1 0x40 MLOAD PUSH4 0xDD34C165 PUSH1 0xE0 SHL DUP2 MSTORE PUSH1 0x4 ADD PUSH1 0x40 MLOAD DUP1 SWAP2 SUB SWAP1 REVERT JUMPDEST DUP5 PUSH1 0x0 SUB PUSH2 0xFA7 JUMPI PUSH1 0x40 MLOAD PUSH4 0xBA0D87B5 PUSH1 0xE0 SHL DUP2 MSTORE PUSH1 0x4 ADD PUSH1 0x40 MLOAD DUP1 SWAP2 SUB SWAP1 REVERT JUMPDEST CALLER PUSH1 0x0 SWAP1 DUP2 MSTORE PUSH1 0x20 DUP2 SWAP1 MSTORE PUSH1 0x40 SWAP1 KECCAK256 PUSH1 0x6 ADD SLOAD PUSH2 0x2710 SWAP1 PUSH2 0xFC9 SWAP1 DUP8 SWAP1 PUSH2 0x21C3 JUMP JUMPDEST GT ISZERO PUSH2 0xFE8 JUMPI PUSH1 0x40 MLOAD PUSH4 0xF1B7A5D1 PUSH1 0xE0 SHL DUP2 MSTORE PUSH1 0x4 ADD PUSH1 0x40 MLOAD DUP1 SWAP2 SUB SWAP1 REVERT JUMPDEST DUP3 PUSH1 0x0 SUB PUSH2 0x1009 JUMPI PUSH1 0x40 MLOAD PUSH4 0x346AB437 PUSH1 0xE1 SHL DUP2 MSTORE PUSH1 0x4 ADD PUSH1 0x40 MLOAD DUP1 SWAP2 SUB SWAP1 REVERT JUMPDEST PUSH1 0x40 MLOAD DUP1 PUSH1 0xC0 ADD PUSH1 0x40 MSTORE DUP1 DUP9 DUP2 MSTORE PUSH1 0x20 ADD DUP8 PUSH1 0x1 PUSH1 0x1 PUSH1 0xA0 SHL SUB AND DUP2 MSTORE PUSH1 0x20 ADD DUP7 DUP2 MSTORE PUSH1 0x20 ADD PUSH1 0x0 DUP2 MSTORE PUSH1 0x20 ADD DUP6 PUSH1 0x1 DUP2 GT ISZERO PUSH2 0x1048 JUMPI PUSH2 0x1048 PUSH2 0x2461 JUMP JUMPDEST DUP2 MSTORE PUSH1 0x20 SWAP1 DUP2 ADD DUP6 SWAP1 MSTORE CALLER PUSH1 0x0 SWAP1 DUP2 MSTORE PUSH1 0x4 DUP3 MSTORE PUSH1 0x40 DUP1 DUP3 KECCAK256 PUSH1 0x1 PUSH1 0x1 PUSH1 0xA0 SHL SUB DUP12 AND DUP4 MSTORE SWAP1 SWAP3 MSTORE KECCAK256 DUP2 MLOAD DUP2 SWAP1 PUSH2 0x107F SWAP1 DUP3 PUSH2 0x25EC JUMP JUMPDEST POP PUSH1 0x20 DUP3 ADD MLOAD PUSH1 0x1 DUP3 DUP2 ADD DUP1 SLOAD PUSH1 0x1 PUSH1 0x1 PUSH1 0xA0 SHL SUB NOT AND PUSH1 0x1 PUSH1 0x1 PUSH1 0xA0 SHL SUB SWAP1 SWAP4 AND SWAP3 SWAP1 SWAP3 OR SWAP1 SWAP2 SSTORE PUSH1 0x40 DUP4 ADD MLOAD PUSH1 0x2 DUP4 ADD SSTORE PUSH1 0x60 DUP4 ADD MLOAD PUSH1 0x3 DUP4 ADD SSTORE PUSH1 0x80 DUP4 ADD MLOAD PUSH1 0x4 DUP4 ADD DUP1 SLOAD SWAP2 SWAP3 SWAP1 SWAP2 PUSH1 0xFF NOT AND SWAP1 DUP4 DUP2 DUP2 GT ISZERO PUSH2 0x10E1 JUMPI PUSH2 0x10E1 PUSH2 0x2461 JUMP JUMPDEST MUL OR SWAP1 SSTORE POP PUSH1 0xA0 SWAP2 SWAP1 SWAP2 ADD MLOAD PUSH1 0x5 SWAP2 DUP3 ADD SSTORE CALLER PUSH1 0x0 DUP2 DUP2 MSTORE PUSH1 0x20 SWAP3 DUP4 MSTORE PUSH1 0x40 DUP1 DUP3 KECCAK256 DUP1 SLOAD PUSH1 0x1 DUP2 ADD DUP3 SSTORE SWAP1 DUP4 MSTORE DUP5 DUP4 KECCAK256 ADD DUP1 SLOAD PUSH1 0x1 PUSH1 0x1 PUSH1 0xA0 SHL SUB NOT AND PUSH1 0x1 PUSH1 0x1 PUSH1 0xA0 SHL SUB DUP13 AND OR SWAP1 SSTORE SWAP2 DUP2 MSTORE SWAP2 DUP3 SWAP1 MSTORE DUP2 KECCAK256 PUSH1 0x6 ADD DUP1 SLOAD DUP8 SWAP3 SWAP1 PUSH2 0x1147 SWAP1 DUP5 SWAP1 PUSH2 0x21C3 JUMP JUMPDEST SWAP1 SWAP2 SSTORE POP POP PUSH1 0x40 MLOAD DUP6 DUP2 MSTORE PUSH1 0x1 PUSH1 0x1 PUSH1 0xA0 SHL SUB DUP8 AND SWAP1 CALLER SWAP1 PUSH32 0x5D081D791B64899ADAB031015397EF8D7600501212EF97573B9E50F8C9BB6D9B SWAP1 PUSH1 0x20 ADD PUSH1 0x40 MLOAD DUP1 SWAP2 SUB SWAP1 LOG3 POP POP POP POP POP POP POP JUMP JUMPDEST PUSH1 0x5 PUSH1 0x20 MSTORE DUP2 PUSH1 0x0 MSTORE PUSH1 0x40 PUSH1 0x0 KECCAK256 DUP2 DUP2 SLOAD DUP2 LT PUSH2 0x11B1 JUMPI PUSH1 0x0 DUP1 REVERT JUMPDEST PUSH1 0x0 SWAP2 DUP3 MSTORE PUSH1 0x20 SWAP1 SWAP2 KECCAK256 ADD SLOAD PUSH1 0x1 PUSH1 0x1 PUSH1 0xA0 SHL SUB AND SWAP2 POP DUP3 SWAP1 POP JUMP JUMPDEST PUSH1 0x3 PUSH1 0x20 MSTORE DUP2 PUSH1 0x0 MSTORE PUSH1 0x40 PUSH1 0x0 KECCAK256 DUP2 DUP2 SLOAD DUP2 LT PUSH2 0x11B1 JUMPI PUSH1 0x0 DUP1 REVERT JUMPDEST PUSH1 0x2 PUSH1 0x20 SWAP1 DUP2 MSTORE PUSH1 0x0 SWAP3 DUP4 MSTORE PUSH1 0x40 DUP1 DUP5 KECCAK256 SWAP1 SWAP2 MSTORE SWAP1 DUP3 MSTORE SWAP1 KECCAK256 DUP1 SLOAD DUP2 SWAP1 PUSH2 0x120F SWAP1 PUSH2 0x2563 JUMP JUMPDEST DUP1 PUSH1 0x1F ADD PUSH1 0x20 DUP1 SWAP2 DIV MUL PUSH1 0x20 ADD PUSH1 0x40 MLOAD SWAP1 DUP2 ADD PUSH1 0x40 MSTORE DUP1 SWAP3 SWAP2 SWAP1 DUP2 DUP2 MSTORE PUSH1 0x20 ADD DUP3 DUP1 SLOAD PUSH2 0x123B SWAP1 PUSH2 0x2563 JUMP JUMPDEST DUP1 ISZERO PUSH2 0x1288 JUMPI DUP1 PUSH1 0x1F LT PUSH2 0x125D JUMPI PUSH2 0x100 DUP1 DUP4 SLOAD DIV MUL DUP4 MSTORE SWAP2 PUSH1 0x20 ADD SWAP2 PUSH2 0x1288 JUMP JUMPDEST DUP3 ADD SWAP2 SWAP1 PUSH1 0x0 MSTORE PUSH1 0x20 PUSH1 0x0 KECCAK256 SWAP1 JUMPDEST DUP2 SLOAD DUP2 MSTORE SWAP1 PUSH1 0x1 ADD SWAP1 PUSH1 0x20 ADD DUP1 DUP4 GT PUSH2 0x126B JUMPI DUP3 SWAP1 SUB PUSH1 0x1F AND DUP3 ADD SWAP2 JUMPDEST POP POP POP PUSH1 0x1 SWAP1 SWAP4 ADD SLOAD SWAP2 SWAP3 POP POP PUSH1 0x1 PUSH1 0x1 PUSH1 0xA0 SHL SUB DUP2 AND SWAP1 PUSH1 0xFF PUSH1 0x1 PUSH1 0xA0 SHL SWAP1 SWAP2 DIV AND DUP4 JUMP JUMPDEST PUSH1 0x4 PUSH1 0x20 SWAP1 DUP2 MSTORE PUSH1 0x0 SWAP3 DUP4 MSTORE PUSH1 0x40 DUP1 DUP5 KECCAK256 SWAP1 SWAP2 MSTORE SWAP1 DUP3 MSTORE SWAP1 KECCAK256 DUP1 SLOAD DUP2 SWAP1 PUSH2 0x12D4 SWAP1 PUSH2 0x2563 JUMP JUMPDEST DUP1 PUSH1 0x1F ADD PUSH1 0x20 DUP1 SWAP2 DIV MUL PUSH1 0x20 ADD PUSH1 0x40 MLOAD SWAP1 DUP2 ADD PUSH1 0x40 MSTORE DUP1 SWAP3 SWAP2 SWAP1 DUP2 DUP2 MSTORE PUSH1 0x20 ADD DUP3 DUP1 SLOAD PUSH2 0x1300 SWAP1 PUSH2 0x2563 JUMP JUMPDEST DUP1 ISZERO PUSH2 0x134D JUMPI DUP1 PUSH1 0x1F LT PUSH2 0x1322 JUMPI PUSH2 0x100 DUP1 DUP4 SLOAD DIV MUL DUP4 MSTORE SWAP2 PUSH1 0x20 ADD SWAP2 PUSH2 0x134D JUMP JUMPDEST DUP3 ADD SWAP2 SWAP1 PUSH1 0x0 MSTORE PUSH1 0x20 PUSH1 0x0 KECCAK256 SWAP1 JUMPDEST DUP2 SLOAD DUP2 MSTORE SWAP1 PUSH1 0x1 ADD SWAP1 PUSH1 0x20 ADD DUP1 DUP4 GT PUSH2 0x1330 JUMPI DUP3 SWAP1 SUB PUSH1 0x1F AND DUP3 ADD SWAP2 JUMPDEST POP POP POP POP PUSH1 0x1 DUP4 ADD SLOAD PUSH1 0x2 DUP5 ADD SLOAD PUSH1 0x3 DUP6 ADD SLOAD PUSH1 0x4 DUP7 ADD SLOAD PUSH1 0x5 SWAP1 SWAP7 ADD SLOAD SWAP5 SWAP6 PUSH1 0x1 PUSH1 0x1 PUSH1 0xA0 SHL SUB SWAP1 SWAP4 AND SWAP5 SWAP2 SWAP4 POP SWAP2 PUSH1 0xFF AND SWAP1 DUP7 JUMP JUMPDEST PUSH1 0x1 PUSH1 0x1 PUSH1 0xA0 SHL SUB DUP1 DUP3 AND PUSH1 0x0 SWAP1 DUP2 MSTORE PUSH1 0x2 PUSH1 0x20 SWAP1 DUP2 MSTORE PUSH1 0x40 DUP1 DUP4 KECCAK256 CALLER DUP5 MSTORE SWAP1 SWAP2 MSTORE SWAP1 KECCAK256 PUSH1 0x1 ADD SLOAD DUP3 SWAP2 AND PUSH2 0x13CC JUMPI PUSH1 0x40 MLOAD PUSH4 0x77B68781 PUSH1 0xE1 SHL DUP2 MSTORE PUSH1 0x4 ADD PUSH1 0x40 MLOAD DUP1 SWAP2 SUB SWAP1 REVERT JUMPDEST PUSH1 0x1 PUSH1 0x1 PUSH1 0xA0 SHL SUB DUP3 AND PUSH1 0x0 SWAP1 DUP2 MSTORE PUSH1 0x20 DUP2 SWAP1 MSTORE PUSH1 0x40 SWAP1 KECCAK256 DUP1 SLOAD PUSH1 0xFF AND PUSH2 0x1406 JUMPI PUSH1 0x40 MLOAD PUSH4 0xABA47339 PUSH1 0xE0 SHL DUP2 MSTORE PUSH1 0x4 ADD PUSH1 0x40 MLOAD DUP1 SWAP2 SUB SWAP1 REVERT JUMPDEST PUSH1 0x3 DUP2 ADD SLOAD PUSH1 0xFF AND ISZERO PUSH2 0x142C JUMPI PUSH1 0x40 MLOAD PUSH4 0x7281D96B PUSH1 0xE1 SHL DUP2 MSTORE PUSH1 0x4 ADD PUSH1 0x40 MLOAD DUP1 SWAP2 SUB SWAP1 REVERT JUMPDEST DUP1 PUSH1 0x2 ADD SLOAD DUP2 PUSH1 0x1 ADD SLOAD PUSH2 0x1440 SWAP2 SWAP1 PUSH2 0x21C3 JUMP JUMPDEST TIMESTAMP GT PUSH2 0x145F JUMPI PUSH1 0x40 MLOAD PUSH4 0x5FFD62B PUSH1 0xE1 SHL DUP2 MSTORE PUSH1 0x4 ADD PUSH1 0x40 MLOAD DUP1 SWAP2 SUB SWAP1 REVERT JUMPDEST PUSH1 0x3 DUP2 ADD DUP1 SLOAD PUSH1 0xFF NOT AND PUSH1 0x1 SWAP1 DUP2 OR SWAP1 SWAP2 SSTORE TIMESTAMP PUSH1 0x5 DUP4 ADD DUP2 SWAP1 SSTORE PUSH1 0x7 DUP4 ADD DUP2 SWAP1 SSTORE PUSH1 0x1 PUSH1 0x1 PUSH1 0xA0 SHL SUB DUP6 AND PUSH1 0x0 DUP2 DUP2 MSTORE PUSH1 0x20 SWAP4 DUP5 MSTORE PUSH1 0x40 SWAP1 DUP2 SWAP1 KECCAK256 SLOAD PUSH1 0x4 DUP7 ADD SSTORE MLOAD SWAP2 DUP3 MSTORE SWAP2 PUSH32 0x79A18691D9845D93F3A7276C16D1737E190DA43060FA3FB2049F02DBF50A3D9A SWAP2 ADD JUMPDEST PUSH1 0x40 MLOAD DUP1 SWAP2 SUB SWAP1 LOG2 POP POP POP JUMP JUMPDEST CALLER PUSH1 0x0 SWAP1 DUP2 MSTORE PUSH1 0x20 DUP2 SWAP1 MSTORE PUSH1 0x40 SWAP1 KECCAK256 SLOAD PUSH1 0xFF AND PUSH2 0x1506 JUMPI PUSH1 0x40 MLOAD PUSH4 0xABA47339 PUSH1 0xE0 SHL DUP2 MSTORE PUSH1 0x4 ADD PUSH1 0x40 MLOAD DUP1 SWAP2 SUB SWAP1 REVERT JUMPDEST CALLER PUSH1 0x0 SWAP1 DUP2 MSTORE PUSH1 0x4 PUSH1 0x20 SWAP1 DUP2 MSTORE PUSH1 0x40 DUP1 DUP4 KECCAK256 PUSH1 0x1 PUSH1 0x1 PUSH1 0xA0 SHL SUB DUP6 DUP2 AND DUP6 MSTORE SWAP3 MSTORE SWAP1 SWAP2 KECCAK256 PUSH1 0x1 ADD SLOAD AND PUSH2 0x154C JUMPI PUSH1 0x40 MLOAD PUSH4 0x694F351F PUSH1 0xE0 SHL DUP2 MSTORE PUSH1 0x4 ADD PUSH1 0x40 MLOAD DUP1 SWAP2 SUB SWAP1 REVERT JUMPDEST CALLER PUSH1 0x0 DUP2 DUP2 MSTORE PUSH1 0x4 PUSH1 0x20 SWAP1 DUP2 MSTORE PUSH1 0x40 DUP1 DUP4 KECCAK256 PUSH1 0x1 PUSH1 0x1 PUSH1 0xA0 SHL SUB DUP7 AND DUP5 MSTORE DUP3 MSTORE DUP1 DUP4 KECCAK256 PUSH1 0x2 ADD SLOAD SWAP4 DUP4 MSTORE SWAP1 DUP3 SWAP1 MSTORE DUP2 KECCAK256 PUSH1 0x6 ADD DUP1 SLOAD DUP4 SWAP3 SWAP1 PUSH2 0x158F SWAP1 DUP5 SWAP1 PUSH2 0x2550 JUMP JUMPDEST SWAP1 SWAP2 SSTORE POP POP CALLER PUSH1 0x0 SWAP1 DUP2 MSTORE PUSH1 0x4 PUSH1 0x20 SWAP1 DUP2 MSTORE PUSH1 0x40 DUP1 DUP4 KECCAK256 PUSH1 0x1 PUSH1 0x1 PUSH1 0xA0 SHL SUB DUP7 AND DUP5 MSTORE SWAP1 SWAP2 MSTORE DUP2 KECCAK256 SWAP1 PUSH2 0x15C2 DUP3 DUP3 PUSH2 0x2157 JUMP JUMPDEST POP PUSH1 0x1 DUP2 ADD DUP1 SLOAD PUSH1 0x1 PUSH1 0x1 PUSH1 0xA0 SHL SUB NOT AND SWAP1 SSTORE PUSH1 0x0 PUSH1 0x2 DUP3 ADD DUP2 SWAP1 SSTORE PUSH1 0x3 DUP3 ADD DUP2 SWAP1 SSTORE PUSH1 0x4 DUP3 ADD DUP1 SLOAD PUSH1 0xFF NOT AND SWAP1 SSTORE PUSH1 0x5 SWAP2 DUP3 ADD DUP2 SWAP1 SSTORE CALLER DUP2 MSTORE PUSH1 0x20 SWAP2 SWAP1 SWAP2 MSTORE PUSH1 0x40 DUP2 KECCAK256 DUP1 SLOAD SWAP1 SWAP2 JUMPDEST DUP2 DUP2 LT ISZERO PUSH2 0x170C JUMPI DUP5 PUSH1 0x1 PUSH1 0x1 PUSH1 0xA0 SHL SUB AND DUP4 DUP3 DUP2 SLOAD DUP2 LT PUSH2 0x162F JUMPI PUSH2 0x162F PUSH2 0x26AC JUMP JUMPDEST PUSH1 0x0 SWAP2 DUP3 MSTORE PUSH1 0x20 SWAP1 SWAP2 KECCAK256 ADD SLOAD PUSH1 0x1 PUSH1 0x1 PUSH1 0xA0 SHL SUB AND SUB PUSH2 0x16FA JUMPI DUP3 PUSH2 0x1655 PUSH1 0x1 DUP5 PUSH2 0x2550 JUMP JUMPDEST DUP2 SLOAD DUP2 LT PUSH2 0x1665 JUMPI PUSH2 0x1665 PUSH2 0x26AC JUMP JUMPDEST SWAP1 PUSH1 0x0 MSTORE PUSH1 0x20 PUSH1 0x0 KECCAK256 ADD PUSH1 0x0 SWAP1 SLOAD SWAP1 PUSH2 0x100 EXP SWAP1 DIV PUSH1 0x1 PUSH1 0x1 PUSH1 0xA0 SHL SUB AND DUP4 DUP3 DUP2 SLOAD DUP2 LT PUSH2 0x1695 JUMPI PUSH2 0x1695 PUSH2 0x26AC JUMP JUMPDEST SWAP1 PUSH1 0x0 MSTORE PUSH1 0x20 PUSH1 0x0 KECCAK256 ADD PUSH1 0x0 PUSH2 0x100 EXP DUP2 SLOAD DUP2 PUSH1 0x1 PUSH1 0x1 PUSH1 0xA0 SHL SUB MUL NOT AND SWAP1 DUP4 PUSH1 0x1 PUSH1 0x1 PUSH1 0xA0 SHL SUB AND MUL OR SWAP1 SSTORE POP DUP3 DUP1 SLOAD DUP1 PUSH2 0x16D3 JUMPI PUSH2 0x16D3 PUSH2 0x26C2 JUMP JUMPDEST PUSH1 0x0 DUP3 DUP2 MSTORE PUSH1 0x20 SWAP1 KECCAK256 DUP2 ADD PUSH1 0x0 NOT SWAP1 DUP2 ADD DUP1 SLOAD PUSH1 0x1 PUSH1 0x1 PUSH1 0xA0 SHL SUB NOT AND SWAP1 SSTORE ADD SWAP1 SSTORE PUSH2 0x170C JUMP JUMPDEST DUP1 PUSH2 0x1704 DUP2 PUSH2 0x26D8 JUMP JUMPDEST SWAP2 POP POP PUSH2 0x160B JUMP JUMPDEST POP PUSH1 0x40 MLOAD PUSH1 0x1 PUSH1 0x1 PUSH1 0xA0 SHL SUB DUP6 AND SWAP1 CALLER SWAP1 PUSH32 0x1A6590BD0CABBFCC7C86BEF99E1034054E179905CFCC294598FCD426C0922442 SWAP1 PUSH1 0x0 SWAP1 LOG3 POP POP POP POP JUMP JUMPDEST CALLER PUSH1 0x0 SWAP1 DUP2 MSTORE PUSH1 0x20 DUP2 SWAP1 MSTORE PUSH1 0x40 SWAP1 KECCAK256 SLOAD PUSH1 0xFF AND PUSH2 0x1779 JUMPI PUSH1 0x40 MLOAD PUSH4 0xABA47339 PUSH1 0xE0 SHL DUP2 MSTORE PUSH1 0x4 ADD PUSH1 0x40 MLOAD DUP1 SWAP2 SUB SWAP1 REVERT JUMPDEST CALLER PUSH1 0x0 SWAP1 DUP2 MSTORE PUSH1 0x20 DUP2 SWAP1 MSTORE PUSH1 0x40 SWAP1 KECCAK256 PUSH1 0x3 DUP2 ADD SLOAD PUSH1 0xFF AND ISZERO PUSH2 0x189B JUMPI PUSH3 0x93A80 DUP2 PUSH1 0x7 ADD SLOAD PUSH2 0x17A8 SWAP2 SWAP1 PUSH2 0x21C3 JUMP JUMPDEST TIMESTAMP GT ISZERO PUSH2 0x17C8 JUMPI PUSH1 0x40 MLOAD PUSH4 0x4B3C3227 PUSH1 0xE1 SHL DUP2 MSTORE PUSH1 0x4 ADD PUSH1 0x40 MLOAD DUP1 SWAP2 SUB SWAP1 REVERT JUMPDEST PUSH1 0x3 DUP2 ADD DUP1 SLOAD PUSH1 0xFF NOT AND SWAP1 SSTORE PUSH1 0x0 PUSH1 0x5 DUP1 DUP4 ADD DUP3 SWAP1 SSTORE PUSH1 0x4 DUP4 ADD DUP3 SWAP1 SSTORE PUSH1 0x7 DUP4 ADD DUP3 SWAP1 SSTORE TIMESTAMP PUSH1 0x1 DUP5 ADD SSTORE CALLER DUP3 MSTORE PUSH1 0x20 MSTORE PUSH1 0x40 DUP2 KECCAK256 DUP1 SLOAD SWAP1 SWAP2 JUMPDEST DUP2 DUP2 LT ISZERO PUSH2 0x1868 JUMPI CALLER PUSH1 0x0 SWAP1 DUP2 MSTORE PUSH1 0x4 PUSH1 0x20 MSTORE PUSH1 0x40 DUP2 KECCAK256 DUP5 SLOAD DUP3 SWAP1 DUP7 SWAP1 DUP6 SWAP1 DUP2 LT PUSH2 0x182E JUMPI PUSH2 0x182E PUSH2 0x26AC JUMP JUMPDEST PUSH1 0x0 SWAP2 DUP3 MSTORE PUSH1 0x20 DUP1 DUP4 KECCAK256 SWAP1 SWAP2 ADD SLOAD PUSH1 0x1 PUSH1 0x1 PUSH1 0xA0 SHL SUB AND DUP4 MSTORE DUP3 ADD SWAP3 SWAP1 SWAP3 MSTORE PUSH1 0x40 ADD SWAP1 KECCAK256 PUSH1 0x3 ADD SSTORE DUP1 PUSH2 0x1860 DUP2 PUSH2 0x26D8 JUMP JUMPDEST SWAP2 POP POP PUSH2 0x1801 JUMP JUMPDEST POP PUSH1 0x40 MLOAD TIMESTAMP DUP2 MSTORE CALLER SWAP1 PUSH32 0x5178649125CFF20230F3D21B86A7386E3924B30D642EEA1F977A6668FAB8344C SWAP1 PUSH1 0x20 ADD PUSH2 0x14C9 JUMP JUMPDEST TIMESTAMP PUSH1 0x1 DUP3 ADD DUP2 SWAP1 SSTORE PUSH1 0x40 MLOAD SWAP1 DUP2 MSTORE CALLER SWAP1 PUSH32 0xDCEFC94F16BF43DEA53B136BE3C49B2418F70B051A322B89F92F7739D65548EA SWAP1 PUSH1 0x20 ADD JUMPDEST PUSH1 0x40 MLOAD DUP1 SWAP2 SUB SWAP1 LOG2 POP JUMP JUMPDEST CALLER PUSH1 0x0 SWAP1 DUP2 MSTORE PUSH1 0x20 DUP2 SWAP1 MSTORE PUSH1 0x40 SWAP1 KECCAK256 SLOAD PUSH1 0xFF AND PUSH2 0x190C JUMPI PUSH1 0x40 MLOAD PUSH4 0xABA47339 PUSH1 0xE0 SHL DUP2 MSTORE PUSH1 0x4 ADD PUSH1 0x40 MLOAD DUP1 SWAP2 SUB SWAP1 REVERT JUMPDEST CALLER PUSH1 0x0 SWAP1 DUP2 MSTORE PUSH1 0x2 PUSH1 0x20 SWAP1 DUP2 MSTORE PUSH1 0x40 DUP1 DUP4 KECCAK256 PUSH1 0x1 PUSH1 0x1 PUSH1 0xA0 SHL SUB DUP6 DUP2 AND DUP6 MSTORE SWAP3 MSTORE SWAP1 SWAP2 KECCAK256 PUSH1 0x1 ADD SLOAD AND PUSH2 0x1952 JUMPI PUSH1 0x40 MLOAD PUSH4 0x37C5C3A3 PUSH1 0xE2 SHL DUP2 MSTORE PUSH1 0x4 ADD PUSH1 0x40 MLOAD DUP1 SWAP2 SUB SWAP1 REVERT JUMPDEST CALLER PUSH1 0x0 SWAP1 DUP2 MSTORE PUSH1 0x2 PUSH1 0x20 SWAP1 DUP2 MSTORE PUSH1 0x40 DUP1 DUP4 KECCAK256 PUSH1 0x1 PUSH1 0x1 PUSH1 0xA0 SHL SUB DUP6 AND DUP5 MSTORE SWAP1 SWAP2 MSTORE SWAP1 KECCAK256 PUSH1 0x1 ADD SLOAD PUSH1 0x1 PUSH1 0xA0 SHL SWAP1 DIV PUSH1 0xFF AND ISZERO PUSH2 0x19A1 JUMPI PUSH1 0x40 MLOAD PUSH4 0x51C65DB PUSH1 0xE0 SHL DUP2 MSTORE PUSH1 0x4 ADD PUSH1 0x40 MLOAD DUP1 SWAP2 SUB SWAP1 REVERT JUMPDEST CALLER PUSH1 0x0 SWAP1 DUP2 MSTORE PUSH1 0x2 PUSH1 0x20 SWAP1 DUP2 MSTORE PUSH1 0x40 DUP1 DUP4 KECCAK256 PUSH1 0x1 PUSH1 0x1 PUSH1 0xA0 SHL SUB DUP6 AND DUP5 MSTORE SWAP1 SWAP2 MSTORE DUP2 KECCAK256 SWAP1 PUSH2 0x19CF DUP3 DUP3 PUSH2 0x2157 JUMP JUMPDEST POP PUSH1 0x1 ADD DUP1 SLOAD PUSH1 0x1 PUSH1 0x1 PUSH1 0xA8 SHL SUB NOT AND SWAP1 SSTORE CALLER PUSH1 0x0 SWAP1 DUP2 MSTORE PUSH1 0x3 PUSH1 0x20 MSTORE PUSH1 0x40 DUP2 KECCAK256 DUP1 SLOAD SWAP1 SWAP2 JUMPDEST DUP2 DUP2 LT ISZERO PUSH2 0x1AF6 JUMPI DUP4 PUSH1 0x1 PUSH1 0x1 PUSH1 0xA0 SHL SUB AND DUP4 DUP3 DUP2 SLOAD DUP2 LT PUSH2 0x1A19 JUMPI PUSH2 0x1A19 PUSH2 0x26AC JUMP JUMPDEST PUSH1 0x0 SWAP2 DUP3 MSTORE PUSH1 0x20 SWAP1 SWAP2 KECCAK256 ADD SLOAD PUSH1 0x1 PUSH1 0x1 PUSH1 0xA0 SHL SUB AND SUB PUSH2 0x1AE4 JUMPI DUP3 PUSH2 0x1A3F PUSH1 0x1 DUP5 PUSH2 0x2550 JUMP JUMPDEST DUP2 SLOAD DUP2 LT PUSH2 0x1A4F JUMPI PUSH2 0x1A4F PUSH2 0x26AC JUMP JUMPDEST SWAP1 PUSH1 0x0 MSTORE PUSH1 0x20 PUSH1 0x0 KECCAK256 ADD PUSH1 0x0 SWAP1 SLOAD SWAP1 PUSH2 0x100 EXP SWAP1 DIV PUSH1 0x1 PUSH1 0x1 PUSH1 0xA0 SHL SUB AND DUP4 DUP3 DUP2 SLOAD DUP2 LT PUSH2 0x1A7F JUMPI PUSH2 0x1A7F PUSH2 0x26AC JUMP JUMPDEST SWAP1 PUSH1 0x0 MSTORE PUSH1 0x20 PUSH1 0x0 KECCAK256 ADD PUSH1 0x0 PUSH2 0x100 EXP DUP2 SLOAD DUP2 PUSH1 0x1 PUSH1 0x1 PUSH1 0xA0 SHL SUB MUL NOT AND SWAP1 DUP4 PUSH1 0x1 PUSH1 0x1 PUSH1 0xA0 SHL SUB AND MUL OR SWAP1 SSTORE POP DUP3 DUP1 SLOAD DUP1 PUSH2 0x1ABD JUMPI PUSH2 0x1ABD PUSH2 0x26C2 JUMP JUMPDEST PUSH1 0x0 DUP3 DUP2 MSTORE PUSH1 0x20 SWAP1 KECCAK256 DUP2 ADD PUSH1 0x0 NOT SWAP1 DUP2 ADD DUP1 SLOAD PUSH1 0x1 PUSH1 0x1 PUSH1 0xA0 SHL SUB NOT AND SWAP1 SSTORE ADD SWAP1 SSTORE PUSH2 0x1AF6 JUMP JUMPDEST DUP1 PUSH2 0x1AEE DUP2 PUSH2 0x26D8 JUMP JUMPDEST SWAP2 POP POP PUSH2 0x19F5 JUMP JUMPDEST POP PUSH1 0x40 MLOAD PUSH1 0x1 PUSH1 0x1 PUSH1 0xA0 SHL SUB DUP5 AND SWAP1 CALLER SWAP1 PUSH32 0xEE943CDB81826D5909C559C6B1AE6908FCAF2DBC16C4B730346736B486283E8B SWAP1 PUSH1 0x0 SWAP1 LOG3 POP POP POP JUMP JUMPDEST PUSH1 0x1 PUSH1 0x1 PUSH1 0xA0 SHL SUB DUP3 AND PUSH1 0x0 SWAP1 DUP2 MSTORE PUSH1 0x3 PUSH1 0x20 MSTORE PUSH1 0x40 DUP2 KECCAK256 SLOAD DUP3 LT PUSH2 0x1B6A JUMPI PUSH1 0x40 MLOAD PUSH4 0x4E23D035 PUSH1 0xE0 SHL DUP2 MSTORE PUSH1 0x4 ADD PUSH1 0x40 MLOAD DUP1 SWAP2 SUB SWAP1 REVERT JUMPDEST PUSH1 0x1 PUSH1 0x1 PUSH1 0xA0 SHL SUB DUP4 AND PUSH1 0x0 SWAP1 DUP2 MSTORE PUSH1 0x3 PUSH1 0x20 MSTORE PUSH1 0x40 SWAP1 KECCAK256 DUP1 SLOAD DUP4 SWAP1 DUP2 LT PUSH2 0x1B94 JUMPI PUSH2 0x1B94 PUSH2 0x26AC JUMP JUMPDEST PUSH1 0x0 SWAP2 DUP3 MSTORE PUSH1 0x20 SWAP1 SWAP2 KECCAK256 ADD SLOAD PUSH1 0x1 PUSH1 0x1 PUSH1 0xA0 SHL SUB AND SWAP1 POP JUMPDEST SWAP3 SWAP2 POP POP JUMP JUMPDEST PUSH1 0x1 PUSH1 0x1 PUSH1 0xA0 SHL SUB DUP3 AND PUSH1 0x0 SWAP1 DUP2 MSTORE PUSH1 0x5 PUSH1 0x20 MSTORE PUSH1 0x40 DUP2 KECCAK256 SLOAD DUP3 LT PUSH2 0x1BEA JUMPI PUSH1 0x40 MLOAD PUSH4 0x4E23D035 PUSH1 0xE0 SHL DUP2 MSTORE PUSH1 0x4 ADD PUSH1 0x40 MLOAD DUP1 SWAP2 SUB SWAP1 REVERT JUMPDEST PUSH1 0x1 PUSH1 0x1 PUSH1 0xA0 SHL SUB DUP4 AND PUSH1 0x0 SWAP1 DUP2 MSTORE PUSH1 0x5 PUSH1 0x20 MSTORE PUSH1 0x40 SWAP1 KECCAK256 DUP1 SLOAD DUP4 SWAP1 DUP2 LT PUSH2 0x1B94 JUMPI PUSH2 0x1B94 PUSH2 0x26AC JUMP JUMPDEST CALLER PUSH1 0x0 SWAP1 DUP2 MSTORE PUSH1 0x20 DUP2 SWAP1 MSTORE PUSH1 0x40 SWAP1 KECCAK256 SLOAD PUSH1 0xFF AND PUSH2 0x1C44 JUMPI PUSH1 0x40 MLOAD PUSH4 0xABA47339 PUSH1 0xE0 SHL DUP2 MSTORE PUSH1 0x4 ADD PUSH1 0x40 MLOAD DUP1 SWAP2 SUB SWAP1 REVERT JUMPDEST CALLER PUSH1 0x0 SWAP1 DUP2 MSTORE PUSH1 0x2 PUSH1 0x20 SWAP1 DUP2 MSTORE PUSH1 0x40 DUP1 DUP4 KECCAK256 PUSH1 0x1 PUSH1 0x1 PUSH1 0xA0 SHL SUB DUP7 DUP2 AND DUP6 MSTORE SWAP3 MSTORE SWAP1 SWAP2 KECCAK256 PUSH1 0x1 ADD SLOAD AND PUSH2 0x1C8A JUMPI PUSH1 0x40 MLOAD PUSH4 0x37C5C3A3 PUSH1 0xE2 SHL DUP2 MSTORE PUSH1 0x4 ADD PUSH1 0x40 MLOAD DUP1 SWAP2 SUB SWAP1 REVERT JUMPDEST CALLER PUSH1 0x0 DUP2 DUP2 MSTORE PUSH1 0x2 PUSH1 0x20 SWAP1 DUP2 MSTORE PUSH1 0x40 DUP1 DUP4 KECCAK256 PUSH1 0x1 PUSH1 0x1 PUSH1 0xA0 SHL SUB DUP8 AND DUP1 DUP6 MSTORE SWAP3 MSTORE SWAP2 DUP3 SWAP1 KECCAK256 PUSH1 0x1 ADD DUP1 SLOAD DUP6 ISZERO ISZERO PUSH1 0x1 PUSH1 0xA0 SHL MUL PUSH1 0xFF PUSH1 0xA0 SHL NOT SWAP1 SWAP2 AND OR SWAP1 SSTORE SWAP1 MLOAD SWAP1 SWAP2 SWAP1 PUSH32 0xEA39C92A08A5C775F8B77F8813F0C227D5AE58F04E182B81B62D37A24107484F SWAP1 PUSH2 0x1CFF SWAP1 DUP6 ISZERO ISZERO DUP2 MSTORE PUSH1 0x20 ADD SWAP1 JUMP JUMPDEST PUSH1 0x40 MLOAD DUP1 SWAP2 SUB SWAP1 LOG3 POP POP JUMP JUMPDEST PUSH1 0x1 PUSH1 0x1 PUSH1 0xA0 SHL SUB DUP1 DUP4 AND PUSH1 0x0 SWAP1 DUP2 MSTORE PUSH1 0x20 DUP2 DUP2 MSTORE PUSH1 0x40 DUP1 DUP4 KECCAK256 PUSH1 0x4 DUP4 MSTORE DUP2 DUP5 KECCAK256 SWAP5 DUP7 AND DUP5 MSTORE SWAP4 SWAP1 SWAP2 MSTORE DUP2 KECCAK256 PUSH1 0x3 DUP4 ADD SLOAD SWAP2 SWAP3 DUP4 SWAP3 DUP4 SWAP3 SWAP1 PUSH1 0xFF AND PUSH2 0x1D63 JUMPI PUSH1 0x40 MLOAD PUSH4 0x759D4E61 PUSH1 0xE1 SHL DUP2 MSTORE PUSH1 0x4 ADD PUSH1 0x40 MLOAD DUP1 SWAP2 SUB SWAP1 REVERT JUMPDEST PUSH1 0x1 DUP2 ADD SLOAD PUSH1 0x1 PUSH1 0x1 PUSH1 0xA0 SHL SUB AND PUSH2 0x1D8E JUMPI PUSH1 0x40 MLOAD PUSH4 0x644D871F PUSH1 0xE0 SHL DUP2 MSTORE PUSH1 0x4 ADD PUSH1 0x40 MLOAD DUP1 SWAP2 SUB SWAP1 REVERT JUMPDEST PUSH3 0x93A80 DUP3 PUSH1 0x7 ADD SLOAD PUSH2 0x1DA1 SWAP2 SWAP1 PUSH2 0x21C3 JUMP JUMPDEST TIMESTAMP GT PUSH2 0x1DB9 JUMPI PUSH1 0x0 DUP1 PUSH1 0x0 SWAP5 POP SWAP5 POP SWAP5 POP POP POP PUSH2 0x1E74 JUMP JUMPDEST PUSH2 0x2710 DUP2 PUSH1 0x2 ADD SLOAD DUP4 PUSH1 0x4 ADD SLOAD PUSH2 0x1DD0 SWAP2 SWAP1 PUSH2 0x2517 JUMP JUMPDEST PUSH2 0x1DDA SWAP2 SWAP1 PUSH2 0x252E JUMP JUMPDEST SWAP4 POP DUP1 PUSH1 0x3 ADD SLOAD SWAP3 POP PUSH1 0x0 DUP3 PUSH1 0x5 ADD SLOAD TIMESTAMP PUSH2 0x1DF5 SWAP2 SWAP1 PUSH2 0x2550 JUMP JUMPDEST SWAP1 POP PUSH1 0x0 PUSH1 0x1 PUSH1 0x4 DUP5 ADD SLOAD PUSH1 0xFF AND PUSH1 0x1 DUP2 GT ISZERO PUSH2 0x1E14 JUMPI PUSH2 0x1E14 PUSH2 0x2461 JUMP JUMPDEST SUB PUSH2 0x1E2C JUMPI DUP3 PUSH1 0x5 ADD SLOAD DUP3 LT PUSH2 0x1E27 JUMPI POP DUP5 JUMPDEST PUSH2 0x1E5A JUMP JUMPDEST DUP3 PUSH1 0x5 ADD SLOAD DUP3 LT PUSH2 0x1E3E JUMPI POP DUP5 PUSH2 0x1E5A JUMP JUMPDEST PUSH1 0x5 DUP4 ADD SLOAD PUSH2 0x1E4D DUP4 DUP9 PUSH2 0x2517 JUMP JUMPDEST PUSH2 0x1E57 SWAP2 SWAP1 PUSH2 0x252E JUMP JUMPDEST SWAP1 POP JUMPDEST DUP5 DUP2 GT ISZERO PUSH2 0x1E6F JUMPI PUSH2 0x1E6C DUP6 DUP3 PUSH2 0x2550 JUMP JUMPDEST SWAP7 POP JUMPDEST POP POP POP POP JUMPDEST SWAP3 POP SWAP3 POP SWAP3 JUMP JUMPDEST CALLER PUSH1 0x0 SWAP1 DUP2 MSTORE PUSH1 0x20 DUP2 SWAP1 MSTORE PUSH1 0x40 SWAP1 KECCAK256 SLOAD PUSH1 0xFF AND PUSH2 0x1EAB JUMPI PUSH1 0x40 MLOAD PUSH4 0xABA47339 PUSH1 0xE0 SHL DUP2 MSTORE PUSH1 0x4 ADD PUSH1 0x40 MLOAD DUP1 SWAP2 SUB SWAP1 REVERT JUMPDEST PUSH1 0x3C DUP2 LT ISZERO PUSH2 0x1ECD JUMPI PUSH1 0x40 MLOAD PUSH4 0x58C277E7 PUSH1 0xE0 SHL DUP2 MSTORE PUSH1 0x4 ADD PUSH1 0x40 MLOAD DUP1 SWAP2 SUB SWAP1 REVERT JUMPDEST CALLER PUSH1 0x0 DUP2 DUP2 MSTORE PUSH1 0x20 DUP2 DUP2 MSTORE PUSH1 0x40 SWAP2 DUP3 SWAP1 KECCAK256 PUSH1 0x2 ADD DUP5 SWAP1 SSTORE SWAP1 MLOAD DUP4 DUP2 MSTORE PUSH32 0xA4D780A276EB469A8A23984707D159B7887C3F1D43E2CC22A91CEA75FAEA9EC3 SWAP2 ADD PUSH2 0x18D1 JUMP JUMPDEST CALLER PUSH1 0x0 SWAP1 DUP2 MSTORE PUSH1 0x20 DUP2 SWAP1 MSTORE PUSH1 0x40 SWAP1 KECCAK256 SLOAD PUSH1 0xFF AND PUSH2 0x1F41 JUMPI PUSH1 0x40 MLOAD PUSH4 0xABA47339 PUSH1 0xE0 SHL DUP2 MSTORE PUSH1 0x4 ADD PUSH1 0x40 MLOAD DUP1 SWAP2 SUB SWAP1 REVERT JUMPDEST CALLVALUE PUSH1 0x0 SUB PUSH2 0x1F62 JUMPI PUSH1 0x40 MLOAD PUSH4 0xF2365B5B PUSH1 0xE0 SHL DUP2 MSTORE PUSH1 0x4 ADD PUSH1 0x40 MLOAD DUP1 SWAP2 SUB SWAP1 REVERT JUMPDEST CALLER PUSH1 0x0 SWAP1 DUP2 MSTORE PUSH1 0x1 PUSH1 0x20 MSTORE PUSH1 0x40 DUP2 KECCAK256 DUP1 SLOAD CALLVALUE SWAP3 SWAP1 PUSH2 0x1F81 SWAP1 DUP5 SWAP1 PUSH2 0x21C3 JUMP JUMPDEST SWAP1 SWAP2 SSTORE POP POP PUSH1 0x40 MLOAD CALLVALUE DUP2 MSTORE CALLER SWAP1 PUSH32 0x543BA50A5EEC5E6178218E364B1D0F396157B3C8FA278522C2CB7FD99407D474 SWAP1 PUSH1 0x20 ADD PUSH1 0x40 MLOAD DUP1 SWAP2 SUB SWAP1 LOG2 JUMP JUMPDEST PUSH1 0x1 PUSH1 0x1 PUSH1 0xA0 SHL SUB DUP2 AND PUSH1 0x0 SWAP1 DUP2 MSTORE PUSH1 0x20 DUP2 SWAP1 MSTORE PUSH1 0x40 DUP2 KECCAK256 PUSH1 0x3 DUP2 ADD SLOAD DUP3 SWAP2 SWAP1 PUSH1 0xFF AND PUSH2 0x1FF0 JUMPI POP PUSH1 0x0 SWAP4 DUP5 SWAP4 POP SWAP2 POP POP JUMP JUMPDEST PUSH1 0x0 PUSH3 0x93A80 DUP3 PUSH1 0x7 ADD SLOAD PUSH2 0x2005 SWAP2 SWAP1 PUSH2 0x21C3 JUMP JUMPDEST SWAP1 POP DUP1 TIMESTAMP LT PUSH2 0x201B JUMPI POP PUSH1 0x0 SWAP5 DUP6 SWAP5 POP SWAP3 POP POP POP JUMP JUMPDEST PUSH1 0x1 PUSH2 0x2027 TIMESTAMP DUP4 PUSH2 0x2550 JUMP JUMPDEST SWAP4 POP SWAP4 POP POP POP SWAP2 POP SWAP2 JUMP JUMPDEST CALLER PUSH1 0x0 SWAP1 DUP2 MSTORE PUSH1 0x20 DUP2 SWAP1 MSTORE PUSH1 0x40 SWAP1 KECCAK256 SLOAD PUSH1 0xFF AND ISZERO PUSH2 0x2063 JUMPI PUSH1 0x40 MLOAD PUSH4 0xEA075BF PUSH1 0xE2 SHL DUP2 MSTORE PUSH1 0x4 ADD PUSH1 0x40 MLOAD DUP1 SWAP2 SUB SWAP1 REVERT JUMPDEST PUSH1 0x3C DUP2 LT ISZERO PUSH2 0x2085 JUMPI PUSH1 0x40 MLOAD PUSH4 0x58C277E7 PUSH1 0xE0 SHL DUP2 MSTORE PUSH1 0x4 ADD PUSH1 0x40 MLOAD DUP1 SWAP2 SUB SWAP1 REVERT JUMPDEST PUSH1 0x40 DUP1 MLOAD PUSH2 0x100 DUP2 ADD DUP3 MSTORE PUSH1 0x1 DUP1 DUP3 MSTORE TIMESTAMP PUSH1 0x20 DUP1 DUP5 ADD SWAP2 DUP3 MSTORE DUP4 DUP6 ADD DUP7 DUP2 MSTORE PUSH1 0x0 PUSH1 0x60 DUP7 ADD DUP2 DUP2 MSTORE PUSH1 0x80 DUP8 ADD DUP3 DUP2 MSTORE PUSH1 0xA0 DUP9 ADD DUP4 DUP2 MSTORE PUSH1 0xC0 DUP10 ADD DUP5 DUP2 MSTORE PUSH1 0xE0 DUP11 ADD DUP6 DUP2 MSTORE CALLER DUP1 DUP8 MSTORE SWAP8 DUP7 SWAP1 MSTORE SWAP5 DUP12 SWAP1 KECCAK256 SWAP10 MLOAD DUP11 SLOAD SWAP1 ISZERO ISZERO PUSH1 0xFF NOT SWAP2 DUP3 AND OR DUP12 SSTORE SWAP8 MLOAD SWAP9 DUP11 ADD SWAP9 SWAP1 SWAP9 SSTORE SWAP4 MLOAD PUSH1 0x2 DUP10 ADD SSTORE SWAP1 MLOAD PUSH1 0x3 DUP9 ADD DUP1 SLOAD SWAP2 ISZERO ISZERO SWAP2 SWAP1 SWAP7 AND OR SWAP1 SWAP5 SSTORE SWAP3 MLOAD PUSH1 0x4 DUP7 ADD SSTORE MLOAD PUSH1 0x5 DUP6 ADD SSTORE SWAP2 MLOAD PUSH1 0x6 DUP5 ADD SSTORE MLOAD PUSH1 0x7 SWAP1 SWAP3 ADD SWAP2 SWAP1 SWAP2 SSTORE SWAP1 MLOAD PUSH32 0xA4D780A276EB469A8A23984707D159B7887C3F1D43E2CC22A91CEA75FAEA9EC3 SWAP1 PUSH2 0x18D1 SWAP1 DUP5 DUP2 MSTORE PUSH1 0x20 ADD SWAP1 JUMP JUMPDEST POP DUP1 SLOAD PUSH2 0x2163 SWAP1 PUSH2 0x2563 JUMP JUMPDEST PUSH1 0x0 DUP3 SSTORE DUP1 PUSH1 0x1F LT PUSH2 0x2173 JUMPI POP POP JUMP JUMPDEST PUSH1 0x1F ADD PUSH1 0x20 SWAP1 DIV SWAP1 PUSH1 0x0 MSTORE PUSH1 0x20 PUSH1 0x0 KECCAK256 SWAP1 DUP2 ADD SWAP1 PUSH2 0x2191 SWAP2 SWAP1 PUSH2 0x2194 JUMP JUMPDEST POP JUMP JUMPDEST JUMPDEST DUP1 DUP3 GT ISZERO PUSH2 0x21A9 JUMPI PUSH1 0x0 DUP2 SSTORE PUSH1 0x1 ADD PUSH2 0x2195 JUMP JUMPDEST POP SWAP1 JUMP JUMPDEST PUSH4 0x4E487B71 PUSH1 0xE0 SHL PUSH1 0x0 MSTORE PUSH1 0x11 PUSH1 0x4 MSTORE PUSH1 0x24 PUSH1 0x0 REVERT JUMPDEST DUP1 DUP3 ADD DUP1 DUP3 GT ISZERO PUSH2 0x1BAC JUMPI PUSH2 0x1BAC PUSH2 0x21AD JUMP JUMPDEST DUP1 CALLDATALOAD PUSH1 0x1 PUSH1 0x1 PUSH1 0xA0 SHL SUB DUP2 AND DUP2 EQ PUSH2 0x21ED JUMPI PUSH1 0x0 DUP1 REVERT JUMPDEST SWAP2 SWAP1 POP JUMP JUMPDEST PUSH1 0x0 PUSH1 0x20 DUP3 DUP5 SUB SLT ISZERO PUSH2 0x2204 JUMPI PUSH1 0x0 DUP1 REVERT JUMPDEST PUSH2 0x220D DUP3 PUSH2 0x21D6 JUMP JUMPDEST SWAP4 SWAP3 POP POP POP JUMP JUMPDEST PUSH4 0x4E487B71 PUSH1 0xE0 SHL PUSH1 0x0 MSTORE PUSH1 0x41 PUSH1 0x4 MSTORE PUSH1 0x24 PUSH1 0x0 REVERT JUMPDEST PUSH1 0x0 DUP3 PUSH1 0x1F DUP4 ADD SLT PUSH2 0x223B JUMPI PUSH1 0x0 DUP1 REVERT JUMPDEST DUP2 CALLDATALOAD PUSH8 0xFFFFFFFFFFFFFFFF DUP1 DUP3 GT ISZERO PUSH2 0x2256 JUMPI PUSH2 0x2256 PUSH2 0x2214 JUMP JUMPDEST PUSH1 0x40 MLOAD PUSH1 0x1F DUP4 ADD PUSH1 0x1F NOT SWAP1 DUP2 AND PUSH1 0x3F ADD AND DUP2 ADD SWAP1 DUP3 DUP3 GT DUP2 DUP4 LT OR ISZERO PUSH2 0x227E JUMPI PUSH2 0x227E PUSH2 0x2214 JUMP JUMPDEST DUP2 PUSH1 0x40 MSTORE DUP4 DUP2 MSTORE DUP7 PUSH1 0x20 DUP6 DUP9 ADD ADD GT ISZERO PUSH2 0x2297 JUMPI PUSH1 0x0 DUP1 REVERT JUMPDEST DUP4 PUSH1 0x20 DUP8 ADD PUSH1 0x20 DUP4 ADD CALLDATACOPY PUSH1 0x0 PUSH1 0x20 DUP6 DUP4 ADD ADD MSTORE DUP1 SWAP5 POP POP POP POP POP SWAP3 SWAP2 POP POP JUMP JUMPDEST PUSH1 0x0 DUP1 PUSH1 0x40 DUP4 DUP6 SUB SLT ISZERO PUSH2 0x22CA JUMPI PUSH1 0x0 DUP1 REVERT JUMPDEST DUP3 CALLDATALOAD PUSH8 0xFFFFFFFFFFFFFFFF DUP2 GT ISZERO PUSH2 0x22E1 JUMPI PUSH1 0x0 DUP1 REVERT JUMPDEST PUSH2 0x22ED DUP6 DUP3 DUP7 ADD PUSH2 0x222A JUMP JUMPDEST SWAP3 POP POP PUSH2 0x22FC PUSH1 0x20 DUP5 ADD PUSH2 0x21D6 JUMP JUMPDEST SWAP1 POP SWAP3 POP SWAP3 SWAP1 POP JUMP JUMPDEST PUSH1 0x0 PUSH1 0x20 DUP3 DUP5 SUB SLT ISZERO PUSH2 0x2317 JUMPI PUSH1 0x0 DUP1 REVERT JUMPDEST POP CALLDATALOAD SWAP2 SWAP1 POP JUMP JUMPDEST PUSH1 0x0 DUP1 PUSH1 0x0 DUP1 PUSH1 0x0 PUSH1 0xA0 DUP7 DUP9 SUB SLT ISZERO PUSH2 0x2336 JUMPI PUSH1 0x0 DUP1 REVERT JUMPDEST DUP6 CALLDATALOAD PUSH8 0xFFFFFFFFFFFFFFFF DUP2 GT ISZERO PUSH2 0x234D JUMPI PUSH1 0x0 DUP1 REVERT JUMPDEST PUSH2 0x2359 DUP9 DUP3 DUP10 ADD PUSH2 0x222A JUMP JUMPDEST SWAP6 POP POP PUSH2 0x2368 PUSH1 0x20 DUP8 ADD PUSH2 0x21D6 JUMP JUMPDEST SWAP4 POP PUSH1 0x40 DUP7 ADD CALLDATALOAD SWAP3 POP PUSH1 0x60 DUP7 ADD CALLDATALOAD PUSH1 0x2 DUP2 LT PUSH2 0x2383 JUMPI PUSH1 0x0 DUP1 REVERT JUMPDEST SWAP5 SWAP8 SWAP4 SWAP7 POP SWAP2 SWAP5 PUSH1 0x80 ADD CALLDATALOAD SWAP3 SWAP2 POP POP JUMP JUMPDEST PUSH1 0x0 DUP1 PUSH1 0x40 DUP4 DUP6 SUB SLT ISZERO PUSH2 0x23A7 JUMPI PUSH1 0x0 DUP1 REVERT JUMPDEST PUSH2 0x23B0 DUP4 PUSH2 0x21D6 JUMP JUMPDEST SWAP5 PUSH1 0x20 SWAP4 SWAP1 SWAP4 ADD CALLDATALOAD SWAP4 POP POP POP JUMP JUMPDEST PUSH1 0x0 DUP1 PUSH1 0x40 DUP4 DUP6 SUB SLT ISZERO PUSH2 0x23D1 JUMPI PUSH1 0x0 DUP1 REVERT JUMPDEST PUSH2 0x23DA DUP4 PUSH2 0x21D6 JUMP JUMPDEST SWAP2 POP PUSH2 0x22FC PUSH1 0x20 DUP5 ADD PUSH2 0x21D6 JUMP JUMPDEST PUSH1 0x0 DUP2 MLOAD DUP1 DUP5 MSTORE PUSH1 0x0 JUMPDEST DUP2 DUP2 LT ISZERO PUSH2 0x240E JUMPI PUSH1 0x20 DUP2 DUP6 ADD DUP2 ADD MLOAD DUP7 DUP4 ADD DUP3 ADD MSTORE ADD PUSH2 0x23F2 JUMP JUMPDEST POP PUSH1 0x0 PUSH1 0x20 DUP3 DUP7 ADD ADD MSTORE PUSH1 0x20 PUSH1 0x1F NOT PUSH1 0x1F DUP4 ADD AND DUP6 ADD ADD SWAP2 POP POP SWAP3 SWAP2 POP POP JUMP JUMPDEST PUSH1 0x60 DUP2 MSTORE PUSH1 0x0 PUSH2 0x2441 PUSH1 0x60 DUP4 ADD DUP7 PUSH2 0x23E8 JUMP JUMPDEST PUSH1 0x1 PUSH1 0x1 PUSH1 0xA0 SHL SUB SWAP5 SWAP1 SWAP5 AND PUSH1 0x20 DUP4 ADD MSTORE POP SWAP1 ISZERO ISZERO PUSH1 0x40 SWAP1 SWAP2 ADD MSTORE SWAP2 SWAP1 POP JUMP JUMPDEST PUSH4 0x4E487B71 PUSH1 0xE0 SHL PUSH1 0x0 MSTORE PUSH1 0x21 PUSH1 0x4 MSTORE PUSH1 0x24 PUSH1 0x0 REVERT JUMPDEST PUSH1 0xC0 DUP2 MSTORE PUSH1 0x0 PUSH2 0x248A PUSH1 0xC0 DUP4 ADD DUP10 PUSH2 0x23E8 JUMP JUMPDEST PUSH1 0x1 PUSH1 0x1 PUSH1 0xA0 SHL SUB DUP9 AND PUSH1 0x20 DUP5 ADD MSTORE PUSH1 0x40 DUP4 ADD DUP8 SWAP1 MSTORE PUSH1 0x60 DUP4 ADD DUP7 SWAP1 MSTORE SWAP1 POP PUSH1 0x2 DUP5 LT PUSH2 0x24C7 JUMPI PUSH4 0x4E487B71 PUSH1 0xE0 SHL PUSH1 0x0 MSTORE PUSH1 0x21 PUSH1 0x4 MSTORE PUSH1 0x24 PUSH1 0x0 REVERT JUMPDEST PUSH1 0x80 DUP3 ADD SWAP4 SWAP1 SWAP4 MSTORE PUSH1 0xA0 ADD MSTORE SWAP5 SWAP4 POP POP POP POP JUMP JUMPDEST PUSH1 0x0 DUP1 PUSH1 0x40 DUP4 DUP6 SUB SLT ISZERO PUSH2 0x24EE JUMPI PUSH1 0x0 DUP1 REVERT JUMPDEST PUSH2 0x24F7 DUP4 PUSH2 0x21D6 JUMP JUMPDEST SWAP2 POP PUSH1 0x20 DUP4 ADD CALLDATALOAD DUP1 ISZERO ISZERO DUP2 EQ PUSH2 0x250C JUMPI PUSH1 0x0 DUP1 REVERT JUMPDEST DUP1 SWAP2 POP POP SWAP3 POP SWAP3 SWAP1 POP JUMP JUMPDEST DUP1 DUP3 MUL DUP2 ISZERO DUP3 DUP3 DIV DUP5 EQ OR PUSH2 0x1BAC JUMPI PUSH2 0x1BAC PUSH2 0x21AD JUMP JUMPDEST PUSH1 0x0 DUP3 PUSH2 0x254B JUMPI PUSH4 0x4E487B71 PUSH1 0xE0 SHL PUSH1 0x0 MSTORE PUSH1 0x12 PUSH1 0x4 MSTORE PUSH1 0x24 PUSH1 0x0 REVERT JUMPDEST POP DIV SWAP1 JUMP JUMPDEST DUP2 DUP2 SUB DUP2 DUP2 GT ISZERO PUSH2 0x1BAC JUMPI PUSH2 0x1BAC PUSH2 0x21AD JUMP JUMPDEST PUSH1 0x1 DUP2 DUP2 SHR SWAP1 DUP3 AND DUP1 PUSH2 0x2577 JUMPI PUSH1 0x7F DUP3 AND SWAP2 POP JUMPDEST PUSH1 0x20 DUP3 LT DUP2 SUB PUSH2 0x2597 JUMPI PUSH4 0x4E487B71 PUSH1 0xE0 SHL PUSH1 0x0 MSTORE PUSH1 0x22 PUSH1 0x4 MSTORE PUSH1 0x24 PUSH1 0x0 REVERT JUMPDEST POP SWAP2 SWAP1 POP JUMP JUMPDEST PUSH1 0x1F DUP3 GT ISZERO PUSH2 0x25E7 JUMPI PUSH1 0x0 DUP2 DUP2 MSTORE PUSH1 0x20 DUP2 KECCAK256 PUSH1 0x1F DUP6 ADD PUSH1 0x5 SHR DUP2 ADD PUSH1 0x20 DUP7 LT ISZERO PUSH2 0x25C4 JUMPI POP DUP1 JUMPDEST PUSH1 0x1F DUP6 ADD PUSH1 0x5 SHR DUP3 ADD SWAP2 POP JUMPDEST DUP2 DUP2 LT ISZERO PUSH2 0x25E3 JUMPI DUP3 DUP2 SSTORE PUSH1 0x1 ADD PUSH2 0x25D0 JUMP JUMPDEST POP POP POP JUMPDEST POP POP POP JUMP JUMPDEST DUP2 MLOAD PUSH8 0xFFFFFFFFFFFFFFFF DUP2 GT ISZERO PUSH2 0x2606 JUMPI PUSH2 0x2606 PUSH2 0x2214 JUMP JUMPDEST PUSH2 0x261A DUP2 PUSH2 0x2614 DUP5 SLOAD PUSH2 0x2563 JUMP JUMPDEST DUP5 PUSH2 0x259D JUMP JUMPDEST PUSH1 0x20 DUP1 PUSH1 0x1F DUP4 GT PUSH1 0x1 DUP2 EQ PUSH2 0x264F JUMPI PUSH1 0x0 DUP5 ISZERO PUSH2 0x2637 JUMPI POP DUP6 DUP4 ADD MLOAD JUMPDEST PUSH1 0x0 NOT PUSH1 0x3 DUP7 SWAP1 SHL SHR NOT AND PUSH1 0x1 DUP6 SWAP1 SHL OR DUP6 SSTORE PUSH2 0x25E3 JUMP JUMPDEST PUSH1 0x0 DUP6 DUP2 MSTORE PUSH1 0x20 DUP2 KECCAK256 PUSH1 0x1F NOT DUP7 AND SWAP2 JUMPDEST DUP3 DUP2 LT ISZERO PUSH2 0x267E JUMPI DUP9 DUP7 ADD MLOAD DUP3 SSTORE SWAP5 DUP5 ADD SWAP5 PUSH1 0x1 SWAP1 SWAP2 ADD SWAP1 DUP5 ADD PUSH2 0x265F JUMP JUMPDEST POP DUP6 DUP3 LT ISZERO PUSH2 0x269C JUMPI DUP8 DUP6 ADD MLOAD PUSH1 0x0 NOT PUSH1 0x3 DUP9 SWAP1 SHL PUSH1 0xF8 AND SHR NOT AND DUP2 SSTORE JUMPDEST POP POP POP POP POP PUSH1 0x1 SWAP1 DUP2 SHL ADD SWAP1 SSTORE POP JUMP JUMPDEST PUSH4 0x4E487B71 PUSH1 0xE0 SHL PUSH1 0x0 MSTORE PUSH1 0x32 PUSH1 0x4 MSTORE PUSH1 0x24 PUSH1 0x0 REVERT JUMPDEST PUSH4 0x4E487B71 PUSH1 0xE0 SHL PUSH1 0x0 MSTORE PUSH1 0x31 PUSH1 0x4 MSTORE PUSH1 0x24 PUSH1 0x0 REVERT JUMPDEST PUSH1 0x0 PUSH1 0x1 DUP3 ADD PUSH2 0x26EA JUMPI PUSH2 0x26EA PUSH2 0x21AD JUMP JUMPDEST POP PUSH1 0x1 ADD SWAP1 JUMP INVALID LOG2 PUSH5 0x6970667358 0x22 SLT KECCAK256 0xE 0xF6 MSIZE POP 0xD1 0xCB 0xD5 DUP11 0x4D LOG4 PUSH4 0x427A0874 0xAD SLOAD 0xE3 0xCC 0xA9 0x5C PUSH21 0x60CE9186F988FF22A11164736F6C63430008140033 "},"methodIdentifiers":{"MAX_BENEFICIARIES()":"2348dd18","MAX_GUARDIANS()":"422c1d37","MIN_THRESHOLD()":"bd11c4c0","REVIVE_GRACE_PERIOD()":"36c79d52","addBeneficiary(string,address,uint256,uint8,uint256)":"35f93867","addGuardian(string,address)":"20292859","beneficiaries(address,address)":"460e7398","beneficiaryLists(address,uint256)":"3a6708e2","claim(address)":"1e83409a","confirmInactivity(address)":"50b8c372","deposit()":"d0e30db0","getBeneficiaryAt(address,uint256)":"8b9676a7","getBeneficiaryCount(address)":"2423c7f3","getClaimableAmount(address,address)":"bb7dbfe7","getGuardianAt(address,uint256)":"7e6929ae","getGuardianCount(address)":"cb60ee24","getOwnerBalance(address)":"7fcf440a","getReviveStatus(address)":"e1a253d9","guardianLists(address,uint256)":"4036cec2","guardians(address,address)":"44813081","isOwner(address)":"2f54bf6e","ownerBalances(address)":"e3538bc1","protocols(address)":"26638a0a","proveLife()":"5bd61f23","register(uint256)":"f207564e","removeBeneficiary(address)":"59633a1c","removeGuardian(address)":"71404156","setGuardianFixed(address,bool)":"8c1334b2","updateInactivityThreshold(uint256)":"be3f2280","withdraw(uint256)":"2e1a7d4d"}}}}}