{
  "_format": "hh-sol-artifact-1",
  "contractName": "AfterLife",
  "sourceName": "contracts/AfterLife.sol",
  "abi": [
    {
      "inputs": [],
      "name": "AllocationExceeds100Percent",
      "type": "error"
    },
    {
      "inputs": [],
      "name": "AlreadyDead",
      "type": "error"
    },
    {
      "inputs": [],
      "name": "AlreadyRegistered",
      "type": "error"
    },
    {
      "inputs": [],
      "name": "BeneficiaryExists",
      "type": "error"
    },
    {
      "inputs": [],
      "name": "BeneficiaryNotFound",
      "type": "error"
    },
    {
      "inputs": [],
      "name": "CannotBeSelf",
      "type": "error"
    },
    {
      "inputs": [],
      "name": "EmptyString",
      "type": "error"
    },
    {
      "inputs": [],
      "name": "FixedGuardian",
      "type": "error"
    },
    {
      "inputs": [],
      "name": "GracePeriodActive",
      "type": "error"
    },
    {
      "inputs": [],
      "name": "GracePeriodExpired",
      "type": "error"
    },
    {
      "inputs": [],
      "name": "GuardianExists",
      "type": "error"
    },
    {
      "inputs": [],
      "name": "GuardianNotFound",
      "type": "error"
    },
    {
      "inputs": [],
      "name": "IndexOutOfBounds",
      "type": "error"
    },
    {
      "inputs": [],
      "name": "InsufficientBalance",
      "type": "error"
    },
    {
      "inputs": [],
      "name": "NoReentrancy",
      "type": "error"
    },
    {
      "inputs": [],
      "name": "NoValue",
      "type": "error"
    },
    {
      "inputs": [],
      "name": "NotBeneficiary",
      "type": "error"
    },
    {
      "inputs": [],
      "name": "NotGuardian",
      "type": "error"
    },
    {
      "inputs": [],
      "name": "NotRegistered",
      "type": "error"
    },
    {
      "inputs": [],
      "name": "NothingToClaim",
      "type": "error"
    },
    {
      "inputs": [],
      "name": "OwnerStillActive",
      "type": "error"
    },
    {
      "inputs": [],
      "name": "ProtocolActive",
      "type": "error"
    },
    {
      "inputs": [],
      "name": "ProtocolDead",
      "type": "error"
    },
    {
      "inputs": [],
      "name": "ThresholdTooShort",
      "type": "error"
    },
    {
      "inputs": [],
      "name": "TooManyBeneficiaries",
      "type": "error"
    },
    {
      "inputs": [],
      "name": "TooManyGuardians",
      "type": "error"
    },
    {
      "inputs": [],
      "name": "UseDepositFunction",
      "type": "error"
    },
    {
      "inputs": [],
      "name": "VaultInsolvency",
      "type": "error"
    },
    {
      "inputs": [],
      "name": "VestingNotStarted",
      "type": "error"
    },
    {
      "inputs": [],
      "name": "ZeroAddress",
      "type": "error"
    },
    {
      "inputs": [],
      "name": "ZeroAllocation",
      "type": "error"
    },
    {
      "inputs": [],
      "name": "ZeroAmount",
      "type": "error"
    },
    {
      "inputs": [],
      "name": "ZeroDuration",
      "type": "error"
    },
    {
      "anonymous": false,
      "inputs": [
        {
          "indexed": true,
          "internalType": "address",
          "name": "owner",
          "type": "address"
        },
        {
          "indexed": true,
          "internalType": "address",
          "name": "wallet",
          "type": "address"
        },
        {
          "indexed": false,
          "internalType": "uint256",
          "name": "allocation",
          "type": "uint256"
        }
      ],
      "name": "BeneficiaryAdded",
      "type": "event"
    },
    {
      "anonymous": false,
      "inputs": [
        {
          "indexed": true,
          "internalType": "address",
          "name": "owner",
          "type": "address"
        },
        {
          "indexed": true,
          "internalType": "address",
          "name": "wallet",
          "type": "address"
        }
      ],
      "name": "BeneficiaryRemoved",
      "type": "event"
    },
    {
      "anonymous": false,
      "inputs": [
        {
          "indexed": true,
          "internalType": "address",
          "name": "owner",
          "type": "address"
        },
        {
          "indexed": true,
          "internalType": "address",
          "name": "beneficiary",
          "type": "address"
        },
        {
          "indexed": false,
          "internalType": "uint256",
          "name": "amount",
          "type": "uint256"
        }
      ],
      "name": "FundsClaimed",
      "type": "event"
    },
    {
      "anonymous": false,
      "inputs": [
        {
          "indexed": true,
          "internalType": "address",
          "name": "owner",
          "type": "address"
        },
        {
          "indexed": false,
          "internalType": "uint256",
          "name": "amount",
          "type": "uint256"
        }
      ],
      "name": "FundsDeposited",
      "type": "event"
    },
    {
      "anonymous": false,
      "inputs": [
        {
          "indexed": true,
          "internalType": "address",
          "name": "owner",
          "type": "address"
        },
        {
          "indexed": false,
          "internalType": "uint256",
          "name": "amount",
          "type": "uint256"
        }
      ],
      "name": "FundsWithdrawn",
      "type": "event"
    },
    {
      "anonymous": false,
      "inputs": [
        {
          "indexed": true,
          "internalType": "address",
          "name": "owner",
          "type": "address"
        },
        {
          "indexed": true,
          "internalType": "address",
          "name": "wallet",
          "type": "address"
        }
      ],
      "name": "GuardianAdded",
      "type": "event"
    },
    {
      "anonymous": false,
      "inputs": [
        {
          "indexed": true,
          "internalType": "address",
          "name": "owner",
          "type": "address"
        },
        {
          "indexed": true,
          "internalType": "address",
          "name": "wallet",
          "type": "address"
        },
        {
          "indexed": false,
          "internalType": "bool",
          "name": "isFixed",
          "type": "bool"
        }
      ],
      "name": "GuardianFixedStatusChanged",
      "type": "event"
    },
    {
      "anonymous": false,
      "inputs": [
        {
          "indexed": true,
          "internalType": "address",
          "name": "owner",
          "type": "address"
        },
        {
          "indexed": true,
          "internalType": "address",
          "name": "wallet",
          "type": "address"
        }
      ],
      "name": "GuardianRemoved",
      "type": "event"
    },
    {
      "anonymous": false,
      "inputs": [
        {
          "indexed": true,
          "internalType": "address",
          "name": "owner",
          "type": "address"
        },
        {
          "indexed": false,
          "internalType": "uint256",
          "name": "timestamp",
          "type": "uint256"
        }
      ],
      "name": "InactivityConfirmed",
      "type": "event"
    },
    {
      "anonymous": false,
      "inputs": [
        {
          "indexed": true,
          "internalType": "address",
          "name": "owner",
          "type": "address"
        },
        {
          "indexed": false,
          "internalType": "uint256",
          "name": "threshold",
          "type": "uint256"
        }
      ],
      "name": "ProtocolRegistered",
      "type": "event"
    },
    {
      "anonymous": false,
      "inputs": [
        {
          "indexed": true,
          "internalType": "address",
          "name": "owner",
          "type": "address"
        },
        {
          "indexed": false,
          "internalType": "uint256",
          "name": "timestamp",
          "type": "uint256"
        }
      ],
      "name": "ProtocolRevived",
      "type": "event"
    },
    {
      "anonymous": false,
      "inputs": [
        {
          "indexed": true,
          "internalType": "address",
          "name": "owner",
          "type": "address"
        },
        {
          "indexed": false,
          "internalType": "uint256",
          "name": "timestamp",
          "type": "uint256"
        }
      ],
      "name": "Pulse",
      "type": "event"
    },
    {
      "inputs": [],
      "name": "MAX_BENEFICIARIES",
      "outputs": [
        {
          "internalType": "uint256",
          "name": "",
          "type": "uint256"
        }
      ],
      "stateMutability": "view",
      "type": "function"
    },
    {
      "inputs": [],
      "name": "MAX_GUARDIANS",
      "outputs": [
        {
          "internalType": "uint256",
          "name": "",
          "type": "uint256"
        }
      ],
      "stateMutability": "view",
      "type": "function"
    },
    {
      "inputs": [],
      "name": "MIN_THRESHOLD",
      "outputs": [
        {
          "internalType": "uint256",
          "name": "",
          "type": "uint256"
        }
      ],
      "stateMutability": "view",
      "type": "function"
    },
    {
      "inputs": [],
      "name": "REVIVE_GRACE_PERIOD",
      "outputs": [
        {
          "internalType": "uint256",
          "name": "",
          "type": "uint256"
        }
      ],
      "stateMutability": "view",
      "type": "function"
    },
    {
      "inputs": [
        {
          "internalType": "string",
          "name": "_name",
          "type": "string"
        },
        {
          "internalType": "address",
          "name": "_wallet",
          "type": "address"
        },
        {
          "internalType": "uint256",
          "name": "_allocationBps",
          "type": "uint256"
        },
        {
          "internalType": "enum AfterLife.VestingType",
          "name": "_vestingType",
          "type": "uint8"
        },
        {
          "internalType": "uint256",
          "name": "_duration",
          "type": "uint256"
        }
      ],
      "name": "addBeneficiary",
      "outputs": [],
      "stateMutability": "nonpayable",
      "type": "function"
    },
    {
      "inputs": [
        {
          "internalType": "string",
          "name": "_name",
          "type": "string"
        },
        {
          "internalType": "address",
          "name": "_wallet",
          "type": "address"
        }
      ],
      "name": "addGuardian",
      "outputs": [],
      "stateMutability": "nonpayable",
      "type": "function"
    },
    {
      "inputs": [
        {
          "internalType": "address",
          "name": "",
          "type": "address"
        },
        {
          "internalType": "address",
          "name": "",
          "type": "address"
        }
      ],
      "name": "beneficiaries",
      "outputs": [
        {
          "internalType": "string",
          "name": "name",
          "type": "string"
        },
        {
          "internalType": "address",
          "name": "wallet",
          "type": "address"
        },
        {
          "internalType": "uint256",
          "name": "allocation",
          "type": "uint256"
        },
        {
          "internalType": "uint256",
          "name": "amountClaimed",
          "type": "uint256"
        },
        {
          "internalType": "enum AfterLife.VestingType",
          "name": "vestingType",
          "type": "uint8"
        },
        {
          "internalType": "uint256",
          "name": "vestingDuration",
          "type": "uint256"
        }
      ],
      "stateMutability": "view",
      "type": "function"
    },
    {
      "inputs": [
        {
          "internalType": "address",
          "name": "",
          "type": "address"
        },
        {
          "internalType": "uint256",
          "name": "",
          "type": "uint256"
        }
      ],
      "name": "beneficiaryLists",
      "outputs": [
        {
          "internalType": "address",
          "name": "",
          "type": "address"
        }
      ],
      "stateMutability": "view",
      "type": "function"
    },
    {
      "inputs": [
        {
          "internalType": "address",
          "name": "_owner",
          "type": "address"
        }
      ],
      "name": "claim",
      "outputs": [],
      "stateMutability": "nonpayable",
      "type": "function"
    },
    {
      "inputs": [
        {
          "internalType": "address",
          "name": "_owner",
          "type": "address"
        }
      ],
      "name": "confirmInactivity",
      "outputs": [],
      "stateMutability": "nonpayable",
      "type": "function"
    },
    {
      "inputs": [],
      "name": "deposit",
      "outputs": [],
      "stateMutability": "payable",
      "type": "function"
    },
    {
      "inputs": [
        {
          "internalType": "address",
          "name": "_owner",
          "type": "address"
        },
        {
          "internalType": "uint256",
          "name": "_index",
          "type": "uint256"
        }
      ],
      "name": "getBeneficiaryAt",
      "outputs": [
        {
          "internalType": "address",
          "name": "",
          "type": "address"
        }
      ],
      "stateMutability": "view",
      "type": "function"
    },
    {
      "inputs": [
        {
          "internalType": "address",
          "name": "_owner",
          "type": "address"
        }
      ],
      "name": "getBeneficiaryCount",
      "outputs": [
        {
          "internalType": "uint256",
          "name": "",
          "type": "uint256"
        }
      ],
      "stateMutability": "view",
      "type": "function"
    },
    {
      "inputs": [
        {
          "internalType": "address",
          "name": "_owner",
          "type": "address"
        },
        {
          "internalType": "address",
          "name": "_beneficiary",
          "type": "address"
        }
      ],
      "name": "getClaimableAmount",
      "outputs": [
        {
          "internalType": "uint256",
          "name": "claimable",
          "type": "uint256"
        },
        {
          "internalType": "uint256",
          "name": "totalEntitlement",
          "type": "uint256"
        },
        {
          "internalType": "uint256",
          "name": "alreadyClaimed",
          "type": "uint256"
        }
      ],
      "stateMutability": "view",
      "type": "function"
    },
    {
      "inputs": [
        {
          "internalType": "address",
          "name": "_owner",
          "type": "address"
        },
        {
          "internalType": "uint256",
          "name": "_index",
          "type": "uint256"
        }
      ],
      "name": "getGuardianAt",
      "outputs": [
        {
          "internalType": "address",
          "name": "",
          "type": "address"
        }
      ],
      "stateMutability": "view",
      "type": "function"
    },
    {
      "inputs": [
        {
          "internalType": "address",
          "name": "_owner",
          "type": "address"
        }
      ],
      "name": "getGuardianCount",
      "outputs": [
        {
          "internalType": "uint256",
          "name": "",
          "type": "uint256"
        }
      ],
      "stateMutability": "view",
      "type": "function"
    },
    {
      "inputs": [
        {
          "internalType": "address",
          "name": "_owner",
          "type": "address"
        }
      ],
      "name": "getOwnerBalance",
      "outputs": [
        {
          "internalType": "uint256",
          "name": "",
          "type": "uint256"
        }
      ],
      "stateMutability": "view",
      "type": "function"
    },
    {
      "inputs": [
        {
          "internalType": "address",
          "name": "_owner",
          "type": "address"
        }
      ],
      "name": "getReviveStatus",
      "outputs": [
        {
          "internalType": "bool",
          "name": "canRevive",
          "type": "bool"
        },
        {
          "internalType": "uint256",
          "name": "timeRemaining",
          "type": "uint256"
        }
      ],
      "stateMutability": "view",
      "type": "function"
    },
    {
      "inputs": [
        {
          "internalType": "address",
          "name": "",
          "type": "address"
        },
        {
          "internalType": "uint256",
          "name": "",
          "type": "uint256"
        }
      ],
      "name": "guardianLists",
      "outputs": [
        {
          "internalType": "address",
          "name": "",
          "type": "address"
        }
      ],
      "stateMutability": "view",
      "type": "function"
    },
    {
      "inputs": [
        {
          "internalType": "address",
          "name": "",
          "type": "address"
        },
        {
          "internalType": "address",
          "name": "",
          "type": "address"
        }
      ],
      "name": "guardians",
      "outputs": [
        {
          "internalType": "string",
          "name": "name",
          "type": "string"
        },
        {
          "internalType": "address",
          "name": "wallet",
          "type": "address"
        },
        {
          "internalType": "bool",
          "name": "isFixed",
          "type": "bool"
        }
      ],
      "stateMutability": "view",
      "type": "function"
    },
    {
      "inputs": [
        {
          "internalType": "address",
          "name": "_addr",
          "type": "address"
        }
      ],
      "name": "isOwner",
      "outputs": [
        {
          "internalType": "bool",
          "name": "",
          "type": "bool"
        }
      ],
      "stateMutability": "view",
      "type": "function"
    },
    {
      "inputs": [
        {
          "internalType": "address",
          "name": "",
          "type": "address"
        }
      ],
      "name": "ownerBalances",
      "outputs": [
        {
          "internalType": "uint256",
          "name": "",
          "type": "uint256"
        }
      ],
      "stateMutability": "view",
      "type": "function"
    },
    {
      "inputs": [
        {
          "internalType": "address",
          "name": "",
          "type": "address"
        }
      ],
      "name": "protocols",
      "outputs": [
        {
          "internalType": "bool",
          "name": "isRegistered",
          "type": "bool"
        },
        {
          "internalType": "uint256",
          "name": "lastHeartbeat",
          "type": "uint256"
        },
        {
          "internalType": "uint256",
          "name": "inactivityThreshold",
          "type": "uint256"
        },
        {
          "internalType": "bool",
          "name": "isDead",
          "type": "bool"
        },
        {
          "internalType": "uint256",
          "name": "initialVaultBalance",
          "type": "uint256"
        },
        {
          "internalType": "uint256",
          "name": "vestingStartTime",
          "type": "uint256"
        },
        {
          "internalType": "uint256",
          "name": "totalAllocation",
          "type": "uint256"
        },
        {
          "internalType": "uint256",
          "name": "deathDeclarationTime",
          "type": "uint256"
        }
      ],
      "stateMutability": "view",
      "type": "function"
    },
    {
      "inputs": [],
      "name": "proveLife",
      "outputs": [],
      "stateMutability": "nonpayable",
      "type": "function"
    },
    {
      "inputs": [
        {
          "internalType": "uint256",
          "name": "_thresholdSeconds",
          "type": "uint256"
        }
      ],
      "name": "register",
      "outputs": [],
      "stateMutability": "nonpayable",
      "type": "function"
    },
    {
      "inputs": [
        {
          "internalType": "address",
          "name": "_beneficiary",
          "type": "address"
        }
      ],
      "name": "removeBeneficiary",
      "outputs": [],
      "stateMutability": "nonpayable",
      "type": "function"
    },
    {
      "inputs": [
        {
          "internalType": "address",
          "name": "_guardian",
          "type": "address"
        }
      ],
      "name": "removeGuardian",
      "outputs": [],
      "stateMutability": "nonpayable",
      "type": "function"
    },
    {
      "inputs": [
        {
          "internalType": "address",
          "name": "_guardian",
          "type": "address"
        },
        {
          "internalType": "bool",
          "name": "_fixed",
          "type": "bool"
        }
      ],
      "name": "setGuardianFixed",
      "outputs": [],
      "stateMutability": "nonpayable",
      "type": "function"
    },
    {
      "inputs": [
        {
          "internalType": "uint256",
          "name": "_amount",
          "type": "uint256"
        }
      ],
      "name": "withdraw",
      "outputs": [],
      "stateMutability": "nonpayable",
      "type": "function"
    },
    {
      "stateMutability": "payable",
      "type": "receive"
    }
  ],
  "bytecode": "0x608060405234801561001057600080fd5b50612609806100206000396000f3fe6080604052600436106101c65760003560e01c806350b8c372116100f75780638c1334b211610095578063d0e30db011610064578063d0e30db01461062c578063e1a253d914610634578063e3538bc11461066b578063f207564e1461069857600080fd5b80638c1334b214610584578063bb7dbfe7146105a4578063bd11c4c0146105df578063cb60ee24146105f657600080fd5b806371404156116100d157806371404156146104ee5780637e6929ae1461050e5780637fcf440a1461052e5780638b9676a71461056457600080fd5b806350b8c3721461049957806359633a1c146104b95780635bd61f23146104d957600080fd5b806335f93867116101645780634036cec21161013e5780634036cec214610403578063422c1d37146104235780634481308114610438578063460e73981461046757600080fd5b806335f938671461039457806336c79d52146103b45780633a6708e2146103cb57600080fd5b80632423c7f3116101a05780632423c7f31461025357806326638a0a146102895780632e1a7d4d1461032b5780632f54bf6e1461034b57600080fd5b80631e83409a146101e9578063202928591461020b5780632348dd181461022b57600080fd5b366101e4576040516349dd270d60e01b815260040160405180910390fd5b600080fd5b3480156101f557600080fd5b506102096102043660046120ab565b6106b8565b005b34801561021757600080fd5b50610209610226366004612170565b610a3a565b34801561023757600080fd5b50610240601481565b6040519081526020015b60405180910390f35b34801561025f57600080fd5b5061024061026e3660046120ab565b6001600160a01b031660009081526005602052604090205490565b34801561029557600080fd5b506102ee6102a43660046120ab565b6000602081905290815260409020805460018201546002830154600384015460048501546005860154600687015460079097015460ff968716979596949593909416939192909188565b6040805198151589526020890197909752958701949094529115156060860152608085015260a084015260c083015260e08201526101000161024a565b34801561033757600080fd5b506102096103463660046121be565b610c33565b34801561035757600080fd5b506103846103663660046120ab565b6001600160a01b031660009081526020819052604090205460ff1690565b604051901515815260200161024a565b3480156103a057600080fd5b506102096103af3660046121d7565b610e0a565b3480156103c057600080fd5b5061024062093a8081565b3480156103d757600080fd5b506103eb6103e636600461224d565b61110b565b6040516001600160a01b03909116815260200161024a565b34801561040f57600080fd5b506103eb61041e36600461224d565b611143565b34801561042f57600080fd5b50610240600a81565b34801561044457600080fd5b50610458610453366004612277565b61115f565b60405161024a939291906122e7565b34801561047357600080fd5b50610487610482366004612277565b611224565b60405161024a96959493929190612330565b3480156104a557600080fd5b506102096104b43660046120ab565b6112fa565b3480156104c557600080fd5b506102096104d43660046120ab565b61144c565b3480156104e557600080fd5b506102096116bf565b3480156104fa57600080fd5b506102096105093660046120ab565b611852565b34801561051a57600080fd5b506103eb61052936600461224d565b611aa8565b34801561053a57600080fd5b506102406105493660046120ab565b6001600160a01b031660009081526001602052604090205490565b34801561057057600080fd5b506103eb61057f36600461224d565b611b28565b34801561059057600080fd5b5061020961059f366004612394565b611b8a565b3480156105b057600080fd5b506105c46105bf366004612277565b611c81565b6040805193845260208401929092529082015260600161024a565b3480156105eb57600080fd5b506102406201518081565b34801561060257600080fd5b506102406106113660046120ab565b6001600160a01b031660009081526003602052604090205490565b610209611df1565b34801561064057600080fd5b5061065461064f3660046120ab565b611e9d565b60408051921515835260208301919091520161024a565b34801561067757600080fd5b506102406106863660046120ab565b60016020526000908152604090205481565b3480156106a457600080fd5b506102096106b33660046121be565b611f12565b60065460ff16156106dc57604051632c1ff44360e11b815260040160405180910390fd5b6006805460ff191660011790556001600160a01b0381166000908152602081905260409020600381015482919060ff166107295760405163759d4e6160e11b815260040160405180910390fd5b806005015460000361074e576040516306aa937d60e31b815260040160405180910390fd5b62093a80816007015461076191906123e6565b42116107805760405163478f84e760e01b815260040160405180910390fd5b6001600160a01b0380841660009081526004602090815260408083203380855292529091206001810154909216146107cb5760405163644d871f60e01b815260040160405180910390fd5b6001600160a01b038416600090815260208190526040812060028301546004820154919291612710916107fd916123f9565b6108079190612410565b905060008083600501544261081c9190612432565b90506001600486015460ff1660018111156108395761083961231a565b03610852578460050154811061084d578291505b610881565b8460050154811061086557829150610881565b600585015461087482856123f9565b61087e9190612410565b91505b600085600301548311156108a157600386015461089e9084612432565b90505b806000036108c2576040516312d37ee560e31b815260040160405180910390fd5b6001600160a01b0389166000908152600160205260409020548111156108fb5760405163a908d3d960e01b815260040160405180910390fd5b8086600301600082825461090f91906123e6565b90915550506001600160a01b0389166000908152600160205260408120805483929061093c908490612432565b909155505060018601546040516000916001600160a01b03169083908381818185875af1925050503d8060008114610990576040519150601f19603f3d011682016040523d82523d6000602084013e610995565b606091505b50509050806109dd5760405162461bcd60e51b815260206004820152600f60248201526e151c985b9cd9995c8819985a5b1959608a1b60448201526064015b60405180910390fd5b60018701546040518381526001600160a01b03918216918c16907f716942921e9b67ee05c4c2ffcf216f189086c9053b444c8928a49db4bdb1ae8e9060200160405180910390a350506006805460ff191690555050505050505050565b3360009081526020819052604090205460ff16610a6a5760405163aba4733960e01b815260040160405180910390fd5b806001600160a01b038116610a925760405163d92e233d60e01b815260040160405180910390fd5b828051600003610ab55760405163ecd7b0d160e01b815260040160405180910390fd5b3360009081526002602090815260408083206001600160a01b0387811685529252909120600101541615610afc57604051633581763360e01b815260040160405180910390fd5b33600090815260036020526040902054600a11610b2c57604051639308529b60e01b815260040160405180910390fd5b336001600160a01b03841603610b555760405163265079bd60e21b815260040160405180910390fd5b604080516060810182528581526001600160a01b03851660208083018290526000838501819052338152600282528481209281529190529190912081518190610b9e90826124ce565b50602082810151600192830180546040958601511515600160a01b026001600160a81b03199091166001600160a01b03938416171790553360008181526003845285812080549586018155815292832090930180549188166001600160a01b0319929092168217905592517fbc3292102fa77e083913064b282926717cdfaede4d35f553d66366c0a3da755a9190a350505050565b3360009081526020819052604090205460ff16610c635760405163aba4733960e01b815260040160405180910390fd5b60065460ff1615610c8757604051632c1ff44360e11b815260040160405180910390fd5b6006805460ff191660011790553360009081526020819052604090206003015460ff1615610cc8576040516352e39c5b60e11b815260040160405180910390fd5b80600003610ce957604051631f2a200560e01b815260040160405180910390fd5b33600090815260016020526040902054811115610d1957604051631e9acf1760e31b815260040160405180910390fd5b3360009081526001602052604081208054839290610d38908490612432565b9091555050604051600090339083908381818185875af1925050503d8060008114610d7f576040519150601f19603f3d011682016040523d82523d6000602084013e610d84565b606091505b5050905080610dc75760405162461bcd60e51b815260206004820152600f60248201526e151c985b9cd9995c8819985a5b1959608a1b60448201526064016109d4565b60405182815233907feaff4b37086828766ad3268786972c0cd24259d4c87a80f9d3963a3c3d999b0d9060200160405180910390a250506006805460ff19169055565b3360009081526020819052604090205460ff16610e3a5760405163aba4733960e01b815260040160405180910390fd5b836001600160a01b038116610e625760405163d92e233d60e01b815260040160405180910390fd5b858051600003610e855760405163ecd7b0d160e01b815260040160405180910390fd5b3360009081526004602090815260408083206001600160a01b038a811685529252909120600101541615610ecc57604051637ffebe8360e01b815260040160405180910390fd5b33600090815260056020526040902054601411610efc5760405163dd34c16560e01b815260040160405180910390fd5b84600003610f1d5760405163ba0d87b560e01b815260040160405180910390fd5b3360009081526020819052604090206006015461271090610f3f9087906123e6565b1115610f5e5760405163f1b7a5d160e01b815260040160405180910390fd5b82600003610f7f5760405163346ab43760e11b815260040160405180910390fd5b6040518060c00160405280888152602001876001600160a01b0316815260200186815260200160008152602001856001811115610fbe57610fbe61231a565b815260209081018590523360009081526004825260408082206001600160a01b038b1683529092522081518190610ff590826124ce565b506020820151600182810180546001600160a01b0319166001600160a01b0390931692909217909155604083015160028301556060830151600383015560808301516004830180549192909160ff19169083818111156110575761105761231a565b021790555060a091909101516005918201553360008181526020928352604080822080546001810182559083528483200180546001600160a01b0319166001600160a01b038c1617905591815291829052812060060180548792906110bd9084906123e6565b90915550506040518581526001600160a01b0387169033907f5d081d791b64899adab031015397ef8d7600501212ef97573b9e50f8c9bb6d9b9060200160405180910390a350505050505050565b6005602052816000526040600020818154811061112757600080fd5b6000918252602090912001546001600160a01b03169150829050565b6003602052816000526040600020818154811061112757600080fd5b600260209081526000928352604080842090915290825290208054819061118590612445565b80601f01602080910402602001604051908101604052809291908181526020018280546111b190612445565b80156111fe5780601f106111d3576101008083540402835291602001916111fe565b820191906000526020600020905b8154815290600101906020018083116111e157829003601f168201915b505050600190930154919250506001600160a01b0381169060ff600160a01b9091041683565b600460209081526000928352604080842090915290825290208054819061124a90612445565b80601f016020809104026020016040519081016040528092919081815260200182805461127690612445565b80156112c35780601f10611298576101008083540402835291602001916112c3565b820191906000526020600020905b8154815290600101906020018083116112a657829003601f168201915b50505050600183015460028401546003850154600486015460059096015494956001600160a01b03909316949193509160ff169086565b6001600160a01b038082166000908152600260209081526040808320338452909152902060010154829116611342576040516377b6878160e11b815260040160405180910390fd5b6001600160a01b0382166000908152602081905260409020805460ff1661137c5760405163aba4733960e01b815260040160405180910390fd5b600381015460ff16156113a257604051637281d96b60e11b815260040160405180910390fd5b806002015481600101546113b691906123e6565b42116113d5576040516305ffd62b60e11b815260040160405180910390fd5b60038101805460ff191660019081179091554260058301819055600783018190556001600160a01b0385166000818152602093845260409081902054600486015551918252917f79a18691d9845d93f3a7276c16d1737e190da43060fa3fb2049f02dbf50a3d9a91015b60405180910390a2505050565b3360009081526020819052604090205460ff1661147c5760405163aba4733960e01b815260040160405180910390fd5b3360009081526004602090815260408083206001600160a01b038581168552925290912060010154166114c25760405163694f351f60e01b815260040160405180910390fd5b3360008181526004602090815260408083206001600160a01b03861684528252808320600201549383529082905281206006018054839290611505908490612432565b90915550503360009081526004602090815260408083206001600160a01b03861684529091528120906115388282612039565b506001810180546001600160a01b03191690556000600282018190556003820181905560048201805460ff19169055600591820181905533815260209190915260408120805490915b8181101561168257846001600160a01b03168382815481106115a5576115a561258e565b6000918252602090912001546001600160a01b03160361167057826115cb600184612432565b815481106115db576115db61258e565b9060005260206000200160009054906101000a90046001600160a01b031683828154811061160b5761160b61258e565b9060005260206000200160006101000a8154816001600160a01b0302191690836001600160a01b0316021790555082805480611649576116496125a4565b600082815260209020810160001990810180546001600160a01b0319169055019055611682565b8061167a816125ba565b915050611581565b506040516001600160a01b0385169033907f1a6590bd0cabbfcc7c86bef99e1034054e179905cfcc294598fcd426c092244290600090a350505050565b3360009081526020819052604090205460ff166116ef5760405163aba4733960e01b815260040160405180910390fd5b336000908152602081905260409020600381015460ff16156118115762093a80816007015461171e91906123e6565b42111561173e57604051634b3c322760e11b815260040160405180910390fd5b60038101805460ff1916905560006005808301829055600483018290556007830182905542600184015533825260205260408120805490915b818110156117de57336000908152600460205260408120845482908690859081106117a4576117a461258e565b60009182526020808320909101546001600160a01b03168352820192909252604001902060030155806117d6816125ba565b915050611777565b5060405142815233907f5178649125cff20230f3d21b86a7386e3924b30d642eea1f977a6668fab8344c9060200161143f565b426001820181905560405190815233907fdcefc94f16bf43dea53b136be3c49b2418f70b051a322b89f92f7739d65548ea906020015b60405180910390a250565b3360009081526020819052604090205460ff166118825760405163aba4733960e01b815260040160405180910390fd5b3360009081526002602090815260408083206001600160a01b038581168552925290912060010154166118c8576040516337c5c3a360e21b815260040160405180910390fd5b3360009081526002602090815260408083206001600160a01b0385168452909152902060010154600160a01b900460ff16156119175760405163051c65db60e01b815260040160405180910390fd5b3360009081526002602090815260408083206001600160a01b03851684529091528120906119458282612039565b5060010180546001600160a81b0319169055336000908152600360205260408120805490915b81811015611a6c57836001600160a01b031683828154811061198f5761198f61258e565b6000918252602090912001546001600160a01b031603611a5a57826119b5600184612432565b815481106119c5576119c561258e565b9060005260206000200160009054906101000a90046001600160a01b03168382815481106119f5576119f561258e565b9060005260206000200160006101000a8154816001600160a01b0302191690836001600160a01b0316021790555082805480611a3357611a336125a4565b600082815260209020810160001990810180546001600160a01b0319169055019055611a6c565b80611a64816125ba565b91505061196b565b506040516001600160a01b0384169033907fee943cdb81826d5909c559c6b1ae6908fcaf2dbc16c4b730346736b486283e8b90600090a3505050565b6001600160a01b0382166000908152600360205260408120548210611ae057604051634e23d03560e01b815260040160405180910390fd5b6001600160a01b0383166000908152600360205260409020805483908110611b0a57611b0a61258e565b6000918252602090912001546001600160a01b031690505b92915050565b6001600160a01b0382166000908152600560205260408120548210611b6057604051634e23d03560e01b815260040160405180910390fd5b6001600160a01b0383166000908152600560205260409020805483908110611b0a57611b0a61258e565b3360009081526020819052604090205460ff16611bba5760405163aba4733960e01b815260040160405180910390fd5b3360009081526002602090815260408083206001600160a01b03868116855292529091206001015416611c00576040516337c5c3a360e21b815260040160405180910390fd5b3360008181526002602090815260408083206001600160a01b0387168085529252918290206001018054851515600160a01b0260ff60a01b1990911617905590519091907fea39c92a08a5c775f8b77f8813f0c227d5ae58f04e182b81b62d37a24107484f90611c7590851515815260200190565b60405180910390a35050565b6001600160a01b0380831660009081526020818152604080832060048352818420948616845293909152812060038301549192839283929060ff16611cd95760405163759d4e6160e11b815260040160405180910390fd5b60018101546001600160a01b0316611d045760405163644d871f60e01b815260040160405180910390fd5b62093a808260070154611d1791906123e6565b4211611d2f5760008060009450945094505050611dea565b61271081600201548360040154611d4691906123f9565b611d509190612410565b9350806003015492506000826005015442611d6b9190612432565b905060006001600484015460ff166001811115611d8a57611d8a61231a565b03611da25782600501548210611d9d5750845b611dd0565b82600501548210611db4575084611dd0565b6005830154611dc383886123f9565b611dcd9190612410565b90505b84811115611de557611de28582612432565b96505b505050505b9250925092565b3360009081526020819052604090205460ff16611e215760405163aba4733960e01b815260040160405180910390fd5b34600003611e425760405163f2365b5b60e01b815260040160405180910390fd5b3360009081526001602052604081208054349290611e619084906123e6565b909155505060405134815233907f543ba50a5eec5e6178218e364b1d0f396157b3c8fa278522c2cb7fd99407d4749060200160405180910390a2565b6001600160a01b0381166000908152602081905260408120600381015482919060ff16611ed05750600093849350915050565b600062093a808260070154611ee591906123e6565b9050804210611efb575060009485945092505050565b6001611f074283612432565b935093505050915091565b3360009081526020819052604090205460ff1615611f4357604051630ea075bf60e21b815260040160405180910390fd5b62015180811015611f67576040516358c277e760e01b815260040160405180910390fd5b604080516101008101825260018082524260208084019182528385018681526000606086018181526080870182815260a0880183815260c0890184815260e08a018581523380875297869052948b902099518a5490151560ff19918216178b559751988a0198909855935160028901559051600388018054911515919096161790945592516004860155516005850155915160068401555160079092019190915590517fa4d780a276eb469a8a23984707d159b7887c3f1d43e2cc22a91cea75faea9ec3906118479084815260200190565b50805461204590612445565b6000825580601f10612055575050565b601f0160209004906000526020600020908101906120739190612076565b50565b5b8082111561208b5760008155600101612077565b5090565b80356001600160a01b03811681146120a657600080fd5b919050565b6000602082840312156120bd57600080fd5b6120c68261208f565b9392505050565b634e487b7160e01b600052604160045260246000fd5b600082601f8301126120f457600080fd5b813567ffffffffffffffff8082111561210f5761210f6120cd565b604051601f8301601f19908116603f01168101908282118183101715612137576121376120cd565b8160405283815286602085880101111561215057600080fd5b836020870160208301376000602085830101528094505050505092915050565b6000806040838503121561218357600080fd5b823567ffffffffffffffff81111561219a57600080fd5b6121a6858286016120e3565b9250506121b56020840161208f565b90509250929050565b6000602082840312156121d057600080fd5b5035919050565b600080600080600060a086880312156121ef57600080fd5b853567ffffffffffffffff81111561220657600080fd5b612212888289016120e3565b9550506122216020870161208f565b93506040860135925060608601356002811061223c57600080fd5b949793965091946080013592915050565b6000806040838503121561226057600080fd5b6122698361208f565b946020939093013593505050565b6000806040838503121561228a57600080fd5b6122938361208f565b91506121b56020840161208f565b6000815180845260005b818110156122c7576020818501810151868301820152016122ab565b506000602082860101526020601f19601f83011685010191505092915050565b6060815260006122fa60608301866122a1565b6001600160a01b0394909416602083015250901515604090910152919050565b634e487b7160e01b600052602160045260246000fd5b60c08152600061234360c08301896122a1565b6001600160a01b0388166020840152604083018790526060830186905290506002841061238057634e487b7160e01b600052602160045260246000fd5b608082019390935260a00152949350505050565b600080604083850312156123a757600080fd5b6123b08361208f565b9150602083013580151581146123c557600080fd5b809150509250929050565b634e487b7160e01b600052601160045260246000fd5b80820180821115611b2257611b226123d0565b8082028115828204841417611b2257611b226123d0565b60008261242d57634e487b7160e01b600052601260045260246000fd5b500490565b81810381811115611b2257611b226123d0565b600181811c9082168061245957607f821691505b60208210810361247957634e487b7160e01b600052602260045260246000fd5b50919050565b601f8211156124c957600081815260208120601f850160051c810160208610156124a65750805b601f850160051c820191505b818110156124c5578281556001016124b2565b5050505b505050565b815167ffffffffffffffff8111156124e8576124e86120cd565b6124fc816124f68454612445565b8461247f565b602080601f83116001811461253157600084156125195750858301515b600019600386901b1c1916600185901b1785556124c5565b600085815260208120601f198616915b8281101561256057888601518255948401946001909101908401612541565b508582101561257e5787850151600019600388901b60f8161c191681555b5050505050600190811b01905550565b634e487b7160e01b600052603260045260246000fd5b634e487b7160e01b600052603160045260246000fd5b6000600182016125cc576125cc6123d0565b506001019056fea264697066735822122002832b488a042ddef25ed5d8d721f0c7b55b81a8253e1b1ce9fe3b4eabdef6a164736f6c63430008140033",
  "linkReferences": {},
  "deployedLinkReferences": {}
}