{
  "_format": "hh-sol-artifact-1",
  "contractName": "AfterLife",
  "sourceName": "contracts/AfterLife.sol",
  "abi": [
    {
      "inputs": [],
      "name": "AllocationExceeds100Percent",
      "type": "error"
    },
    {
      "inputs": [],
      "name": "AlreadyDead",
      "type": "error"
    },
    {
      "inputs": [],
      "name": "AlreadyRegistered",
      "type": "error"
    },
    {
      "inputs": [],
      "name": "BeneficiaryExists",
      "type": "error"
    },
    {
      "inputs": [],
      "name": "BeneficiaryNotFound",
      "type": "error"
    },
    {
      "inputs": [],
      "name": "CannotBeSelf",
      "type": "error"
    },
    {
      "inputs": [],
      "name": "EmptyString",
      "type": "error"
    },
    {
      "inputs": [],
      "name": "FixedGuardian",
      "type": "error"
    },
    {
      "inputs": [],
      "name": "GracePeriodExpired",
      "type": "error"
    },
    {
      "inputs": [],
      "name": "GuardianExists",
      "type": "error"
    },
    {
      "inputs": [],
      "name": "GuardianNotFound",
      "type": "error"
    },
    {
      "inputs": [],
      "name": "IndexOutOfBounds",
      "type": "error"
    },
    {
      "inputs": [],
      "name": "InsufficientBalance",
      "type": "error"
    },
    {
      "inputs": [],
      "name": "NoReentrancy",
      "type": "error"
    },
    {
      "inputs": [],
      "name": "NoValue",
      "type": "error"
    },
    {
      "inputs": [],
      "name": "NotBeneficiary",
      "type": "error"
    },
    {
      "inputs": [],
      "name": "NotGuardian",
      "type": "error"
    },
    {
      "inputs": [],
      "name": "NotRegistered",
      "type": "error"
    },
    {
      "inputs": [],
      "name": "NothingToClaim",
      "type": "error"
    },
    {
      "inputs": [],
      "name": "OwnerStillActive",
      "type": "error"
    },
    {
      "inputs": [],
      "name": "ProtocolActive",
      "type": "error"
    },
    {
      "inputs": [],
      "name": "ProtocolDead",
      "type": "error"
    },
    {
      "inputs": [],
      "name": "ThresholdTooShort",
      "type": "error"
    },
    {
      "inputs": [],
      "name": "TooManyBeneficiaries",
      "type": "error"
    },
    {
      "inputs": [],
      "name": "TooManyGuardians",
      "type": "error"
    },
    {
      "inputs": [],
      "name": "VaultInsolvency",
      "type": "error"
    },
    {
      "inputs": [],
      "name": "VestingNotStarted",
      "type": "error"
    },
    {
      "inputs": [],
      "name": "ZeroAddress",
      "type": "error"
    },
    {
      "inputs": [],
      "name": "ZeroAllocation",
      "type": "error"
    },
    {
      "inputs": [],
      "name": "ZeroAmount",
      "type": "error"
    },
    {
      "inputs": [],
      "name": "ZeroDuration",
      "type": "error"
    },
    {
      "anonymous": false,
      "inputs": [
        {
          "indexed": true,
          "internalType": "address",
          "name": "owner",
          "type": "address"
        },
        {
          "indexed": true,
          "internalType": "address",
          "name": "wallet",
          "type": "address"
        },
        {
          "indexed": false,
          "internalType": "uint256",
          "name": "allocation",
          "type": "uint256"
        }
      ],
      "name": "BeneficiaryAdded",
      "type": "event"
    },
    {
      "anonymous": false,
      "inputs": [
        {
          "indexed": true,
          "internalType": "address",
          "name": "owner",
          "type": "address"
        },
        {
          "indexed": true,
          "internalType": "address",
          "name": "wallet",
          "type": "address"
        }
      ],
      "name": "BeneficiaryRemoved",
      "type": "event"
    },
    {
      "anonymous": false,
      "inputs": [
        {
          "indexed": true,
          "internalType": "address",
          "name": "owner",
          "type": "address"
        },
        {
          "indexed": true,
          "internalType": "address",
          "name": "beneficiary",
          "type": "address"
        },
        {
          "indexed": false,
          "internalType": "uint256",
          "name": "amount",
          "type": "uint256"
        }
      ],
      "name": "FundsClaimed",
      "type": "event"
    },
    {
      "anonymous": false,
      "inputs": [
        {
          "indexed": true,
          "internalType": "address",
          "name": "owner",
          "type": "address"
        },
        {
          "indexed": false,
          "internalType": "uint256",
          "name": "amount",
          "type": "uint256"
        }
      ],
      "name": "FundsDeposited",
      "type": "event"
    },
    {
      "anonymous": false,
      "inputs": [
        {
          "indexed": true,
          "internalType": "address",
          "name": "owner",
          "type": "address"
        },
        {
          "indexed": false,
          "internalType": "uint256",
          "name": "amount",
          "type": "uint256"
        }
      ],
      "name": "FundsWithdrawn",
      "type": "event"
    },
    {
      "anonymous": false,
      "inputs": [
        {
          "indexed": true,
          "internalType": "address",
          "name": "owner",
          "type": "address"
        },
        {
          "indexed": true,
          "internalType": "address",
          "name": "wallet",
          "type": "address"
        }
      ],
      "name": "GuardianAdded",
      "type": "event"
    },
    {
      "anonymous": false,
      "inputs": [
        {
          "indexed": true,
          "internalType": "address",
          "name": "owner",
          "type": "address"
        },
        {
          "indexed": true,
          "internalType": "address",
          "name": "wallet",
          "type": "address"
        },
        {
          "indexed": false,
          "internalType": "bool",
          "name": "isFixed",
          "type": "bool"
        }
      ],
      "name": "GuardianFixedStatusChanged",
      "type": "event"
    },
    {
      "anonymous": false,
      "inputs": [
        {
          "indexed": true,
          "internalType": "address",
          "name": "owner",
          "type": "address"
        },
        {
          "indexed": true,
          "internalType": "address",
          "name": "wallet",
          "type": "address"
        }
      ],
      "name": "GuardianRemoved",
      "type": "event"
    },
    {
      "anonymous": false,
      "inputs": [
        {
          "indexed": true,
          "internalType": "address",
          "name": "owner",
          "type": "address"
        },
        {
          "indexed": false,
          "internalType": "uint256",
          "name": "timestamp",
          "type": "uint256"
        }
      ],
      "name": "InactivityConfirmed",
      "type": "event"
    },
    {
      "anonymous": false,
      "inputs": [
        {
          "indexed": true,
          "internalType": "address",
          "name": "owner",
          "type": "address"
        },
        {
          "indexed": true,
          "internalType": "address",
          "name": "beneficiary",
          "type": "address"
        },
        {
          "indexed": false,
          "internalType": "uint256",
          "name": "feeAmount",
          "type": "uint256"
        }
      ],
      "name": "PlatformFeeCollected",
      "type": "event"
    },
    {
      "anonymous": false,
      "inputs": [
        {
          "indexed": true,
          "internalType": "address",
          "name": "owner",
          "type": "address"
        },
        {
          "indexed": false,
          "internalType": "uint256",
          "name": "threshold",
          "type": "uint256"
        }
      ],
      "name": "ProtocolRegistered",
      "type": "event"
    },
    {
      "anonymous": false,
      "inputs": [
        {
          "indexed": true,
          "internalType": "address",
          "name": "owner",
          "type": "address"
        },
        {
          "indexed": false,
          "internalType": "uint256",
          "name": "timestamp",
          "type": "uint256"
        }
      ],
      "name": "ProtocolRevived",
      "type": "event"
    },
    {
      "anonymous": false,
      "inputs": [
        {
          "indexed": true,
          "internalType": "address",
          "name": "owner",
          "type": "address"
        },
        {
          "indexed": false,
          "internalType": "uint256",
          "name": "timestamp",
          "type": "uint256"
        }
      ],
      "name": "Pulse",
      "type": "event"
    },
    {
      "inputs": [],
      "name": "MAX_BENEFICIARIES",
      "outputs": [
        {
          "internalType": "uint256",
          "name": "",
          "type": "uint256"
        }
      ],
      "stateMutability": "view",
      "type": "function"
    },
    {
      "inputs": [],
      "name": "MAX_GUARDIANS",
      "outputs": [
        {
          "internalType": "uint256",
          "name": "",
          "type": "uint256"
        }
      ],
      "stateMutability": "view",
      "type": "function"
    },
    {
      "inputs": [],
      "name": "MIN_THRESHOLD",
      "outputs": [
        {
          "internalType": "uint256",
          "name": "",
          "type": "uint256"
        }
      ],
      "stateMutability": "view",
      "type": "function"
    },
    {
      "inputs": [],
      "name": "PLATFORM_FEE_BPS",
      "outputs": [
        {
          "internalType": "uint256",
          "name": "",
          "type": "uint256"
        }
      ],
      "stateMutability": "view",
      "type": "function"
    },
    {
      "inputs": [],
      "name": "PLATFORM_WALLET",
      "outputs": [
        {
          "internalType": "address",
          "name": "",
          "type": "address"
        }
      ],
      "stateMutability": "view",
      "type": "function"
    },
    {
      "inputs": [],
      "name": "REVIVE_GRACE_PERIOD",
      "outputs": [
        {
          "internalType": "uint256",
          "name": "",
          "type": "uint256"
        }
      ],
      "stateMutability": "view",
      "type": "function"
    },
    {
      "inputs": [
        {
          "internalType": "string",
          "name": "_name",
          "type": "string"
        },
        {
          "internalType": "address",
          "name": "_wallet",
          "type": "address"
        },
        {
          "internalType": "uint256",
          "name": "_allocationBps",
          "type": "uint256"
        },
        {
          "internalType": "enum AfterLife.VestingType",
          "name": "_vestingType",
          "type": "uint8"
        },
        {
          "internalType": "uint256",
          "name": "_duration",
          "type": "uint256"
        }
      ],
      "name": "addBeneficiary",
      "outputs": [],
      "stateMutability": "nonpayable",
      "type": "function"
    },
    {
      "inputs": [
        {
          "internalType": "string",
          "name": "_name",
          "type": "string"
        },
        {
          "internalType": "address",
          "name": "_wallet",
          "type": "address"
        }
      ],
      "name": "addGuardian",
      "outputs": [],
      "stateMutability": "nonpayable",
      "type": "function"
    },
    {
      "inputs": [
        {
          "internalType": "address",
          "name": "",
          "type": "address"
        },
        {
          "internalType": "address",
          "name": "",
          "type": "address"
        }
      ],
      "name": "beneficiaries",
      "outputs": [
        {
          "internalType": "string",
          "name": "name",
          "type": "string"
        },
        {
          "internalType": "address",
          "name": "wallet",
          "type": "address"
        },
        {
          "internalType": "uint256",
          "name": "allocation",
          "type": "uint256"
        },
        {
          "internalType": "uint256",
          "name": "amountClaimed",
          "type": "uint256"
        },
        {
          "internalType": "enum AfterLife.VestingType",
          "name": "vestingType",
          "type": "uint8"
        },
        {
          "internalType": "uint256",
          "name": "vestingDuration",
          "type": "uint256"
        }
      ],
      "stateMutability": "view",
      "type": "function"
    },
    {
      "inputs": [
        {
          "internalType": "address",
          "name": "",
          "type": "address"
        },
        {
          "internalType": "uint256",
          "name": "",
          "type": "uint256"
        }
      ],
      "name": "beneficiaryLists",
      "outputs": [
        {
          "internalType": "address",
          "name": "",
          "type": "address"
        }
      ],
      "stateMutability": "view",
      "type": "function"
    },
    {
      "inputs": [
        {
          "internalType": "address",
          "name": "_owner",
          "type": "address"
        }
      ],
      "name": "claim",
      "outputs": [],
      "stateMutability": "nonpayable",
      "type": "function"
    },
    {
      "inputs": [
        {
          "internalType": "address",
          "name": "_owner",
          "type": "address"
        }
      ],
      "name": "confirmInactivity",
      "outputs": [],
      "stateMutability": "nonpayable",
      "type": "function"
    },
    {
      "inputs": [],
      "name": "deposit",
      "outputs": [],
      "stateMutability": "payable",
      "type": "function"
    },
    {
      "inputs": [
        {
          "internalType": "address",
          "name": "_owner",
          "type": "address"
        },
        {
          "internalType": "uint256",
          "name": "_index",
          "type": "uint256"
        }
      ],
      "name": "getBeneficiaryAt",
      "outputs": [
        {
          "internalType": "address",
          "name": "",
          "type": "address"
        }
      ],
      "stateMutability": "view",
      "type": "function"
    },
    {
      "inputs": [
        {
          "internalType": "address",
          "name": "_owner",
          "type": "address"
        }
      ],
      "name": "getBeneficiaryCount",
      "outputs": [
        {
          "internalType": "uint256",
          "name": "",
          "type": "uint256"
        }
      ],
      "stateMutability": "view",
      "type": "function"
    },
    {
      "inputs": [
        {
          "internalType": "address",
          "name": "_owner",
          "type": "address"
        },
        {
          "internalType": "address",
          "name": "_beneficiary",
          "type": "address"
        }
      ],
      "name": "getClaimableAmount",
      "outputs": [
        {
          "internalType": "uint256",
          "name": "claimable",
          "type": "uint256"
        },
        {
          "internalType": "uint256",
          "name": "totalEntitlement",
          "type": "uint256"
        },
        {
          "internalType": "uint256",
          "name": "alreadyClaimed",
          "type": "uint256"
        }
      ],
      "stateMutability": "view",
      "type": "function"
    },
    {
      "inputs": [
        {
          "internalType": "address",
          "name": "_owner",
          "type": "address"
        },
        {
          "internalType": "uint256",
          "name": "_index",
          "type": "uint256"
        }
      ],
      "name": "getGuardianAt",
      "outputs": [
        {
          "internalType": "address",
          "name": "",
          "type": "address"
        }
      ],
      "stateMutability": "view",
      "type": "function"
    },
    {
      "inputs": [
        {
          "internalType": "address",
          "name": "_owner",
          "type": "address"
        }
      ],
      "name": "getGuardianCount",
      "outputs": [
        {
          "internalType": "uint256",
          "name": "",
          "type": "uint256"
        }
      ],
      "stateMutability": "view",
      "type": "function"
    },
    {
      "inputs": [
        {
          "internalType": "address",
          "name": "_owner",
          "type": "address"
        }
      ],
      "name": "getOwnerBalance",
      "outputs": [
        {
          "internalType": "uint256",
          "name": "",
          "type": "uint256"
        }
      ],
      "stateMutability": "view",
      "type": "function"
    },
    {
      "inputs": [
        {
          "internalType": "address",
          "name": "_owner",
          "type": "address"
        }
      ],
      "name": "getReviveStatus",
      "outputs": [
        {
          "internalType": "bool",
          "name": "canRevive",
          "type": "bool"
        },
        {
          "internalType": "uint256",
          "name": "timeRemaining",
          "type": "uint256"
        }
      ],
      "stateMutability": "view",
      "type": "function"
    },
    {
      "inputs": [
        {
          "internalType": "address",
          "name": "",
          "type": "address"
        },
        {
          "internalType": "uint256",
          "name": "",
          "type": "uint256"
        }
      ],
      "name": "guardianLists",
      "outputs": [
        {
          "internalType": "address",
          "name": "",
          "type": "address"
        }
      ],
      "stateMutability": "view",
      "type": "function"
    },
    {
      "inputs": [
        {
          "internalType": "address",
          "name": "",
          "type": "address"
        },
        {
          "internalType": "address",
          "name": "",
          "type": "address"
        }
      ],
      "name": "guardians",
      "outputs": [
        {
          "internalType": "string",
          "name": "name",
          "type": "string"
        },
        {
          "internalType": "address",
          "name": "wallet",
          "type": "address"
        },
        {
          "internalType": "bool",
          "name": "isFixed",
          "type": "bool"
        }
      ],
      "stateMutability": "view",
      "type": "function"
    },
    {
      "inputs": [
        {
          "internalType": "address",
          "name": "_addr",
          "type": "address"
        }
      ],
      "name": "isOwner",
      "outputs": [
        {
          "internalType": "bool",
          "name": "",
          "type": "bool"
        }
      ],
      "stateMutability": "view",
      "type": "function"
    },
    {
      "inputs": [
        {
          "internalType": "address",
          "name": "",
          "type": "address"
        }
      ],
      "name": "ownerBalances",
      "outputs": [
        {
          "internalType": "uint256",
          "name": "",
          "type": "uint256"
        }
      ],
      "stateMutability": "view",
      "type": "function"
    },
    {
      "inputs": [
        {
          "internalType": "address",
          "name": "",
          "type": "address"
        }
      ],
      "name": "protocols",
      "outputs": [
        {
          "internalType": "bool",
          "name": "isRegistered",
          "type": "bool"
        },
        {
          "internalType": "uint256",
          "name": "lastHeartbeat",
          "type": "uint256"
        },
        {
          "internalType": "uint256",
          "name": "inactivityThreshold",
          "type": "uint256"
        },
        {
          "internalType": "bool",
          "name": "isDead",
          "type": "bool"
        },
        {
          "internalType": "uint256",
          "name": "initialVaultBalance",
          "type": "uint256"
        },
        {
          "internalType": "uint256",
          "name": "vestingStartTime",
          "type": "uint256"
        },
        {
          "internalType": "uint256",
          "name": "totalAllocation",
          "type": "uint256"
        },
        {
          "internalType": "uint256",
          "name": "deathDeclarationTime",
          "type": "uint256"
        }
      ],
      "stateMutability": "view",
      "type": "function"
    },
    {
      "inputs": [],
      "name": "proveLife",
      "outputs": [],
      "stateMutability": "nonpayable",
      "type": "function"
    },
    {
      "inputs": [
        {
          "internalType": "uint256",
          "name": "_thresholdSeconds",
          "type": "uint256"
        }
      ],
      "name": "register",
      "outputs": [],
      "stateMutability": "nonpayable",
      "type": "function"
    },
    {
      "inputs": [
        {
          "internalType": "address",
          "name": "_beneficiary",
          "type": "address"
        }
      ],
      "name": "removeBeneficiary",
      "outputs": [],
      "stateMutability": "nonpayable",
      "type": "function"
    },
    {
      "inputs": [
        {
          "internalType": "address",
          "name": "_guardian",
          "type": "address"
        }
      ],
      "name": "removeGuardian",
      "outputs": [],
      "stateMutability": "nonpayable",
      "type": "function"
    },
    {
      "inputs": [
        {
          "internalType": "address",
          "name": "_guardian",
          "type": "address"
        },
        {
          "internalType": "bool",
          "name": "_fixed",
          "type": "bool"
        }
      ],
      "name": "setGuardianFixed",
      "outputs": [],
      "stateMutability": "nonpayable",
      "type": "function"
    },
    {
      "inputs": [
        {
          "internalType": "uint256",
          "name": "_newThreshold",
          "type": "uint256"
        }
      ],
      "name": "updateInactivityThreshold",
      "outputs": [],
      "stateMutability": "nonpayable",
      "type": "function"
    },
    {
      "inputs": [
        {
          "internalType": "uint256",
          "name": "_amount",
          "type": "uint256"
        }
      ],
      "name": "withdraw",
      "outputs": [],
      "stateMutability": "nonpayable",
      "type": "function"
    },
    {
      "stateMutability": "payable",
      "type": "receive"
    }
  ],
  "bytecode": "0x608060405234801561001057600080fd5b5061289d806100206000396000f3fe6080604052600436106101e75760003560e01c806359633a1c11610102578063bd11c4c011610095578063e1a253d911610064578063e1a253d91461071c578063e3538bc114610753578063eb8b12d414610780578063f207564e146107a857600080fd5b8063bd11c4c0146106a9578063be3f2280146106be578063cb60ee24146106de578063d0e30db01461071457600080fd5b80637fcf440a116100d15780637fcf440a146105f85780638b9676a71461062e5780638c1334b21461064e578063bb7dbfe71461066e57600080fd5b806359633a1c146105835780635bd61f23146105a357806371404156146105b85780637e6929ae146105d857600080fd5b806336c79d521161017a578063448130811161014957806344813081146104ec578063460e73981461051b57806350b8c3721461054d578063539aa77f1461056d57600080fd5b806336c79d52146104685780633a6708e21461047f5780634036cec2146104b7578063422c1d37146104d757600080fd5b806326638a0a116101b657806326638a0a1461033d5780632e1a7d4d146103df5780632f54bf6e146103ff57806335f938671461044857600080fd5b80631e83409a1461029d57806320292859146102bf5780632348dd18146102df5780632423c7f31461030757600080fd5b36610298573360009081526020819052604090205460ff1661021c5760405163aba4733960e01b815260040160405180910390fd5b3460000361023d5760405163f2365b5b60e01b815260040160405180910390fd5b336000908152600160205260408120805434929061025c908490612339565b909155505060405134815233907f543ba50a5eec5e6178218e364b1d0f396157b3c8fa278522c2cb7fd99407d4749060200160405180910390a2005b600080fd5b3480156102a957600080fd5b506102bd6102b8366004612368565b6107c8565b005b3480156102cb57600080fd5b506102bd6102da36600461242d565b610c3a565b3480156102eb57600080fd5b506102f4601481565b6040519081526020015b60405180910390f35b34801561031357600080fd5b506102f4610322366004612368565b6001600160a01b031660009081526005602052604090205490565b34801561034957600080fd5b506103a2610358366004612368565b6000602081905290815260409020805460018201546002830154600384015460048501546005860154600687015460079097015460ff968716979596949593909416939192909188565b6040805198151589526020890197909752958701949094529115156060860152608085015260a084015260c083015260e0820152610100016102fe565b3480156103eb57600080fd5b506102bd6103fa36600461247b565b610e33565b34801561040b57600080fd5b5061043861041a366004612368565b6001600160a01b031660009081526020819052604090205460ff1690565b60405190151581526020016102fe565b34801561045457600080fd5b506102bd610463366004612494565b61100a565b34801561047457600080fd5b506102f462093a8081565b34801561048b57600080fd5b5061049f61049a36600461250a565b61130b565b6040516001600160a01b0390911681526020016102fe565b3480156104c357600080fd5b5061049f6104d236600461250a565b611343565b3480156104e357600080fd5b506102f4600a81565b3480156104f857600080fd5b5061050c610507366004612534565b61135f565b6040516102fe939291906125a4565b34801561052757600080fd5b5061053b610536366004612534565b611424565b6040516102fe969594939291906125ed565b34801561055957600080fd5b506102bd610568366004612368565b6114fa565b34801561057957600080fd5b506102f46103e881565b34801561058f57600080fd5b506102bd61059e366004612368565b61164c565b3480156105af57600080fd5b506102bd6118bf565b3480156105c457600080fd5b506102bd6105d3366004612368565b611a52565b3480156105e457600080fd5b5061049f6105f336600461250a565b611ca8565b34801561060457600080fd5b506102f4610613366004612368565b6001600160a01b031660009081526001602052604090205490565b34801561063a57600080fd5b5061049f61064936600461250a565b611d28565b34801561065a57600080fd5b506102bd610669366004612651565b611d8a565b34801561067a57600080fd5b5061068e610689366004612534565b611e81565b604080519384526020840192909252908201526060016102fe565b3480156106b557600080fd5b506102f4603c81565b3480156106ca57600080fd5b506102bd6106d936600461247b565b611ff1565b3480156106ea57600080fd5b506102f46106f9366004612368565b6001600160a01b031660009081526003602052604090205490565b6102bd612087565b34801561072857600080fd5b5061073c610737366004612368565b612133565b6040805192151583526020830191909152016102fe565b34801561075f57600080fd5b506102f461076e366004612368565b60016020526000908152604090205481565b34801561078c57600080fd5b5061049f73fe13b060897b5dabbc866c312a6839c007d181fb81565b3480156107b457600080fd5b506102bd6107c336600461247b565b6121a8565b60065460ff16156107ec57604051632c1ff44360e11b815260040160405180910390fd5b6006805460ff191660011790556001600160a01b0381166000908152602081905260409020600381015482919060ff166108395760405163759d4e6160e11b815260040160405180910390fd5b806005015460000361085e576040516306aa937d60e31b815260040160405180910390fd5b6001600160a01b0380841660009081526004602090815260408083203380855292529091206001810154909216146108a95760405163644d871f60e01b815260040160405180910390fd5b6001600160a01b038416600090815260208190526040812060028301546004820154919291612710916108db9161268d565b6108e591906126a4565b90506000808360050154426108fa91906126c6565b90506001600486015460ff166001811115610917576109176125d7565b03610930578460050154811061092b578291505b61095f565b846005015481106109435782915061095f565b6005850154610952828561268d565b61095c91906126a4565b91505b6000856003015483111561097f57600386015461097c90846126c6565b90505b806000036109a0576040516312d37ee560e31b815260040160405180910390fd5b6001600160a01b0389166000908152600160205260409020548111156109d95760405163a908d3d960e01b815260040160405180910390fd5b808660030160008282546109ed9190612339565b90915550506001600160a01b03891660009081526001602052604081208054839290610a1a9084906126c6565b9091555060009050612710610a316103e88461268d565b610a3b91906126a4565b90506000610a4982846126c6565b60018901546040519192506000916001600160a01b039091169083908381818185875af1925050503d8060008114610a9d576040519150601f19603f3d011682016040523d82523d6000602084013e610aa2565b606091505b5050905080610af85760405162461bcd60e51b815260206004820152601b60248201527f42656e6566696369617279207472616e73666572206661696c6564000000000060448201526064015b60405180910390fd5b60405160009073fe13b060897b5dabbc866c312a6839c007d181fb9085908381818185875af1925050503d8060008114610b4e576040519150601f19603f3d011682016040523d82523d6000602084013e610b53565b606091505b5050905080610b9a5760405162461bcd60e51b8152602060048201526013602482015272119959481d1c985b9cd9995c8819985a5b1959606a1b6044820152606401610aef565b60018a01546040518681526001600160a01b03918216918f16907f716942921e9b67ee05c4c2ffcf216f189086c9053b444c8928a49db4bdb1ae8e9060200160405180910390a360405184815233906001600160a01b038f16907f11218599de218e2eec1319fda62c5ac18d9e7a9ebf9610ee7fd27a652598e6369060200160405180910390a350506006805460ff191690555050505050505050505050565b3360009081526020819052604090205460ff16610c6a5760405163aba4733960e01b815260040160405180910390fd5b806001600160a01b038116610c925760405163d92e233d60e01b815260040160405180910390fd5b828051600003610cb55760405163ecd7b0d160e01b815260040160405180910390fd5b3360009081526002602090815260408083206001600160a01b0387811685529252909120600101541615610cfc57604051633581763360e01b815260040160405180910390fd5b33600090815260036020526040902054600a11610d2c57604051639308529b60e01b815260040160405180910390fd5b336001600160a01b03841603610d555760405163265079bd60e21b815260040160405180910390fd5b604080516060810182528581526001600160a01b03851660208083018290526000838501819052338152600282528481209281529190529190912081518190610d9e9082612762565b50602082810151600192830180546040958601511515600160a01b026001600160a81b03199091166001600160a01b03938416171790553360008181526003845285812080549586018155815292832090930180549188166001600160a01b0319929092168217905592517fbc3292102fa77e083913064b282926717cdfaede4d35f553d66366c0a3da755a9190a350505050565b3360009081526020819052604090205460ff16610e635760405163aba4733960e01b815260040160405180910390fd5b60065460ff1615610e8757604051632c1ff44360e11b815260040160405180910390fd5b6006805460ff191660011790553360009081526020819052604090206003015460ff1615610ec8576040516352e39c5b60e11b815260040160405180910390fd5b80600003610ee957604051631f2a200560e01b815260040160405180910390fd5b33600090815260016020526040902054811115610f1957604051631e9acf1760e31b815260040160405180910390fd5b3360009081526001602052604081208054839290610f389084906126c6565b9091555050604051600090339083908381818185875af1925050503d8060008114610f7f576040519150601f19603f3d011682016040523d82523d6000602084013e610f84565b606091505b5050905080610fc75760405162461bcd60e51b815260206004820152600f60248201526e151c985b9cd9995c8819985a5b1959608a1b6044820152606401610aef565b60405182815233907feaff4b37086828766ad3268786972c0cd24259d4c87a80f9d3963a3c3d999b0d9060200160405180910390a250506006805460ff19169055565b3360009081526020819052604090205460ff1661103a5760405163aba4733960e01b815260040160405180910390fd5b836001600160a01b0381166110625760405163d92e233d60e01b815260040160405180910390fd5b8580516000036110855760405163ecd7b0d160e01b815260040160405180910390fd5b3360009081526004602090815260408083206001600160a01b038a8116855292529091206001015416156110cc57604051637ffebe8360e01b815260040160405180910390fd5b336000908152600560205260409020546014116110fc5760405163dd34c16560e01b815260040160405180910390fd5b8460000361111d5760405163ba0d87b560e01b815260040160405180910390fd5b336000908152602081905260409020600601546127109061113f908790612339565b111561115e5760405163f1b7a5d160e01b815260040160405180910390fd5b8260000361117f5760405163346ab43760e11b815260040160405180910390fd5b6040518060c00160405280888152602001876001600160a01b03168152602001868152602001600081526020018560018111156111be576111be6125d7565b815260209081018590523360009081526004825260408082206001600160a01b038b16835290925220815181906111f59082612762565b506020820151600182810180546001600160a01b0319166001600160a01b0390931692909217909155604083015160028301556060830151600383015560808301516004830180549192909160ff1916908381811115611257576112576125d7565b021790555060a091909101516005918201553360008181526020928352604080822080546001810182559083528483200180546001600160a01b0319166001600160a01b038c1617905591815291829052812060060180548792906112bd908490612339565b90915550506040518581526001600160a01b0387169033907f5d081d791b64899adab031015397ef8d7600501212ef97573b9e50f8c9bb6d9b9060200160405180910390a350505050505050565b6005602052816000526040600020818154811061132757600080fd5b6000918252602090912001546001600160a01b03169150829050565b6003602052816000526040600020818154811061132757600080fd5b6002602090815260009283526040808420909152908252902080548190611385906126d9565b80601f01602080910402602001604051908101604052809291908181526020018280546113b1906126d9565b80156113fe5780601f106113d3576101008083540402835291602001916113fe565b820191906000526020600020905b8154815290600101906020018083116113e157829003601f168201915b505050600190930154919250506001600160a01b0381169060ff600160a01b9091041683565b600460209081526000928352604080842090915290825290208054819061144a906126d9565b80601f0160208091040260200160405190810160405280929190818152602001828054611476906126d9565b80156114c35780601f10611498576101008083540402835291602001916114c3565b820191906000526020600020905b8154815290600101906020018083116114a657829003601f168201915b50505050600183015460028401546003850154600486015460059096015494956001600160a01b03909316949193509160ff169086565b6001600160a01b038082166000908152600260209081526040808320338452909152902060010154829116611542576040516377b6878160e11b815260040160405180910390fd5b6001600160a01b0382166000908152602081905260409020805460ff1661157c5760405163aba4733960e01b815260040160405180910390fd5b600381015460ff16156115a257604051637281d96b60e11b815260040160405180910390fd5b806002015481600101546115b69190612339565b42116115d5576040516305ffd62b60e11b815260040160405180910390fd5b60038101805460ff191660019081179091554260058301819055600783018190556001600160a01b0385166000818152602093845260409081902054600486015551918252917f79a18691d9845d93f3a7276c16d1737e190da43060fa3fb2049f02dbf50a3d9a91015b60405180910390a2505050565b3360009081526020819052604090205460ff1661167c5760405163aba4733960e01b815260040160405180910390fd5b3360009081526004602090815260408083206001600160a01b038581168552925290912060010154166116c25760405163694f351f60e01b815260040160405180910390fd5b3360008181526004602090815260408083206001600160a01b038616845282528083206002015493835290829052812060060180548392906117059084906126c6565b90915550503360009081526004602090815260408083206001600160a01b038616845290915281209061173882826122cd565b506001810180546001600160a01b03191690556000600282018190556003820181905560048201805460ff19169055600591820181905533815260209190915260408120805490915b8181101561188257846001600160a01b03168382815481106117a5576117a5612822565b6000918252602090912001546001600160a01b03160361187057826117cb6001846126c6565b815481106117db576117db612822565b9060005260206000200160009054906101000a90046001600160a01b031683828154811061180b5761180b612822565b9060005260206000200160006101000a8154816001600160a01b0302191690836001600160a01b031602179055508280548061184957611849612838565b600082815260209020810160001990810180546001600160a01b0319169055019055611882565b8061187a8161284e565b915050611781565b506040516001600160a01b0385169033907f1a6590bd0cabbfcc7c86bef99e1034054e179905cfcc294598fcd426c092244290600090a350505050565b3360009081526020819052604090205460ff166118ef5760405163aba4733960e01b815260040160405180910390fd5b336000908152602081905260409020600381015460ff1615611a115762093a80816007015461191e9190612339565b42111561193e57604051634b3c322760e11b815260040160405180910390fd5b60038101805460ff1916905560006005808301829055600483018290556007830182905542600184015533825260205260408120805490915b818110156119de57336000908152600460205260408120845482908690859081106119a4576119a4612822565b60009182526020808320909101546001600160a01b03168352820192909252604001902060030155806119d68161284e565b915050611977565b5060405142815233907f5178649125cff20230f3d21b86a7386e3924b30d642eea1f977a6668fab8344c9060200161163f565b426001820181905560405190815233907fdcefc94f16bf43dea53b136be3c49b2418f70b051a322b89f92f7739d65548ea906020015b60405180910390a250565b3360009081526020819052604090205460ff16611a825760405163aba4733960e01b815260040160405180910390fd5b3360009081526002602090815260408083206001600160a01b03858116855292529091206001015416611ac8576040516337c5c3a360e21b815260040160405180910390fd5b3360009081526002602090815260408083206001600160a01b0385168452909152902060010154600160a01b900460ff1615611b175760405163051c65db60e01b815260040160405180910390fd5b3360009081526002602090815260408083206001600160a01b0385168452909152812090611b4582826122cd565b5060010180546001600160a81b0319169055336000908152600360205260408120805490915b81811015611c6c57836001600160a01b0316838281548110611b8f57611b8f612822565b6000918252602090912001546001600160a01b031603611c5a5782611bb56001846126c6565b81548110611bc557611bc5612822565b9060005260206000200160009054906101000a90046001600160a01b0316838281548110611bf557611bf5612822565b9060005260206000200160006101000a8154816001600160a01b0302191690836001600160a01b0316021790555082805480611c3357611c33612838565b600082815260209020810160001990810180546001600160a01b0319169055019055611c6c565b80611c648161284e565b915050611b6b565b506040516001600160a01b0384169033907fee943cdb81826d5909c559c6b1ae6908fcaf2dbc16c4b730346736b486283e8b90600090a3505050565b6001600160a01b0382166000908152600360205260408120548210611ce057604051634e23d03560e01b815260040160405180910390fd5b6001600160a01b0383166000908152600360205260409020805483908110611d0a57611d0a612822565b6000918252602090912001546001600160a01b031690505b92915050565b6001600160a01b0382166000908152600560205260408120548210611d6057604051634e23d03560e01b815260040160405180910390fd5b6001600160a01b0383166000908152600560205260409020805483908110611d0a57611d0a612822565b3360009081526020819052604090205460ff16611dba5760405163aba4733960e01b815260040160405180910390fd5b3360009081526002602090815260408083206001600160a01b03868116855292529091206001015416611e00576040516337c5c3a360e21b815260040160405180910390fd5b3360008181526002602090815260408083206001600160a01b0387168085529252918290206001018054851515600160a01b0260ff60a01b1990911617905590519091907fea39c92a08a5c775f8b77f8813f0c227d5ae58f04e182b81b62d37a24107484f90611e7590851515815260200190565b60405180910390a35050565b6001600160a01b0380831660009081526020818152604080832060048352818420948616845293909152812060038301549192839283929060ff16611ed95760405163759d4e6160e11b815260040160405180910390fd5b60018101546001600160a01b0316611f045760405163644d871f60e01b815260040160405180910390fd5b62093a808260070154611f179190612339565b4211611f2f5760008060009450945094505050611fea565b61271081600201548360040154611f46919061268d565b611f5091906126a4565b9350806003015492506000826005015442611f6b91906126c6565b905060006001600484015460ff166001811115611f8a57611f8a6125d7565b03611fa25782600501548210611f9d5750845b611fd0565b82600501548210611fb4575084611fd0565b6005830154611fc3838861268d565b611fcd91906126a4565b90505b84811115611fe557611fe285826126c6565b96505b505050505b9250925092565b3360009081526020819052604090205460ff166120215760405163aba4733960e01b815260040160405180910390fd5b603c811015612043576040516358c277e760e01b815260040160405180910390fd5b336000818152602081815260409182902060020184905590518381527fa4d780a276eb469a8a23984707d159b7887c3f1d43e2cc22a91cea75faea9ec39101611a47565b3360009081526020819052604090205460ff166120b75760405163aba4733960e01b815260040160405180910390fd5b346000036120d85760405163f2365b5b60e01b815260040160405180910390fd5b33600090815260016020526040812080543492906120f7908490612339565b909155505060405134815233907f543ba50a5eec5e6178218e364b1d0f396157b3c8fa278522c2cb7fd99407d4749060200160405180910390a2565b6001600160a01b0381166000908152602081905260408120600381015482919060ff166121665750600093849350915050565b600062093a80826007015461217b9190612339565b9050804210612191575060009485945092505050565b600161219d42836126c6565b935093505050915091565b3360009081526020819052604090205460ff16156121d957604051630ea075bf60e21b815260040160405180910390fd5b603c8110156121fb576040516358c277e760e01b815260040160405180910390fd5b604080516101008101825260018082524260208084019182528385018681526000606086018181526080870182815260a0880183815260c0890184815260e08a018581523380875297869052948b902099518a5490151560ff19918216178b559751988a0198909855935160028901559051600388018054911515919096161790945592516004860155516005850155915160068401555160079092019190915590517fa4d780a276eb469a8a23984707d159b7887c3f1d43e2cc22a91cea75faea9ec390611a479084815260200190565b5080546122d9906126d9565b6000825580601f106122e9575050565b601f016020900490600052602060002090810190612307919061230a565b50565b5b8082111561231f576000815560010161230b565b5090565b634e487b7160e01b600052601160045260246000fd5b80820180821115611d2257611d22612323565b80356001600160a01b038116811461236357600080fd5b919050565b60006020828403121561237a57600080fd5b6123838261234c565b9392505050565b634e487b7160e01b600052604160045260246000fd5b600082601f8301126123b157600080fd5b813567ffffffffffffffff808211156123cc576123cc61238a565b604051601f8301601f19908116603f011681019082821181831017156123f4576123f461238a565b8160405283815286602085880101111561240d57600080fd5b836020870160208301376000602085830101528094505050505092915050565b6000806040838503121561244057600080fd5b823567ffffffffffffffff81111561245757600080fd5b612463858286016123a0565b9250506124726020840161234c565b90509250929050565b60006020828403121561248d57600080fd5b5035919050565b600080600080600060a086880312156124ac57600080fd5b853567ffffffffffffffff8111156124c357600080fd5b6124cf888289016123a0565b9550506124de6020870161234c565b9350604086013592506060860135600281106124f957600080fd5b949793965091946080013592915050565b6000806040838503121561251d57600080fd5b6125268361234c565b946020939093013593505050565b6000806040838503121561254757600080fd5b6125508361234c565b91506124726020840161234c565b6000815180845260005b8181101561258457602081850181015186830182015201612568565b506000602082860101526020601f19601f83011685010191505092915050565b6060815260006125b7606083018661255e565b6001600160a01b0394909416602083015250901515604090910152919050565b634e487b7160e01b600052602160045260246000fd5b60c08152600061260060c083018961255e565b6001600160a01b0388166020840152604083018790526060830186905290506002841061263d57634e487b7160e01b600052602160045260246000fd5b608082019390935260a00152949350505050565b6000806040838503121561266457600080fd5b61266d8361234c565b91506020830135801515811461268257600080fd5b809150509250929050565b8082028115828204841417611d2257611d22612323565b6000826126c157634e487b7160e01b600052601260045260246000fd5b500490565b81810381811115611d2257611d22612323565b600181811c908216806126ed57607f821691505b60208210810361270d57634e487b7160e01b600052602260045260246000fd5b50919050565b601f82111561275d57600081815260208120601f850160051c8101602086101561273a5750805b601f850160051c820191505b8181101561275957828155600101612746565b5050505b505050565b815167ffffffffffffffff81111561277c5761277c61238a565b6127908161278a84546126d9565b84612713565b602080601f8311600181146127c557600084156127ad5750858301515b600019600386901b1c1916600185901b178555612759565b600085815260208120601f198616915b828110156127f4578886015182559484019460019091019084016127d5565b50858210156128125787850151600019600388901b60f8161c191681555b5050505050600190811b01905550565b634e487b7160e01b600052603260045260246000fd5b634e487b7160e01b600052603160045260246000fd5b60006001820161286057612860612323565b506001019056fea2646970667358221220e8ac60ae4b4de4f5e13d1f919aee65c7da8e0c792a5bbdfcb527ded04f7925c064736f6c63430008140033",
  "linkReferences": {},
  "deployedLinkReferences": {}
}