{
  "_format": "hh-sol-artifact-1",
  "contractName": "AfterLife",
  "sourceName": "contracts/AfterLife.sol",
  "abi": [
    {
      "inputs": [
        {
          "internalType": "uint256",
          "name": "_thresholdSeconds",
          "type": "uint256"
        }
      ],
      "stateMutability": "nonpayable",
      "type": "constructor"
    },
    {
      "anonymous": false,
      "inputs": [
        {
          "indexed": true,
          "internalType": "address",
          "name": "wallet",
          "type": "address"
        },
        {
          "indexed": false,
          "internalType": "uint256",
          "name": "allocation",
          "type": "uint256"
        }
      ],
      "name": "BeneficiaryAdded",
      "type": "event"
    },
    {
      "anonymous": false,
      "inputs": [
        {
          "indexed": true,
          "internalType": "address",
          "name": "owner",
          "type": "address"
        }
      ],
      "name": "Deprecated",
      "type": "event"
    },
    {
      "anonymous": false,
      "inputs": [
        {
          "indexed": true,
          "internalType": "address",
          "name": "beneficiary",
          "type": "address"
        },
        {
          "indexed": false,
          "internalType": "uint256",
          "name": "amount",
          "type": "uint256"
        }
      ],
      "name": "FundsClaimed",
      "type": "event"
    },
    {
      "anonymous": false,
      "inputs": [
        {
          "indexed": true,
          "internalType": "address",
          "name": "wallet",
          "type": "address"
        }
      ],
      "name": "GuardianAdded",
      "type": "event"
    },
    {
      "anonymous": false,
      "inputs": [
        {
          "indexed": false,
          "internalType": "uint256",
          "name": "timestamp",
          "type": "uint256"
        }
      ],
      "name": "InactivityConfirmed",
      "type": "event"
    },
    {
      "anonymous": false,
      "inputs": [
        {
          "indexed": false,
          "internalType": "uint256",
          "name": "timestamp",
          "type": "uint256"
        }
      ],
      "name": "Pulse",
      "type": "event"
    },
    {
      "inputs": [
        {
          "internalType": "string",
          "name": "_name",
          "type": "string"
        },
        {
          "internalType": "address",
          "name": "_wallet",
          "type": "address"
        },
        {
          "internalType": "uint256",
          "name": "_allocationBps",
          "type": "uint256"
        },
        {
          "internalType": "enum AfterLife.VestingType",
          "name": "_vestingType",
          "type": "uint8"
        },
        {
          "internalType": "uint256",
          "name": "_duration",
          "type": "uint256"
        }
      ],
      "name": "addBeneficiary",
      "outputs": [],
      "stateMutability": "nonpayable",
      "type": "function"
    },
    {
      "inputs": [
        {
          "internalType": "string",
          "name": "_name",
          "type": "string"
        },
        {
          "internalType": "address",
          "name": "_wallet",
          "type": "address"
        }
      ],
      "name": "addGuardian",
      "outputs": [],
      "stateMutability": "nonpayable",
      "type": "function"
    },
    {
      "inputs": [
        {
          "internalType": "address",
          "name": "",
          "type": "address"
        }
      ],
      "name": "beneficiaries",
      "outputs": [
        {
          "internalType": "string",
          "name": "name",
          "type": "string"
        },
        {
          "internalType": "address",
          "name": "wallet",
          "type": "address"
        },
        {
          "internalType": "uint256",
          "name": "allocation",
          "type": "uint256"
        },
        {
          "internalType": "uint256",
          "name": "amountClaimed",
          "type": "uint256"
        },
        {
          "internalType": "enum AfterLife.VestingType",
          "name": "vestingType",
          "type": "uint8"
        },
        {
          "internalType": "uint256",
          "name": "vestingDuration",
          "type": "uint256"
        }
      ],
      "stateMutability": "view",
      "type": "function"
    },
    {
      "inputs": [
        {
          "internalType": "uint256",
          "name": "",
          "type": "uint256"
        }
      ],
      "name": "beneficiaryList",
      "outputs": [
        {
          "internalType": "address",
          "name": "",
          "type": "address"
        }
      ],
      "stateMutability": "view",
      "type": "function"
    },
    {
      "inputs": [],
      "name": "claim",
      "outputs": [],
      "stateMutability": "nonpayable",
      "type": "function"
    },
    {
      "inputs": [],
      "name": "confirmInactivity",
      "outputs": [],
      "stateMutability": "nonpayable",
      "type": "function"
    },
    {
      "inputs": [
        {
          "internalType": "uint256",
          "name": "",
          "type": "uint256"
        }
      ],
      "name": "guardianList",
      "outputs": [
        {
          "internalType": "address",
          "name": "",
          "type": "address"
        }
      ],
      "stateMutability": "view",
      "type": "function"
    },
    {
      "inputs": [
        {
          "internalType": "address",
          "name": "",
          "type": "address"
        }
      ],
      "name": "guardians",
      "outputs": [
        {
          "internalType": "string",
          "name": "name",
          "type": "string"
        },
        {
          "internalType": "address",
          "name": "wallet",
          "type": "address"
        },
        {
          "internalType": "bool",
          "name": "isFixed",
          "type": "bool"
        }
      ],
      "stateMutability": "view",
      "type": "function"
    },
    {
      "inputs": [],
      "name": "inactivityThreshold",
      "outputs": [
        {
          "internalType": "uint256",
          "name": "",
          "type": "uint256"
        }
      ],
      "stateMutability": "view",
      "type": "function"
    },
    {
      "inputs": [],
      "name": "initialVaultBalance",
      "outputs": [
        {
          "internalType": "uint256",
          "name": "",
          "type": "uint256"
        }
      ],
      "stateMutability": "view",
      "type": "function"
    },
    {
      "inputs": [],
      "name": "isDead",
      "outputs": [
        {
          "internalType": "bool",
          "name": "",
          "type": "bool"
        }
      ],
      "stateMutability": "view",
      "type": "function"
    },
    {
      "inputs": [],
      "name": "lastHeartbeat",
      "outputs": [
        {
          "internalType": "uint256",
          "name": "",
          "type": "uint256"
        }
      ],
      "stateMutability": "view",
      "type": "function"
    },
    {
      "inputs": [],
      "name": "owner",
      "outputs": [
        {
          "internalType": "address",
          "name": "",
          "type": "address"
        }
      ],
      "stateMutability": "view",
      "type": "function"
    },
    {
      "inputs": [],
      "name": "proveLife",
      "outputs": [],
      "stateMutability": "nonpayable",
      "type": "function"
    },
    {
      "inputs": [
        {
          "internalType": "address",
          "name": "_wallet",
          "type": "address"
        }
      ],
      "name": "removeBeneficiary",
      "outputs": [],
      "stateMutability": "nonpayable",
      "type": "function"
    },
    {
      "inputs": [
        {
          "internalType": "address",
          "name": "_wallet",
          "type": "address"
        }
      ],
      "name": "removeGuardian",
      "outputs": [],
      "stateMutability": "nonpayable",
      "type": "function"
    },
    {
      "inputs": [],
      "name": "totalAllocation",
      "outputs": [
        {
          "internalType": "uint256",
          "name": "",
          "type": "uint256"
        }
      ],
      "stateMutability": "view",
      "type": "function"
    },
    {
      "inputs": [],
      "name": "vestingStartTime",
      "outputs": [
        {
          "internalType": "uint256",
          "name": "",
          "type": "uint256"
        }
      ],
      "stateMutability": "view",
      "type": "function"
    }
  ],
  "bytecode": "0x608060405234801561001057600080fd5b5060405161168438038061168483398101604081905261002f9161004d565b600080546001600160a01b0319163317905542600255600155610066565b60006020828403121561005f57600080fd5b5051919050565b61160f806100756000396000f3fe608060405234801561001057600080fd5b50600436106101165760003560e01c80635ec005fa116100a25780638da5cb5b116100715780638da5cb5b1461022557806399baa10c146102385780639e761bbb146102555780639ec8627614610268578063a8660a781461027157600080fd5b80635ec005fa146101d557806369c1a71214610200578063714041561461020957806379203dc41461021c57600080fd5b806335f93867116100e957806335f93867146101975780633af5c3a6146101aa5780634e71d92d146101b257806359633a1c146101ba5780635bd61f23146101cd57600080fd5b8063015677391461011b5780630633b14a14610149578063202928591461016b5780632f8a205b14610180575b600080fd5b61012e610129366004611119565b61027a565b60405161014096959493929190611197565b60405180910390f35b61015c610157366004611119565b610345565b604051610140939291906111fb565b61017e6101793660046112d1565b6103ff565b005b610189600a5481565b604051908152602001610140565b61017e6101a536600461131f565b610572565b61017e6107cc565b61017e610905565b61017e6101c8366004611119565b610bd9565b61017e610df2565b6101e86101e3366004611395565b610e52565b6040516001600160a01b039091168152602001610140565b61018960025481565b61017e610217366004611119565b610e7c565b61018960085481565b6000546101e8906001600160a01b031681565b6003546102459060ff1681565b6040519015158152602001610140565b6101e8610263366004611395565b611097565b61018960015481565b61018960095481565b600660205260009081526040902080548190610295906113ae565b80601f01602080910402602001604051908101604052809291908181526020018280546102c1906113ae565b801561030e5780601f106102e35761010080835404028352916020019161030e565b820191906000526020600020905b8154815290600101906020018083116102f157829003601f168201915b50505050600183015460028401546003850154600486015460059096015494956001600160a01b03909316949193509160ff169086565b600460205260009081526040902080548190610360906113ae565b80601f016020809104026020016040519081016040528092919081815260200182805461038c906113ae565b80156103d95780601f106103ae576101008083540402835291602001916103d9565b820191906000526020600020905b8154815290600101906020018083116103bc57829003601f168201915b505050600190930154919250506001600160a01b0381169060ff600160a01b9091041683565b6000546001600160a01b031633146104325760405162461bcd60e51b8152600401610429906113e8565b60405180910390fd5b6001600160a01b0381811660009081526004602052604090206001015416156104865760405162461bcd60e51b815260206004820152600660248201526545786973747360d01b6044820152606401610429565b604080516060810182528381526001600160a01b038316602080830182905260008385018190529182526004905291909120815182919081906104c99082611459565b506020820151600191820180546040948501511515600160a01b026001600160a81b03199091166001600160a01b039384161717905560058054928301815560009081527f036b6384b5eca791c62761152d0c79bb0604c104a5fb6f4eb0703f3154bb3db090920180549186166001600160a01b0319929092168217905591517f038596bb31e2e7d3d9f184d4c98b310103f6d7f5830e5eec32bffe6f1728f9699190a2505050565b6000546001600160a01b0316331461059c5760405162461bcd60e51b8152600401610429906113e8565b6001600160a01b0384811660009081526006602052604090206001015416156105f05760405162461bcd60e51b815260206004820152600660248201526545786973747360d01b6044820152606401610429565b61271083600854610601919061152f565b111561063b5760405162461bcd60e51b81526020600482015260096024820152684f766572203130302560b81b6044820152606401610429565b60006040518060c00160405280878152602001866001600160a01b031681526020018581526020016000815260200184600181111561067c5761067c611181565b815260209081018490526001600160a01b03871660009081526006909152604090208151919250829181906106b19082611459565b506020820151600182810180546001600160a01b0319166001600160a01b0390931692909217909155604083015160028301556060830151600383015560808301516004830180549192909160ff191690838181111561071357610713611181565b021790555060a091909101516005909101556007805460018101825560009182527fa66cc928b5edb82af9bd49922954155ab7b0942694bea4ce44661d9a8736c6880180546001600160a01b0319166001600160a01b0388161790556008805486929061078190849061152f565b90915550506040518481526001600160a01b038616907fe6b83177f11971ba30369bb38b914ffba97d5969a3c857b286fa8fdbb150b3ba9060200160405180910390a2505050505050565b336000908152600460205260409020600101546001600160a01b03166108235760405162461bcd60e51b815260206004820152600c60248201526b2737ba1023bab0b93234b0b760a11b6044820152606401610429565b60035460ff16156108655760405162461bcd60e51b815260206004820152600c60248201526b105b1c9958591e481119585960a21b6044820152606401610429565b600154600254610875919061152f565b42116108b25760405162461bcd60e51b815260206004820152600c60248201526b4f776e65722041637469766560a01b6044820152606401610429565b6003805460ff1916600117905542600981905547600a556040517f5c73863adccecb1408b862140a5139af3856435f501498bac55a4130f52e7a8c916108fb9190815260200190565b60405180910390a1565b60035460ff166109495760405162461bcd60e51b815260206004820152600f60248201526e50726f746f636f6c2041637469766560881b6044820152606401610429565b6000600954116109915760405162461bcd60e51b815260206004820152601360248201527215995cdd1a5b99c8139bdd0814dd185c9d1959606a1b6044820152606401610429565b336000818152600660205260409020600181015490916001600160a01b03909116146109f15760405162461bcd60e51b815260206004820152600f60248201526e4e6f742042656e656669636961727960881b6044820152606401610429565b60006127108260020154600a54610a089190611548565b610a12919061155f565b905060008060095442610a259190611581565b90506001600485015460ff166001811115610a4257610a42611181565b03610a635783600501548110610a5a57829150610a92565b60009150610a92565b83600501548110610a7657829150610a92565b6005840154610a858285611548565b610a8f919061155f565b91505b60008460030154831115610ab2576003850154610aaf9084611581565b90505b60008111610af55760405162461bcd60e51b815260206004820152601060248201526f4e6f7468696e6720746f20636c61696d60801b6044820152606401610429565b80471015610b385760405162461bcd60e51b815260206004820152601060248201526f5661756c7420496e736f6c76656e637960801b6044820152606401610429565b80856003016000828254610b4c919061152f565b909155505060018501546040516001600160a01b039091169082156108fc029083906000818181858888f19350505050158015610b8d573d6000803e3d6000fd5b5060018501546040518281526001600160a01b03909116907fa65a8b4f7f65a1063243d7f7e9e4da00ff767599acf21549ef2548a45d1695ae9060200160405180910390a25050505050565b6000546001600160a01b03163314610c035760405162461bcd60e51b8152600401610429906113e8565b6001600160a01b0381811660009081526006602052604090206001015416610c595760405162461bcd60e51b8152602060048201526009602482015268139bdd08119bdd5b9960ba1b6044820152606401610429565b6001600160a01b0381166000908152600660205260408120600201546008805491928392610c88908490611581565b90915550506001600160a01b038216600090815260066020526040812090610cb082826110a7565b506001810180546001600160a01b03191690556000600282018190556003820181905560048201805460ff1916905560059091018190555b600754811015610ded57826001600160a01b031660078281548110610d0f57610d0f611594565b6000918252602090912001546001600160a01b031603610ddb5760078054610d3990600190611581565b81548110610d4957610d49611594565b600091825260209091200154600780546001600160a01b039092169183908110610d7557610d75611594565b9060005260206000200160006101000a8154816001600160a01b0302191690836001600160a01b031602179055506007805480610db457610db46115aa565b600082815260209020810160001990810180546001600160a01b0319169055019055505050565b80610de5816115c0565b915050610ce8565b505050565b6000546001600160a01b03163314610e1c5760405162461bcd60e51b8152600401610429906113e8565b4260028190556040519081527f4f277404b6580a9ae55995929e215329056c6bca500f33aca15ae3c3d0153191906020016108fb565b60058181548110610e6257600080fd5b6000918252602090912001546001600160a01b0316905081565b6000546001600160a01b03163314610ea65760405162461bcd60e51b8152600401610429906113e8565b6001600160a01b0381811660009081526004602052604090206001015416610efc5760405162461bcd60e51b8152602060048201526009602482015268139bdd08119bdd5b9960ba1b6044820152606401610429565b6001600160a01b038116600090815260046020526040902060010154600160a01b900460ff1615610f575760405162461bcd60e51b8152602060048201526005602482015264119a5e195960da1b6044820152606401610429565b6001600160a01b038116600090815260046020526040812090610f7a82826110a7565b5060010180546001600160a81b031916905560005b60055481101561109357816001600160a01b031660058281548110610fb657610fb6611594565b6000918252602090912001546001600160a01b0316036110815760058054610fe090600190611581565b81548110610ff057610ff0611594565b600091825260209091200154600580546001600160a01b03909216918390811061101c5761101c611594565b9060005260206000200160006101000a8154816001600160a01b0302191690836001600160a01b03160217905550600580548061105b5761105b6115aa565b600082815260209020810160001990810180546001600160a01b03191690550190555050565b8061108b816115c0565b915050610f8f565b5050565b60078181548110610e6257600080fd5b5080546110b3906113ae565b6000825580601f106110c3575050565b601f0160209004906000526020600020908101906110e191906110e4565b50565b5b808211156110f957600081556001016110e5565b5090565b80356001600160a01b038116811461111457600080fd5b919050565b60006020828403121561112b57600080fd5b611134826110fd565b9392505050565b6000815180845260005b8181101561116157602081850181015186830182015201611145565b506000602082860101526020601f19601f83011685010191505092915050565b634e487b7160e01b600052602160045260246000fd5b60c0815260006111aa60c083018961113b565b6001600160a01b038816602084015260408301879052606083018690529050600284106111e757634e487b7160e01b600052602160045260246000fd5b608082019390935260a00152949350505050565b60608152600061120e606083018661113b565b6001600160a01b0394909416602083015250901515604090910152919050565b634e487b7160e01b600052604160045260246000fd5b600082601f83011261125557600080fd5b813567ffffffffffffffff808211156112705761127061122e565b604051601f8301601f19908116603f011681019082821181831017156112985761129861122e565b816040528381528660208588010111156112b157600080fd5b836020870160208301376000602085830101528094505050505092915050565b600080604083850312156112e457600080fd5b823567ffffffffffffffff8111156112fb57600080fd5b61130785828601611244565b925050611316602084016110fd565b90509250929050565b600080600080600060a0868803121561133757600080fd5b853567ffffffffffffffff81111561134e57600080fd5b61135a88828901611244565b955050611369602087016110fd565b93506040860135925060608601356002811061138457600080fd5b949793965091946080013592915050565b6000602082840312156113a757600080fd5b5035919050565b600181811c908216806113c257607f821691505b6020821081036113e257634e487b7160e01b600052602260045260246000fd5b50919050565b6020808252600990820152682737ba1027bbb732b960b91b604082015260600190565b601f821115610ded57600081815260208120601f850160051c810160208610156114325750805b601f850160051c820191505b818110156114515782815560010161143e565b505050505050565b815167ffffffffffffffff8111156114735761147361122e565b6114878161148184546113ae565b8461140b565b602080601f8311600181146114bc57600084156114a45750858301515b600019600386901b1c1916600185901b178555611451565b600085815260208120601f198616915b828110156114eb578886015182559484019460019091019084016114cc565b50858210156115095787850151600019600388901b60f8161c191681555b5050505050600190811b01905550565b634e487b7160e01b600052601160045260246000fd5b8082018082111561154257611542611519565b92915050565b808202811582820484141761154257611542611519565b60008261157c57634e487b7160e01b600052601260045260246000fd5b500490565b8181038181111561154257611542611519565b634e487b7160e01b600052603260045260246000fd5b634e487b7160e01b600052603160045260246000fd5b6000600182016115d2576115d2611519565b506001019056fea26469706673582212206535ff53a84fe6e1ddcc2c6989a64498015c3d13c0ea912b2eb140506edb726664736f6c63430008140033",
  "linkReferences": {},
  "deployedLinkReferences": {}
}