{
  "_format": "hh-sol-artifact-1",
  "contractName": "AfterLife",
  "sourceName": "contracts/AfterLife.sol",
  "abi": [
    {
      "inputs": [
        {
          "internalType": "uint256",
          "name": "_thresholdSeconds",
          "type": "uint256"
        }
      ],
      "stateMutability": "nonpayable",
      "type": "constructor"
    },
    {
      "anonymous": false,
      "inputs": [
        {
          "indexed": true,
          "internalType": "address",
          "name": "wallet",
          "type": "address"
        },
        {
          "indexed": false,
          "internalType": "uint256",
          "name": "allocation",
          "type": "uint256"
        }
      ],
      "name": "BeneficiaryAdded",
      "type": "event"
    },
    {
      "anonymous": false,
      "inputs": [
        {
          "indexed": true,
          "internalType": "address",
          "name": "owner",
          "type": "address"
        }
      ],
      "name": "Deprecated",
      "type": "event"
    },
    {
      "anonymous": false,
      "inputs": [
        {
          "indexed": true,
          "internalType": "address",
          "name": "beneficiary",
          "type": "address"
        },
        {
          "indexed": false,
          "internalType": "uint256",
          "name": "amount",
          "type": "uint256"
        }
      ],
      "name": "FundsClaimed",
      "type": "event"
    },
    {
      "anonymous": false,
      "inputs": [
        {
          "indexed": true,
          "internalType": "address",
          "name": "wallet",
          "type": "address"
        }
      ],
      "name": "GuardianAdded",
      "type": "event"
    },
    {
      "anonymous": false,
      "inputs": [
        {
          "indexed": false,
          "internalType": "uint256",
          "name": "timestamp",
          "type": "uint256"
        }
      ],
      "name": "InactivityConfirmed",
      "type": "event"
    },
    {
      "anonymous": false,
      "inputs": [
        {
          "indexed": false,
          "internalType": "uint256",
          "name": "timestamp",
          "type": "uint256"
        }
      ],
      "name": "Pulse",
      "type": "event"
    },
    {
      "inputs": [
        {
          "internalType": "string",
          "name": "_name",
          "type": "string"
        },
        {
          "internalType": "address",
          "name": "_wallet",
          "type": "address"
        },
        {
          "internalType": "uint256",
          "name": "_allocationBps",
          "type": "uint256"
        },
        {
          "internalType": "enum AfterLife.VestingType",
          "name": "_vestingType",
          "type": "uint8"
        },
        {
          "internalType": "uint256",
          "name": "_duration",
          "type": "uint256"
        }
      ],
      "name": "addBeneficiary",
      "outputs": [],
      "stateMutability": "nonpayable",
      "type": "function"
    },
    {
      "inputs": [
        {
          "internalType": "string",
          "name": "_name",
          "type": "string"
        },
        {
          "internalType": "address",
          "name": "_wallet",
          "type": "address"
        }
      ],
      "name": "addGuardian",
      "outputs": [],
      "stateMutability": "nonpayable",
      "type": "function"
    },
    {
      "inputs": [
        {
          "internalType": "address",
          "name": "",
          "type": "address"
        }
      ],
      "name": "beneficiaries",
      "outputs": [
        {
          "internalType": "string",
          "name": "name",
          "type": "string"
        },
        {
          "internalType": "address",
          "name": "wallet",
          "type": "address"
        },
        {
          "internalType": "uint256",
          "name": "allocation",
          "type": "uint256"
        },
        {
          "internalType": "uint256",
          "name": "amountClaimed",
          "type": "uint256"
        },
        {
          "internalType": "enum AfterLife.VestingType",
          "name": "vestingType",
          "type": "uint8"
        },
        {
          "internalType": "uint256",
          "name": "vestingDuration",
          "type": "uint256"
        }
      ],
      "stateMutability": "view",
      "type": "function"
    },
    {
      "inputs": [
        {
          "internalType": "uint256",
          "name": "",
          "type": "uint256"
        }
      ],
      "name": "beneficiaryList",
      "outputs": [
        {
          "internalType": "address",
          "name": "",
          "type": "address"
        }
      ],
      "stateMutability": "view",
      "type": "function"
    },
    {
      "inputs": [],
      "name": "claim",
      "outputs": [],
      "stateMutability": "nonpayable",
      "type": "function"
    },
    {
      "inputs": [],
      "name": "confirmInactivity",
      "outputs": [],
      "stateMutability": "nonpayable",
      "type": "function"
    },
    {
      "inputs": [
        {
          "internalType": "uint256",
          "name": "",
          "type": "uint256"
        }
      ],
      "name": "guardianList",
      "outputs": [
        {
          "internalType": "address",
          "name": "",
          "type": "address"
        }
      ],
      "stateMutability": "view",
      "type": "function"
    },
    {
      "inputs": [
        {
          "internalType": "address",
          "name": "",
          "type": "address"
        }
      ],
      "name": "guardians",
      "outputs": [
        {
          "internalType": "string",
          "name": "name",
          "type": "string"
        },
        {
          "internalType": "address",
          "name": "wallet",
          "type": "address"
        },
        {
          "internalType": "bool",
          "name": "isFixed",
          "type": "bool"
        }
      ],
      "stateMutability": "view",
      "type": "function"
    },
    {
      "inputs": [],
      "name": "inactivityThreshold",
      "outputs": [
        {
          "internalType": "uint256",
          "name": "",
          "type": "uint256"
        }
      ],
      "stateMutability": "view",
      "type": "function"
    },
    {
      "inputs": [],
      "name": "initialVaultBalance",
      "outputs": [
        {
          "internalType": "uint256",
          "name": "",
          "type": "uint256"
        }
      ],
      "stateMutability": "view",
      "type": "function"
    },
    {
      "inputs": [],
      "name": "isDead",
      "outputs": [
        {
          "internalType": "bool",
          "name": "",
          "type": "bool"
        }
      ],
      "stateMutability": "view",
      "type": "function"
    },
    {
      "inputs": [],
      "name": "lastHeartbeat",
      "outputs": [
        {
          "internalType": "uint256",
          "name": "",
          "type": "uint256"
        }
      ],
      "stateMutability": "view",
      "type": "function"
    },
    {
      "inputs": [],
      "name": "owner",
      "outputs": [
        {
          "internalType": "address",
          "name": "",
          "type": "address"
        }
      ],
      "stateMutability": "view",
      "type": "function"
    },
    {
      "inputs": [],
      "name": "proveLife",
      "outputs": [],
      "stateMutability": "nonpayable",
      "type": "function"
    },
    {
      "inputs": [],
      "name": "totalAllocation",
      "outputs": [
        {
          "internalType": "uint256",
          "name": "",
          "type": "uint256"
        }
      ],
      "stateMutability": "view",
      "type": "function"
    },
    {
      "inputs": [],
      "name": "vestingStartTime",
      "outputs": [
        {
          "internalType": "uint256",
          "name": "",
          "type": "uint256"
        }
      ],
      "stateMutability": "view",
      "type": "function"
    }
  ],
  "bytecode": "0x608060405234801561001057600080fd5b5060405161121238038061121283398101604081905261002f9161004d565b600080546001600160a01b0319163317905542600255600155610066565b60006020828403121561005f57600080fd5b5051919050565b61119d806100756000396000f3fe608060405234801561001057600080fd5b50600436106101005760003560e01c80635ec005fa1161009757806399baa10c1161006657806399baa10c146101fc5780639e761bbb146102195780639ec862761461022c578063a8660a781461023557600080fd5b80635ec005fa146101ac57806369c1a712146101d757806379203dc4146101e05780638da5cb5b146101e957600080fd5b806335f93867116100d357806335f93867146101815780633af5c3a6146101945780634e71d92d1461019c5780635bd61f23146101a457600080fd5b806301567739146101055780630633b14a1461013357806320292859146101555780632f8a205b1461016a575b600080fd5b610118610113366004610cbc565b61023e565b60405161012a96959493929190610d3a565b60405180910390f35b610146610141366004610cbc565b610309565b60405161012a93929190610d9e565b610168610163366004610e74565b6103c3565b005b610173600a5481565b60405190815260200161012a565b61016861018f366004610ec2565b610559565b6101686107d6565b61016861090f565b610168610be3565b6101bf6101ba366004610f38565b610c66565b6040516001600160a01b03909116815260200161012a565b61017360025481565b61017360085481565b6000546101bf906001600160a01b031681565b6003546102099060ff1681565b604051901515815260200161012a565b6101bf610227366004610f38565b610c90565b61017360015481565b61017360095481565b60066020526000908152604090208054819061025990610f51565b80601f016020809104026020016040519081016040528092919081815260200182805461028590610f51565b80156102d25780601f106102a7576101008083540402835291602001916102d2565b820191906000526020600020905b8154815290600101906020018083116102b557829003601f168201915b50505050600183015460028401546003850154600486015460059096015494956001600160a01b03909316949193509160ff169086565b60046020526000908152604090208054819061032490610f51565b80601f016020809104026020016040519081016040528092919081815260200182805461035090610f51565b801561039d5780601f106103725761010080835404028352916020019161039d565b820191906000526020600020905b81548152906001019060200180831161038057829003601f168201915b505050600190930154919250506001600160a01b0381169060ff600160a01b9091041683565b6000546001600160a01b031633146103f65760405162461bcd60e51b81526004016103ed90610f8b565b60405180910390fd5b60035460ff16156104195760405162461bcd60e51b81526004016103ed90610fae565b6001600160a01b03818116600090815260046020526040902060010154161561046d5760405162461bcd60e51b815260206004820152600660248201526545786973747360d01b60448201526064016103ed565b604080516060810182528381526001600160a01b038316602080830182905260008385018190529182526004905291909120815182919081906104b0908261102c565b506020820151600191820180546040948501511515600160a01b026001600160a81b03199091166001600160a01b039384161717905560058054928301815560009081527f036b6384b5eca791c62761152d0c79bb0604c104a5fb6f4eb0703f3154bb3db090920180549186166001600160a01b0319929092168217905591517f038596bb31e2e7d3d9f184d4c98b310103f6d7f5830e5eec32bffe6f1728f9699190a2505050565b6000546001600160a01b031633146105835760405162461bcd60e51b81526004016103ed90610f8b565b60035460ff16156105a65760405162461bcd60e51b81526004016103ed90610fae565b6001600160a01b0384811660009081526006602052604090206001015416156105fa5760405162461bcd60e51b815260206004820152600660248201526545786973747360d01b60448201526064016103ed565b6127108360085461060b9190611102565b11156106455760405162461bcd60e51b81526020600482015260096024820152684f766572203130302560b81b60448201526064016103ed565b60006040518060c00160405280878152602001866001600160a01b031681526020018581526020016000815260200184600181111561068657610686610d24565b815260209081018490526001600160a01b03871660009081526006909152604090208151919250829181906106bb908261102c565b506020820151600182810180546001600160a01b0319166001600160a01b0390931692909217909155604083015160028301556060830151600383015560808301516004830180549192909160ff191690838181111561071d5761071d610d24565b021790555060a091909101516005909101556007805460018101825560009182527fa66cc928b5edb82af9bd49922954155ab7b0942694bea4ce44661d9a8736c6880180546001600160a01b0319166001600160a01b0388161790556008805486929061078b908490611102565b90915550506040518481526001600160a01b038616907fe6b83177f11971ba30369bb38b914ffba97d5969a3c857b286fa8fdbb150b3ba9060200160405180910390a2505050505050565b336000908152600460205260409020600101546001600160a01b031661082d5760405162461bcd60e51b815260206004820152600c60248201526b2737ba1023bab0b93234b0b760a11b60448201526064016103ed565b60035460ff161561086f5760405162461bcd60e51b815260206004820152600c60248201526b105b1c9958591e481119585960a21b60448201526064016103ed565b60015460025461087f9190611102565b42116108bc5760405162461bcd60e51b815260206004820152600c60248201526b4f776e65722041637469766560a01b60448201526064016103ed565b6003805460ff1916600117905542600981905547600a556040517f5c73863adccecb1408b862140a5139af3856435f501498bac55a4130f52e7a8c916109059190815260200190565b60405180910390a1565b60035460ff166109535760405162461bcd60e51b815260206004820152600f60248201526e50726f746f636f6c2041637469766560881b60448201526064016103ed565b60006009541161099b5760405162461bcd60e51b815260206004820152601360248201527215995cdd1a5b99c8139bdd0814dd185c9d1959606a1b60448201526064016103ed565b336000818152600660205260409020600181015490916001600160a01b03909116146109fb5760405162461bcd60e51b815260206004820152600f60248201526e4e6f742042656e656669636961727960881b60448201526064016103ed565b60006127108260020154600a54610a12919061111b565b610a1c9190611132565b905060008060095442610a2f9190611154565b90506001600485015460ff166001811115610a4c57610a4c610d24565b03610a6d5783600501548110610a6457829150610a9c565b60009150610a9c565b83600501548110610a8057829150610a9c565b6005840154610a8f828561111b565b610a999190611132565b91505b60008460030154831115610abc576003850154610ab99084611154565b90505b60008111610aff5760405162461bcd60e51b815260206004820152601060248201526f4e6f7468696e6720746f20636c61696d60801b60448201526064016103ed565b80471015610b425760405162461bcd60e51b815260206004820152601060248201526f5661756c7420496e736f6c76656e637960801b60448201526064016103ed565b80856003016000828254610b569190611102565b909155505060018501546040516001600160a01b039091169082156108fc029083906000818181858888f19350505050158015610b97573d6000803e3d6000fd5b5060018501546040518281526001600160a01b03909116907fa65a8b4f7f65a1063243d7f7e9e4da00ff767599acf21549ef2548a45d1695ae9060200160405180910390a25050505050565b6000546001600160a01b03163314610c0d5760405162461bcd60e51b81526004016103ed90610f8b565b60035460ff1615610c305760405162461bcd60e51b81526004016103ed90610fae565b4260028190556040519081527f4f277404b6580a9ae55995929e215329056c6bca500f33aca15ae3c3d015319190602001610905565b60058181548110610c7657600080fd5b6000918252602090912001546001600160a01b0316905081565b60078181548110610c7657600080fd5b80356001600160a01b0381168114610cb757600080fd5b919050565b600060208284031215610cce57600080fd5b610cd782610ca0565b9392505050565b6000815180845260005b81811015610d0457602081850181015186830182015201610ce8565b506000602082860101526020601f19601f83011685010191505092915050565b634e487b7160e01b600052602160045260246000fd5b60c081526000610d4d60c0830189610cde565b6001600160a01b03881660208401526040830187905260608301869052905060028410610d8a57634e487b7160e01b600052602160045260246000fd5b608082019390935260a00152949350505050565b606081526000610db16060830186610cde565b6001600160a01b0394909416602083015250901515604090910152919050565b634e487b7160e01b600052604160045260246000fd5b600082601f830112610df857600080fd5b813567ffffffffffffffff80821115610e1357610e13610dd1565b604051601f8301601f19908116603f01168101908282118183101715610e3b57610e3b610dd1565b81604052838152866020858801011115610e5457600080fd5b836020870160208301376000602085830101528094505050505092915050565b60008060408385031215610e8757600080fd5b823567ffffffffffffffff811115610e9e57600080fd5b610eaa85828601610de7565b925050610eb960208401610ca0565b90509250929050565b600080600080600060a08688031215610eda57600080fd5b853567ffffffffffffffff811115610ef157600080fd5b610efd88828901610de7565b955050610f0c60208701610ca0565b935060408601359250606086013560028110610f2757600080fd5b949793965091946080013592915050565b600060208284031215610f4a57600080fd5b5035919050565b600181811c90821680610f6557607f821691505b602082108103610f8557634e487b7160e01b600052602260045260246000fd5b50919050565b6020808252600990820152682737ba1027bbb732b960b91b604082015260600190565b60208082526015908201527450726f746f636f6c20697320457865637574696e6760581b604082015260600190565b601f82111561102757600081815260208120601f850160051c810160208610156110045750805b601f850160051c820191505b8181101561102357828155600101611010565b5050505b505050565b815167ffffffffffffffff81111561104657611046610dd1565b61105a816110548454610f51565b84610fdd565b602080601f83116001811461108f57600084156110775750858301515b600019600386901b1c1916600185901b178555611023565b600085815260208120601f198616915b828110156110be5788860151825594840194600190910190840161109f565b50858210156110dc5787850151600019600388901b60f8161c191681555b5050505050600190811b01905550565b634e487b7160e01b600052601160045260246000fd5b80820180821115611115576111156110ec565b92915050565b8082028115828204841417611115576111156110ec565b60008261114f57634e487b7160e01b600052601260045260246000fd5b500490565b81810381811115611115576111156110ec56fea264697066735822122071929e73a31349b7e4eecb9261483535fbf899dc169dccfd85c5b24703db6ff164736f6c63430008140033",
  "linkReferences": {},
  "deployedLinkReferences": {}
}